{
  "_format": "hh-sol-artifact-1",
  "contractName": "Base64AdFactory",
  "sourceName": "contracts/ads/Base64AdFactory.sol",
  "abi": [
    {
      "inputs": [
        {
          "internalType": "address",
          "name": "_adContract",
          "type": "address"
        },
        {
          "internalType": "address",
          "name": "_technicalCurate",
          "type": "address"
        },
        {
          "internalType": "address",
          "name": "_contentCurate",
          "type": "address"
        },
        {
          "internalType": "address",
          "name": "_curateProxy",
          "type": "address"
        }
      ],
      "stateMutability": "nonpayable",
      "type": "constructor"
    },
    {
      "anonymous": false,
      "inputs": [
        {
          "indexed": true,
          "internalType": "address",
          "name": "ad",
          "type": "address"
        }
      ],
      "name": "NewAd",
      "type": "event"
    },
    {
      "inputs": [],
      "name": "adContract",
      "outputs": [
        {
          "internalType": "address",
          "name": "",
          "type": "address"
        }
      ],
      "stateMutability": "view",
      "type": "function"
    },
    {
      "inputs": [],
      "name": "adCount",
      "outputs": [
        {
          "internalType": "uint256",
          "name": "",
          "type": "uint256"
        }
      ],
      "stateMutability": "view",
      "type": "function"
    },
    {
      "inputs": [
        {
          "internalType": "uint256",
          "name": "",
          "type": "uint256"
        }
      ],
      "name": "ads",
      "outputs": [
        {
          "internalType": "contract Base64Ad",
          "name": "",
          "type": "address"
        }
      ],
      "stateMutability": "view",
      "type": "function"
    },
    {
      "inputs": [],
      "name": "allAds",
      "outputs": [
        {
          "internalType": "contract Base64Ad[]",
          "name": "",
          "type": "address[]"
        }
      ],
      "stateMutability": "view",
      "type": "function"
    },
    {
      "inputs": [],
      "name": "contentCurate",
      "outputs": [
        {
          "internalType": "address",
          "name": "",
          "type": "address"
        }
      ],
      "stateMutability": "view",
      "type": "function"
    },
    {
      "inputs": [
        {
          "internalType": "string",
          "name": "_ipfsLink",
          "type": "string"
        },
        {
          "internalType": "string",
          "name": "_svg",
          "type": "string"
        }
      ],
      "name": "createAd",
      "outputs": [
        {
          "internalType": "address",
          "name": "",
          "type": "address"
        }
      ],
      "stateMutability": "payable",
      "type": "function"
    },
    {
      "inputs": [],
      "name": "curateProxy",
      "outputs": [
        {
          "internalType": "address",
          "name": "",
          "type": "address"
        }
      ],
      "stateMutability": "view",
      "type": "function"
    },
    {
      "inputs": [],
      "name": "technicalCurate",
      "outputs": [
        {
          "internalType": "address",
          "name": "",
          "type": "address"
        }
      ],
      "stateMutability": "view",
      "type": "function"
    }
  ],
  "bytecode": "0x61010060405234801561001157600080fd5b506040516108bb3803806108bb83398101604081905261003091610087565b6001600160a01b0393841660805291831660a052821660c0521660e0526100eb565b60006001600160a01b0382165b92915050565b61006e81610052565b811461007957600080fd5b50565b805161005f81610065565b600080600080608085870312156100a0576100a0600080fd5b60006100ac878761007c565b94505060206100bd8782880161007c565b93505060406100ce8782880161007c565b92505060606100df8782880161007c565b91505092959194509250565b60805160a05160c05160e051610792610129600039600060dc015260006101c301526000609201526000818161018f015261027901526107926000f3fe60806040526004361061007b5760003560e01c80637a0ffc9c1161004e5780637a0ffc9c1461014d5780639c89dcf314610160578063c9bdb93e1461017d578063e92057aa146101b157600080fd5b806303db0eee146100805780630d19c74b146100ca57806311a7a4c0146100fe5780633c14d6961461012b575b600080fd5b34801561008c57600080fd5b506100b47f000000000000000000000000000000000000000000000000000000000000000081565b6040516100c1919061042d565b60405180910390f35b3480156100d657600080fd5b506100b47f000000000000000000000000000000000000000000000000000000000000000081565b34801561010a57600080fd5b5061011e610119366004610442565b6101e5565b6040516100c1919061048a565b34801561013757600080fd5b5061014061020f565b6040516100c191906104f5565b6100b461015b366004610603565b610271565b34801561016c57600080fd5b506000546040516100c1919061067b565b34801561018957600080fd5b506100b47f000000000000000000000000000000000000000000000000000000000000000081565b3480156101bd57600080fd5b506100b47f000000000000000000000000000000000000000000000000000000000000000081565b600081815481106101f557600080fd5b6000918252602090912001546001600160a01b0316905081565b6060600080548060200260200160405190810160405280929190818152602001828054801561026757602002820191906000526020600020905b81546001600160a01b03168152600190910190602001808311610249575b5050505050905090565b6000806102a67f00000000000000000000000000000000000000000000000000000000000000006001600160a01b0316610390565b9050806001600160a01b03166390657147343387876040518563ffffffff1660e01b81526004016102d9939291906106eb565b6000604051808303818588803b1580156102f257600080fd5b505af1158015610306573d6000803e3d6000fd5b50506040516001600160a01b03851693507f7c466f1f8042a039f142263e295543c0dfd8dafd0c8534312863713e5e4a9447925060009150a2600080546001810182559080527f290decd9548b62a8d60345a988386fc84ba6bc95484008f6362f93160ef3e5630180546001600160a01b0319166001600160a01b03831617905590505b92915050565b6000604051733d602d80600a3d3981f3363d3d373d3d3d363d7360601b81528260601b60148201526e5af43d82803e903d91602b57fd5bf360881b60288201526037816000f09150506001600160a01b0381166104085760405162461bcd60e51b81526004016103ff90610728565b60405180910390fd5b919050565b60006001600160a01b03821661038a565b6104278161040d565b82525050565b6020810161038a828461041e565b803561038a565b60006020828403121561045757610457600080fd5b6000610463848461043b565b949350505050565b600061038a8261040d565b600061038a8261046b565b61042781610476565b6020810161038a8284610481565b60006104a48383610481565b505060200190565b60006104b6825190565b80845260209384019383018060005b838110156104ea5781516104d98882610498565b9750602083019250506001016104c5565b509495945050505050565b6020808252810161050681846104ac565b9392505050565b634e487b7160e01b600052604160045260246000fd5b601f19601f830116810181811067ffffffffffffffff821117156105495761054961050d565b6040525050565b600061055b60405190565b90506104088282610523565b600067ffffffffffffffff8211156105815761058161050d565b601f19601f83011660200192915050565b82818337506000910152565b60006105b16105ac84610567565b610550565b9050828152602081018484840111156105cc576105cc600080fd5b6105d7848285610592565b509392505050565b600082601f8301126105f3576105f3600080fd5b813561046384826020860161059e565b6000806040838503121561061957610619600080fd5b823567ffffffffffffffff81111561063357610633600080fd5b61063f858286016105df565b925050602083013567ffffffffffffffff81111561065f5761065f600080fd5b61066b858286016105df565b9150509250929050565b80610427565b6020810161038a8284610675565b60005b838110156106a457818101518382015260200161068c565b838111156106b3576000848401525b50505050565b60006106c3825190565b8084526020840193506106da818560208601610689565b601f01601f19169290920192915050565b606081016106f9828661041e565b818103602083015261070b81856106b9565b9050818103604083015261071f81846106b9565b95945050505050565b6020808252810161038a816016815275115490cc4c4d8dce8818dc99585d194819985a5b195960521b60208201526040019056fea2646970667358221220ee1ee90be757be9372d4765dd5eef73e75a48b548663e981cc4a6f6609f9930464736f6c63430008090033",
  "linkReferences": {},
  "deployedLinkReferences": {}
}