{
  "_format": "hh-sol-artifact-1",
  "contractName": "Base64Ad",
  "sourceName": "contracts/ads/Base64Ad.sol",
  "abi": [
    {
      "inputs": [],
      "stateMutability": "nonpayable",
      "type": "constructor"
    },
    {
      "inputs": [],
      "name": "creator",
      "outputs": [
        {
          "internalType": "address",
          "name": "",
          "type": "address"
        }
      ],
      "stateMutability": "view",
      "type": "function"
    },
    {
      "inputs": [
        {
          "internalType": "address",
          "name": "_market",
          "type": "address"
        },
        {
          "internalType": "uint256",
          "name": "_tokenID",
          "type": "uint256"
        }
      ],
      "name": "getSVG",
      "outputs": [
        {
          "internalType": "string",
          "name": "",
          "type": "string"
        }
      ],
      "stateMutability": "view",
      "type": "function"
    },
    {
      "inputs": [
        {
          "internalType": "address",
          "name": "_creator",
          "type": "address"
        },
        {
          "internalType": "string",
          "name": "_ipfsLink",
          "type": "string"
        },
        {
          "internalType": "string",
          "name": "_svg",
          "type": "string"
        }
      ],
      "name": "initialize",
      "outputs": [],
      "stateMutability": "payable",
      "type": "function"
    },
    {
      "inputs": [],
      "name": "proxyItemID",
      "outputs": [
        {
          "internalType": "bytes32",
          "name": "",
          "type": "bytes32"
        }
      ],
      "stateMutability": "view",
      "type": "function"
    },
    {
      "inputs": [],
      "name": "withdraw",
      "outputs": [],
      "stateMutability": "nonpayable",
      "type": "function"
    },
    {
      "stateMutability": "payable",
      "type": "receive"
    }
  ],
  "bytecode": "0x608060405234801561001057600080fd5b50610a66806100206000396000f3fe60806040526004361061004e5760003560e01c806302d05d3f1461005a5780633ccfd60b146100905780634660a3e3146100a757806390657147146100d4578063ae9d449d146100e757600080fd5b3661005557005b600080fd5b34801561006657600080fd5b5060015461007a906001600160a01b031681565b604051610087919061063a565b60405180910390f35b34801561009c57600080fd5b506100a561010a565b005b3480156100b357600080fd5b506100c76100c2366004610678565b6101a3565b6040516100879190610717565b6100a56100e2366004610832565b610239565b3480156100f357600080fd5b506100fd60025481565b60405161008791906108be565b6001546040805160008082526020820192839052926001600160a01b0316914791610134916108ee565b60006040518083038185875af1925050503d8060008114610171576040519150601f19603f3d011682016040523d82523d6000602084013e610176565b606091505b50509050806101a05760405162461bcd60e51b815260040161019790610924565b60405180910390fd5b50565b6060600080546101b29061094a565b80601f01602080910402602001604051908101604052809291908181526020018280546101de9061094a565b801561022b5780601f106102005761010080835404028352916020019161022b565b820191906000526020600020905b81548152906001019060200180831161020e57829003601f168201915b505050505090505b92915050565b600080546102469061094a565b1590506102655760405162461bcd60e51b81526004016101979061099d565b60008151116102865760405162461bcd60e51b8152600401610197906109d9565b8051610299906000906020840190610581565b50600180546001600160a01b0319166001600160a01b0385161790556040805160208082018352600080835283516301ed877760e11b815293519293909233926303db0eee9260048082019391829003018186803b1580156102fa57600080fd5b505afa15801561030e573d6000803e3d6000fd5b505050506040513d601f19601f8201168201806040525081019061033291906109f4565b9050806001600160a01b031663d294ccef34846040518363ffffffff1660e01b81526004016103619190610717565b6000604051808303818588803b15801561037a57600080fd5b505af115801561038e573d6000803e3d6000fd5b50505050506000336001600160a01b031663e92057aa6040518163ffffffff1660e01b815260040160206040518083038186803b1580156103ce57600080fd5b505afa1580156103e2573d6000803e3d6000fd5b505050506040513d601f19601f8201168201806040525081019061040691906109f4565b9050806001600160a01b031663d294ccef34856040518363ffffffff1660e01b81526004016104359190610717565b6000604051808303818588803b15801561044e57600080fd5b505af1158015610462573d6000803e3d6000fd5b50505050506000838051906020012090506000336001600160a01b0316630d19c74b6040518163ffffffff1660e01b815260040160206040518083038186803b1580156104ae57600080fd5b505afa1580156104c2573d6000803e3d6000fd5b505050506040513d601f19601f820116820180604052508101906104e691906109f4565b604051638d10eb3560e01b81529091506001600160a01b03821690638d10eb35906105179085908190600401610a15565b600060405180830381600087803b15801561053157600080fd5b505af1158015610545573d6000803e3d6000fd5b50505050818260405160200161055c929190610a15565b60408051601f1981840301815291905280516020909101206002555050505050505050565b82805461058d9061094a565b90600052602060002090601f0160209004810192826105af57600085556105f5565b82601f106105c857805160ff19168380011785556105f5565b828001600101855582156105f5579182015b828111156105f55782518255916020019190600101906105da565b50610601929150610605565b5090565b5b808211156106015760008155600101610606565b60006001600160a01b038216610233565b6106348161061a565b82525050565b60208101610233828461062b565b6106518161061a565b81146101a057600080fd5b803561023381610648565b80610651565b803561023381610667565b6000806040838503121561068e5761068e600080fd5b600061069a858561065c565b92505060206106ab8582860161066d565b9150509250929050565b60005b838110156106d05781810151838201526020016106b8565b838111156106df576000848401525b50505050565b60006106ef825190565b8084526020840193506107068185602086016106b5565b601f01601f19169290920192915050565b6020808252810161072881846106e5565b9392505050565b634e487b7160e01b600052604160045260246000fd5b601f19601f830116810181811067ffffffffffffffff8211171561076b5761076b61072f565b6040525050565b600061077d60405190565b90506107898282610745565b919050565b600067ffffffffffffffff8211156107a8576107a861072f565b601f19601f83011660200192915050565b82818337506000910152565b60006107d86107d38461078e565b610772565b9050828152602081018484840111156107f3576107f3600080fd5b6107fe8482856107b9565b509392505050565b600082601f83011261081a5761081a600080fd5b813561082a8482602086016107c5565b949350505050565b60008060006060848603121561084a5761084a600080fd5b6000610856868661065c565b935050602084013567ffffffffffffffff81111561087657610876600080fd5b61088286828701610806565b925050604084013567ffffffffffffffff8111156108a2576108a2600080fd5b6108ae86828701610806565b9150509250925092565b80610634565b6020810161023382846108b8565b60006108d6825190565b6108e48185602086016106b5565b9290920192915050565b600061072882846108cc565b601081526000602082016f14d95b9908161110524819985a5b195960821b815291505b5060200190565b60208082528101610233816108fa565b634e487b7160e01b600052602260045260246000fd5b60028104600182168061095e57607f821691505b6020821081141561097157610971610934565b50919050565b600f81526000602082016e14d591c8185b1c9958591e481cd95d608a1b8152915061091d565b6020808252810161023381610977565b6015815260006020820174535647206d757374206e6f7420626520656d70747960581b8152915061091d565b60208082528101610233816109ad565b805161023381610648565b600060208284031215610a0957610a09600080fd5b600061082a84846109e9565b60408101610a2382856108b8565b61072860208301846108b856fea2646970667358221220021bb0c2447328d26a12d43b7aa0da38d3437c20ca526c91920be215a93ca38f64736f6c63430008090033",
  "linkReferences": {},
  "deployedLinkReferences": {}
}