{
  "_format": "hh-sol-artifact-1",
  "contractName": "Billing",
  "sourceName": "contracts/ads/Billing.sol",
  "abi": [
    {
      "inputs": [
        {
          "internalType": "address",
          "name": "_governor",
          "type": "address"
        },
        {
          "internalType": "address",
          "name": "_fallbackRecipient",
          "type": "address"
        }
      ],
      "stateMutability": "nonpayable",
      "type": "constructor"
    },
    {
      "anonymous": false,
      "inputs": [
        {
          "indexed": true,
          "internalType": "contract IMarket",
          "name": "_market",
          "type": "address"
        },
        {
          "indexed": false,
          "internalType": "uint256",
          "name": "_newBalance",
          "type": "uint256"
        }
      ],
      "name": "BalanceChanged",
      "type": "event"
    },
    {
      "inputs": [
        {
          "internalType": "contract IMarket",
          "name": "",
          "type": "address"
        }
      ],
      "name": "balances",
      "outputs": [
        {
          "internalType": "uint256",
          "name": "",
          "type": "uint256"
        }
      ],
      "stateMutability": "view",
      "type": "function"
    },
    {
      "inputs": [
        {
          "internalType": "address",
          "name": "_fallbackRecipient",
          "type": "address"
        }
      ],
      "name": "changeBeneficiary",
      "outputs": [],
      "stateMutability": "nonpayable",
      "type": "function"
    },
    {
      "inputs": [
        {
          "internalType": "address",
          "name": "_governor",
          "type": "address"
        }
      ],
      "name": "changeGovernor",
      "outputs": [],
      "stateMutability": "nonpayable",
      "type": "function"
    },
    {
      "inputs": [
        {
          "internalType": "contract IMarket",
          "name": "_market",
          "type": "address"
        }
      ],
      "name": "executePayment",
      "outputs": [],
      "stateMutability": "payable",
      "type": "function"
    },
    {
      "inputs": [],
      "name": "fallbackRecipient",
      "outputs": [
        {
          "internalType": "address",
          "name": "",
          "type": "address"
        }
      ],
      "stateMutability": "view",
      "type": "function"
    },
    {
      "inputs": [],
      "name": "governor",
      "outputs": [
        {
          "internalType": "address",
          "name": "",
          "type": "address"
        }
      ],
      "stateMutability": "view",
      "type": "function"
    },
    {
      "inputs": [
        {
          "internalType": "contract IMarket",
          "name": "_market",
          "type": "address"
        }
      ],
      "name": "registerPayment",
      "outputs": [],
      "stateMutability": "payable",
      "type": "function"
    }
  ],
  "bytecode": "0x608060405234801561001057600080fd5b506040516107b23803806107b283398101604081905261002f91610095565b600080546001600160a01b039384166001600160a01b031991821617909155600180549290931691161790556100d2565b60006001600160a01b0382165b92915050565b61007c81610060565b811461008757600080fd5b50565b805161006d81610073565b600080604083850312156100ab576100ab600080fd5b60006100b7858561008a565b92505060206100c88582860161008a565b9150509250929050565b6106d1806100e16000396000f3fe6080604052600436106100705760003560e01c8063452f3ce01161004e578063452f3ce0146100fa578063dc0706571461011a578063e4c0aaf41461013a578063f8cf068b1461015a57600080fd5b80630c340a241461007557806319994442146100ab57806327e235e3146100c0575b600080fd5b34801561008157600080fd5b50600054610095906001600160a01b031681565b6040516100a2919061049c565b60405180910390f35b6100be6100b93660046104d7565b61016d565b005b3480156100cc57600080fd5b506100ed6100db3660046104d7565b60026020526000908152604090205481565b6040516100a29190610506565b34801561010657600080fd5b50600154610095906001600160a01b031681565b34801561012657600080fd5b506100be610135366004610528565b610362565b34801561014657600080fd5b506100be610155366004610528565b6103ae565b6100be6101683660046104d7565b6103fa565b6001600160a01b03811660008181526002602052604081208054919055903b1561028d57604051635fed47cd60e01b81526001600160a01b03831690635fed47cd9083906101bd90600401610566565b6000604051808303818588803b1580156101d657600080fd5b505af1935050505080156101e8575060015b610288576001546040805160008082526020820192839052926001600160a01b0316918491610216916105c8565b60006040518083038185875af1925050503d8060008114610253576040519150601f19603f3d011682016040523d82523d6000602084013e610258565b606091505b50509050806102825760405162461bcd60e51b815260040161027990610602565b60405180910390fd5b5061031c565b61031c565b6001546040805160008082526020820192839052926001600160a01b03169184916102b7916105c8565b60006040518083038185875af1925050503d80600081146102f4576040519150601f19603f3d011682016040523d82523d6000602084013e6102f9565b606091505b505090508061031a5760405162461bcd60e51b815260040161027990610602565b505b816001600160a01b03167fa448afda7ea1e3a7a10fcab0c29fe9a9dd85791503bf0171f281521551c7ec056000604051610356919061062a565b60405180910390a25050565b6000546001600160a01b0316331461038c5760405162461bcd60e51b81526004016102799061065d565b600180546001600160a01b0319166001600160a01b0392909216919091179055565b6000546001600160a01b031633146103d85760405162461bcd60e51b81526004016102799061065d565b600080546001600160a01b0319166001600160a01b0392909216919091179055565b6001600160a01b03811660009081526002602052604081208054349290610422908490610683565b90915550506001600160a01b038116600081815260026020526040908190205490517fa448afda7ea1e3a7a10fcab0c29fe9a9dd85791503bf0171f281521551c7ec059161046f91610506565b60405180910390a250565b60006001600160a01b0382165b92915050565b6104968161047a565b82525050565b60208101610487828461048d565b60006104878261047a565b6104be816104aa565b81146104c957600080fd5b50565b8035610487816104b5565b6000602082840312156104ec576104ec600080fd5b60006104f884846104cc565b949350505050565b80610496565b602081016104878284610500565b6104be8161047a565b803561048781610514565b60006020828403121561053d5761053d600080fd5b60006104f8848461051d565b600381526000602082016261647360e81b815291505b5060200190565b6020808252810161048781610549565b60005b83811015610591578181015183820152602001610579565b838111156105a0576000848401525b50505050565b60006105b0825190565b6105be818560208601610576565b9290920192915050565b60006105d482846105a6565b9392505050565b601081526000602082016f14d95b9908161110524819985a5b195960821b8152915061055f565b60208082528101610487816105db565b600061048761061e8381565b90565b61049681610612565b602081016104878284610621565b600e81526000602082016d139bdd08185d5d1a1bdc9a5e995960921b8152915061055f565b6020808252810161048781610638565b634e487b7160e01b600052601160045260246000fd5b600082198211156106965761069661066d565b50019056fea264697066735822122028689ad0f5bbc70390390d982f1d38ccb0d530e28b30f2c1447203ba0cc24fa664736f6c63430008090033",
  "linkReferences": {},
  "deployedLinkReferences": {}
}