{
  "_format": "hh-sol-artifact-1",
  "contractName": "CurateProxySVG",
  "sourceName": "contracts/curate/CurateProxySVG.sol",
  "abi": [
    {
      "inputs": [
        {
          "internalType": "contract IGeneralizedTCR",
          "name": "_gtcrContent",
          "type": "address"
        },
        {
          "internalType": "contract IGeneralizedTCR",
          "name": "_gtcrTechnical",
          "type": "address"
        }
      ],
      "stateMutability": "nonpayable",
      "type": "constructor"
    },
    {
      "anonymous": false,
      "inputs": [
        {
          "indexed": true,
          "internalType": "address",
          "name": "_svgAddress",
          "type": "address"
        },
        {
          "indexed": true,
          "internalType": "bytes32",
          "name": "_itemID",
          "type": "bytes32"
        },
        {
          "indexed": false,
          "internalType": "bytes32",
          "name": "_contentItemID",
          "type": "bytes32"
        },
        {
          "indexed": false,
          "internalType": "bytes32",
          "name": "_technicalItemID",
          "type": "bytes32"
        }
      ],
      "name": "newItemMapped",
      "type": "event"
    },
    {
      "inputs": [
        {
          "internalType": "bytes32",
          "name": "_itemID",
          "type": "bytes32"
        }
      ],
      "name": "getAddress",
      "outputs": [
        {
          "internalType": "address",
          "name": "",
          "type": "address"
        }
      ],
      "stateMutability": "view",
      "type": "function"
    },
    {
      "inputs": [],
      "name": "gtcrContent",
      "outputs": [
        {
          "internalType": "contract IGeneralizedTCR",
          "name": "",
          "type": "address"
        }
      ],
      "stateMutability": "view",
      "type": "function"
    },
    {
      "inputs": [],
      "name": "gtcrTechnical",
      "outputs": [
        {
          "internalType": "contract IGeneralizedTCR",
          "name": "",
          "type": "address"
        }
      ],
      "stateMutability": "view",
      "type": "function"
    },
    {
      "inputs": [
        {
          "internalType": "bytes32",
          "name": "",
          "type": "bytes32"
        }
      ],
      "name": "hashToCurateIDs",
      "outputs": [
        {
          "internalType": "bytes32",
          "name": "contentItemID",
          "type": "bytes32"
        },
        {
          "internalType": "bytes32",
          "name": "technicalItemID",
          "type": "bytes32"
        },
        {
          "internalType": "address",
          "name": "svgAddress",
          "type": "address"
        }
      ],
      "stateMutability": "view",
      "type": "function"
    },
    {
      "inputs": [
        {
          "internalType": "bytes32",
          "name": "_itemID",
          "type": "bytes32"
        }
      ],
      "name": "isRegistered",
      "outputs": [
        {
          "internalType": "bool",
          "name": "",
          "type": "bool"
        }
      ],
      "stateMutability": "view",
      "type": "function"
    },
    {
      "inputs": [
        {
          "internalType": "bytes32",
          "name": "_contentItemID",
          "type": "bytes32"
        },
        {
          "internalType": "bytes32",
          "name": "_technicalItemID",
          "type": "bytes32"
        }
      ],
      "name": "registerAd",
      "outputs": [],
      "stateMutability": "nonpayable",
      "type": "function"
    }
  ],
  "bytecode": "0x60c060405234801561001057600080fd5b50604051610da8380380610da88339818101604052604081101561003357600080fd5b5080516020909101516001600160601b0319606092831b8116608052911b1660a05260805160601c60a05160601c610d166100926000398061033b52806104eb52806106c052508061014c52806101de52806105715250610d166000f3fe608060405234801561001057600080fd5b50600436106100625760003560e01c8063045707181461006757806321f8a7211461008b57806327258b22146100a85780634d0c50c1146100d95780638d10eb35146100e1578063d19bbe6c14610106575b600080fd5b61006f61014a565b604080516001600160a01b039092168252519081900360200190f35b61006f600480360360208110156100a157600080fd5b503561016e565b6100c5600480360360208110156100be57600080fd5b50356101a9565b604080519115158252519081900360200190f35b61006f6104e9565b610104600480360360408110156100f757600080fd5b508035906020013561050d565b005b6101236004803603602081101561011c57600080fd5b5035610967565b6040805193845260208401929092526001600160a01b031682820152519081900360600190f35b7f000000000000000000000000000000000000000000000000000000000000000081565b6000818152602081905260408120610185836101a9565b1561019e57600201546001600160a01b031690506101a4565b60009150505b919050565b60008181526020819052604080822080548251634aac84e560e01b815260048101919091529151909183916001600160a01b037f00000000000000000000000000000000000000000000000000000000000000001691634aac84e59160248083019286929190829003018186803b15801561022357600080fd5b505afa158015610237573d6000803e3d6000fd5b505050506040513d6000823e601f3d908101601f19168201604052606081101561026057600080fd5b8101908080516040519392919084600160201b82111561027f57600080fd5b90830190602082018581111561029457600080fd5b8251600160201b8111828201881017156102ad57600080fd5b82525081516020918201929091019080838360005b838110156102da5781810151838201526020016102c2565b50505050905090810190601f1680156103075780820380516001836020036101000a031916815260200191505b506040818152602092909201516001880154634aac84e560e01b835260048301529151919550600094506001600160a01b037f0000000000000000000000000000000000000000000000000000000000000000169350634aac84e592506024808201928692909190829003018186803b15801561038357600080fd5b505afa158015610397573d6000803e3d6000fd5b505050506040513d6000823e601f3d908101601f1916820160405260608110156103c057600080fd5b8101908080516040519392919084600160201b8211156103df57600080fd5b9083019060208201858111156103f457600080fd5b8251600160201b81118282018810171561040d57600080fd5b82525081516020918201929091019080838360005b8381101561043a578181015183820152602001610422565b50505050905090810190601f1680156104675780820380516001836020036101000a031916815260200191505b506040526020015193506001925061047d915050565b82600381111561048957fe5b14806104a05750600382600381111561049e57fe5b145b80156104cc575060018160038111156104b557fe5b14806104cc575060038160038111156104ca57fe5b145b156104dd57600193505050506101a4565b600093505050506101a4565b7f000000000000000000000000000000000000000000000000000000000000000081565b604080516020808201859052818301849052825180830384018152606080840180865282519284019290922060008181529384905285842088815560018101889055634aac84e560e01b909352606485018890529451919390926001600160a01b037f00000000000000000000000000000000000000000000000000000000000000001692634aac84e5926084808201939291829003018186803b1580156105b457600080fd5b505afa1580156105c8573d6000803e3d6000fd5b505050506040513d6000823e601f3d908101601f1916820160405260608110156105f157600080fd5b8101908080516040519392919084600160201b82111561061057600080fd5b90830190602082018581111561062557600080fd5b8251600160201b81118282018810171561063e57600080fd5b82525081516020918201929091019080838360005b8381101561066b578181015183820152602001610653565b50505050905090810190601f1680156106985780820380516001836020036101000a031916815260200191505b506040818152634aac84e560e01b8252600482018a9052519495506060946001600160a01b037f0000000000000000000000000000000000000000000000000000000000000000169450634aac84e5935060248083019350600092829003018186803b15801561070757600080fd5b505afa15801561071b573d6000803e3d6000fd5b505050506040513d6000823e601f3d908101601f19168201604052606081101561074457600080fd5b8101908080516040519392919084600160201b82111561076357600080fd5b90830190602082018581111561077857600080fd5b8251600160201b81118282018810171561079157600080fd5b82525081516020918201929091019080838360005b838110156107be5781810151838201526020016107a6565b50505050905090810190601f1680156107eb5780820380516001836020036101000a031916815260200191505b50604052509192506060915061080a905061080584610991565b6109b6565b9050606061081a61080584610991565b9050600061083b8360008151811061082e57fe5b6020026020010151610a9e565b9050600061084f8360008151811061082e57fe5b9050806001600160a01b0316826001600160a01b0316146108af576040805162461bcd60e51b8152602060048201526015602482015274082c8c8e4cae6e6cae640c8dedc4ee840dac2e8c6d605b1b604482015290519081900360640190fd5b6001600160a01b038216610900576040805162461bcd60e51b81526020600482015260136024820152721059191c995cdcd95cc81b9bdd08199bdd5b99606a1b604482015290519081900360640190fd5b6002870180546001600160a01b0319166001600160a01b038416908117909155604080518c8152602081018c905281518b93927f17c2bc5bf43da55e43a64c5a29b6fa43a459369cfd0b173c06f594442c205f9d928290030190a350505050505050505050565b6000602081905290815260409020805460018201546002909201549091906001600160a01b031683565b610999610cc6565b506040805180820190915281518152602082810190820152919050565b60606109c182610aaf565b6109ca57600080fd5b60006109d583610ae9565b905060608167ffffffffffffffff811180156109f057600080fd5b50604051908082528060200260200182016040528015610a2a57816020015b610a17610cc6565b815260200190600190039081610a0f5790505b5090506000610a3c8560200151610b41565b60208601510190506000805b84811015610a9357610a5983610ba4565b9150604051806040016040528083815260200184815250848281518110610a7c57fe5b602090810291909101015291810191600101610a48565b509195945050505050565b6000610aa982610c3d565b92915050565b8051600090610ac0575060006101a4565b6020820151805160001a9060c0821015610adf576000925050506101a4565b5060019392505050565b8051600090610afa575060006101a4565b600080610b0a8460200151610b41565b602085015185519181019250015b80821015610b3857610b2982610ba4565b60019093019290910190610b18565b50909392505050565b8051600090811a6080811015610b5b5760009150506101a4565b60b8811080610b76575060c08110801590610b76575060f881105b15610b855760019150506101a4565b60c0811015610b995760b5190190506101a4565b60f5190190506101a4565b80516000908190811a6080811015610bbf5760019150610c36565b60b8811015610bd457607e1981019150610c36565b60c0811015610c015760b78103600185019450806020036101000a85510460018201810193505050610c36565b60f8811015610c165760be1981019150610c36565b60f78103600185019450806020036101000a855104600182018101935050505b5092915050565b8051600090601514610c4e57600080fd5b610aa982805160009015801590610c6757508151602110155b610c7057600080fd5b600080610c7c84610ca0565b815191935091506020821015610c985760208290036101000a90045b949350505050565b6000806000610cb28460200151610b41565b602085015194519481019594039392505050565b60405180604001604052806000815260200160008152509056fea2646970667358221220684dea9a8e15756e48716b47cbeb8ba4f9339b7f24be1e0ccf8e88194a717ade64736f6c634300060c0033",
  "linkReferences": {},
  "deployedLinkReferences": {}
}