{
  "_format": "hh-sol-artifact-1",
  "contractName": "CurateProxySVG",
  "sourceName": "contracts/curate/CurateProxySVG.sol",
  "abi": [
    {
      "inputs": [
        {
          "internalType": "contract IGeneralizedTCR",
          "name": "_gtcrTechnical",
          "type": "address"
        },
        {
          "internalType": "contract IGeneralizedTCR",
          "name": "_gtcrContent",
          "type": "address"
        }
      ],
      "stateMutability": "nonpayable",
      "type": "constructor"
    },
    {
      "anonymous": false,
      "inputs": [
        {
          "indexed": true,
          "internalType": "address",
          "name": "_svgAddress",
          "type": "address"
        },
        {
          "indexed": true,
          "internalType": "bytes32",
          "name": "_itemID",
          "type": "bytes32"
        },
        {
          "indexed": false,
          "internalType": "bytes32",
          "name": "_contentItemID",
          "type": "bytes32"
        },
        {
          "indexed": false,
          "internalType": "bytes32",
          "name": "_technicalItemID",
          "type": "bytes32"
        }
      ],
      "name": "newItemMapped",
      "type": "event"
    },
    {
      "inputs": [
        {
          "internalType": "bytes32",
          "name": "_itemID",
          "type": "bytes32"
        }
      ],
      "name": "getAddress",
      "outputs": [
        {
          "internalType": "address",
          "name": "",
          "type": "address"
        }
      ],
      "stateMutability": "view",
      "type": "function"
    },
    {
      "inputs": [],
      "name": "gtcrContent",
      "outputs": [
        {
          "internalType": "contract IGeneralizedTCR",
          "name": "",
          "type": "address"
        }
      ],
      "stateMutability": "view",
      "type": "function"
    },
    {
      "inputs": [],
      "name": "gtcrTechnical",
      "outputs": [
        {
          "internalType": "contract IGeneralizedTCR",
          "name": "",
          "type": "address"
        }
      ],
      "stateMutability": "view",
      "type": "function"
    },
    {
      "inputs": [
        {
          "internalType": "bytes32",
          "name": "",
          "type": "bytes32"
        }
      ],
      "name": "hashToCurateIDs",
      "outputs": [
        {
          "internalType": "bytes32",
          "name": "contentItemID",
          "type": "bytes32"
        },
        {
          "internalType": "bytes32",
          "name": "technicalItemID",
          "type": "bytes32"
        },
        {
          "internalType": "address",
          "name": "svgAddress",
          "type": "address"
        }
      ],
      "stateMutability": "view",
      "type": "function"
    },
    {
      "inputs": [
        {
          "internalType": "bytes32",
          "name": "_itemID",
          "type": "bytes32"
        }
      ],
      "name": "isRegistered",
      "outputs": [
        {
          "internalType": "bool",
          "name": "",
          "type": "bool"
        }
      ],
      "stateMutability": "view",
      "type": "function"
    },
    {
      "inputs": [
        {
          "internalType": "bytes32",
          "name": "_itemID",
          "type": "bytes32"
        }
      ],
      "name": "isReported",
      "outputs": [
        {
          "internalType": "bool",
          "name": "",
          "type": "bool"
        }
      ],
      "stateMutability": "view",
      "type": "function"
    },
    {
      "inputs": [
        {
          "internalType": "bytes32",
          "name": "_contentItemID",
          "type": "bytes32"
        },
        {
          "internalType": "bytes32",
          "name": "_technicalItemID",
          "type": "bytes32"
        }
      ],
      "name": "registerAd",
      "outputs": [
        {
          "internalType": "bytes32",
          "name": "itemID",
          "type": "bytes32"
        }
      ],
      "stateMutability": "nonpayable",
      "type": "function"
    }
  ],
  "bytecode": "0x60c060405234801561001057600080fd5b506040516110db3803806110db8339818101604052604081101561003357600080fd5b5080516020909101516001600160601b0319606092831b811660a052911b1660805260805160601c60a05160601c61103f61009c600039806103485280610697528061081352806109e852508061019452806101eb528061053a5280610899525061103f6000f3fe608060405234801561001057600080fd5b506004361061007d5760003560e01c806327258b221161005b57806327258b22146100f45780634d0c50c1146101115780638d10eb3514610119578063d19bbe6c1461014e5761007d565b806304570718146100825780630787416a146100a657806321f8a721146100d7575b600080fd5b61008a610192565b604080516001600160a01b039092168252519081900360200190f35b6100c3600480360360208110156100bc57600080fd5b50356101b6565b604080519115158252519081900360200190f35b61008a600480360360208110156100ed57600080fd5b50356104cb565b6100c36004803603602081101561010a57600080fd5b5035610505565b61008a610811565b61013c6004803603604081101561012f57600080fd5b5080359060200135610835565b60408051918252519081900360200190f35b61016b6004803603602081101561016457600080fd5b5035610c90565b6040805193845260208401929092526001600160a01b031682820152519081900360600190f35b7f000000000000000000000000000000000000000000000000000000000000000081565b60008181526020819052604080822080548251634aac84e560e01b815260048101919091529151909183916001600160a01b037f00000000000000000000000000000000000000000000000000000000000000001691634aac84e59160248083019286929190829003018186803b15801561023057600080fd5b505afa158015610244573d6000803e3d6000fd5b505050506040513d6000823e601f3d908101601f19168201604052606081101561026d57600080fd5b8101908080516040519392919084600160201b82111561028c57600080fd5b9083019060208201858111156102a157600080fd5b8251600160201b8111828201881017156102ba57600080fd5b82525081516020918201929091019080838360005b838110156102e75781810151838201526020016102cf565b50505050905090810190601f1680156103145780820380516001836020036101000a031916815260200191505b506040818152602092909201516001880154634aac84e560e01b835260048301529151919550600094506001600160a01b037f0000000000000000000000000000000000000000000000000000000000000000169350634aac84e592506024808201928692909190829003018186803b15801561039057600080fd5b505afa1580156103a4573d6000803e3d6000fd5b505050506040513d6000823e601f3d908101601f1916820160405260608110156103cd57600080fd5b8101908080516040519392919084600160201b8211156103ec57600080fd5b90830190602082018581111561040157600080fd5b8251600160201b81118282018810171561041a57600080fd5b82525081516020918201929091019080838360005b8381101561044757818101518382015260200161042f565b50505050905090810190601f1680156104745780820380516001836020036101000a031916815260200191505b506040526020015193506003925061048a915050565b82600381111561049657fe5b14806104ad575060038160038111156104ab57fe5b145b156104be57600193505050506104c6565b600093505050505b919050565b60008181526020819052604081206104e283610505565b156104fb57600201546001600160a01b031690506104c6565b60009150506104c6565b60008181526020819052604080822080548251634aac84e560e01b815260048101919091529151909183916001600160a01b037f00000000000000000000000000000000000000000000000000000000000000001691634aac84e59160248083019286929190829003018186803b15801561057f57600080fd5b505afa158015610593573d6000803e3d6000fd5b505050506040513d6000823e601f3d908101601f1916820160405260608110156105bc57600080fd5b8101908080516040519392919084600160201b8211156105db57600080fd5b9083019060208201858111156105f057600080fd5b8251600160201b81118282018810171561060957600080fd5b82525081516020918201929091019080838360005b8381101561063657818101518382015260200161061e565b50505050905090810190601f1680156106635780820380516001836020036101000a031916815260200191505b506040818152602092909201516001880154634aac84e560e01b835260048301529151919550600094506001600160a01b037f0000000000000000000000000000000000000000000000000000000000000000169350634aac84e592506024808201928692909190829003018186803b1580156106df57600080fd5b505afa1580156106f3573d6000803e3d6000fd5b505050506040513d6000823e601f3d908101601f19168201604052606081101561071c57600080fd5b8101908080516040519392919084600160201b82111561073b57600080fd5b90830190602082018581111561075057600080fd5b8251600160201b81118282018810171561076957600080fd5b82525081516020918201929091019080838360005b8381101561079657818101518382015260200161077e565b50505050905090810190601f1680156107c35780820380516001836020036101000a031916815260200191505b50604052602001519350600192506107d9915050565b8260038111156107e557fe5b14806107fc575060038260038111156107fa57fe5b145b80156104ad5750600181600381111561049657fe5b7f000000000000000000000000000000000000000000000000000000000000000081565b604080516020808201859052818301849052825180830384018152606080840180865282519284019290922060008181529384905285842088815560018101889055634aac84e560e01b909352606485018890529451919390926001600160a01b037f00000000000000000000000000000000000000000000000000000000000000001692634aac84e5926084808201939291829003018186803b1580156108dc57600080fd5b505afa1580156108f0573d6000803e3d6000fd5b505050506040513d6000823e601f3d908101601f19168201604052606081101561091957600080fd5b8101908080516040519392919084600160201b82111561093857600080fd5b90830190602082018581111561094d57600080fd5b8251600160201b81118282018810171561096657600080fd5b82525081516020918201929091019080838360005b8381101561099357818101518382015260200161097b565b50505050905090810190601f1680156109c05780820380516001836020036101000a031916815260200191505b506040818152634aac84e560e01b8252600482018a9052519495506060946001600160a01b037f0000000000000000000000000000000000000000000000000000000000000000169450634aac84e5935060248083019350600092829003018186803b158015610a2f57600080fd5b505afa158015610a43573d6000803e3d6000fd5b505050506040513d6000823e601f3d908101601f191682016040526060811015610a6c57600080fd5b8101908080516040519392919084600160201b821115610a8b57600080fd5b908301906020820185811115610aa057600080fd5b8251600160201b811182820188101715610ab957600080fd5b82525081516020918201929091019080838360005b83811015610ae6578181015183820152602001610ace565b50505050905090810190601f168015610b135780820380516001836020036101000a031916815260200191505b506040525091925060609150610b329050610b2d84610cba565b610cdf565b90506060610b42610b2d84610cba565b90506000610b6383600081518110610b5657fe5b6020026020010151610dc7565b90506000610b7783600081518110610b5657fe5b9050806001600160a01b0316826001600160a01b031614610bd7576040805162461bcd60e51b8152602060048201526015602482015274082c8c8e4cae6e6cae640c8dedc4ee840dac2e8c6d605b1b604482015290519081900360640190fd5b6001600160a01b038216610c28576040805162461bcd60e51b81526020600482015260136024820152721059191c995cdcd95cc81b9bdd08199bdd5b99606a1b604482015290519081900360640190fd5b6002870180546001600160a01b0319166001600160a01b038416908117909155604080518c8152602081018c905281518b93927f17c2bc5bf43da55e43a64c5a29b6fa43a459369cfd0b173c06f594442c205f9d928290030190a35050505050505092915050565b6000602081905290815260409020805460018201546002909201549091906001600160a01b031683565b610cc2610fef565b506040805180820190915281518152602082810190820152919050565b6060610cea82610dd8565b610cf357600080fd5b6000610cfe83610e12565b905060608167ffffffffffffffff81118015610d1957600080fd5b50604051908082528060200260200182016040528015610d5357816020015b610d40610fef565b815260200190600190039081610d385790505b5090506000610d658560200151610e6a565b60208601510190506000805b84811015610dbc57610d8283610ecd565b9150604051806040016040528083815260200184815250848281518110610da557fe5b602090810291909101015291810191600101610d71565b509195945050505050565b6000610dd282610f66565b92915050565b8051600090610de9575060006104c6565b6020820151805160001a9060c0821015610e08576000925050506104c6565b5060019392505050565b8051600090610e23575060006104c6565b600080610e338460200151610e6a565b602085015185519181019250015b80821015610e6157610e5282610ecd565b60019093019290910190610e41565b50909392505050565b8051600090811a6080811015610e845760009150506104c6565b60b8811080610e9f575060c08110801590610e9f575060f881105b15610eae5760019150506104c6565b60c0811015610ec25760b5190190506104c6565b60f5190190506104c6565b80516000908190811a6080811015610ee85760019150610f5f565b60b8811015610efd57607e1981019150610f5f565b60c0811015610f2a5760b78103600185019450806020036101000a85510460018201810193505050610f5f565b60f8811015610f3f5760be1981019150610f5f565b60f78103600185019450806020036101000a855104600182018101935050505b5092915050565b8051600090601514610f7757600080fd5b610dd282805160009015801590610f9057508151602110155b610f9957600080fd5b600080610fa584610fc9565b815191935091506020821015610fc15760208290036101000a90045b949350505050565b6000806000610fdb8460200151610e6a565b602085015194519481019594039392505050565b60405180604001604052806000815260200160008152509056fea2646970667358221220e5c1f9b9ca5d3a0417b72da4321a556894048efb9124d7269da602f1b4505d0964736f6c634300060c0033",
  "linkReferences": {},
  "deployedLinkReferences": {}
}