{
  "_format": "hh-sol-artifact-1",
  "contractName": "Manager",
  "sourceName": "contracts/Manager.sol",
  "abi": [
    {
      "inputs": [],
      "stateMutability": "nonpayable",
      "type": "constructor"
    },
    {
      "inputs": [
        {
          "internalType": "address",
          "name": "_referral",
          "type": "address"
        }
      ],
      "name": "claimReferralReward",
      "outputs": [],
      "stateMutability": "nonpayable",
      "type": "function"
    },
    {
      "inputs": [
        {
          "internalType": "address",
          "name": "",
          "type": "address"
        }
      ],
      "name": "claimed",
      "outputs": [
        {
          "internalType": "bool",
          "name": "",
          "type": "bool"
        }
      ],
      "stateMutability": "view",
      "type": "function"
    },
    {
      "inputs": [],
      "name": "creator",
      "outputs": [
        {
          "internalType": "address payable",
          "name": "",
          "type": "address"
        }
      ],
      "stateMutability": "view",
      "type": "function"
    },
    {
      "inputs": [],
      "name": "creatorFee",
      "outputs": [
        {
          "internalType": "uint256",
          "name": "",
          "type": "uint256"
        }
      ],
      "stateMutability": "view",
      "type": "function"
    },
    {
      "inputs": [],
      "name": "distributeRewards",
      "outputs": [],
      "stateMutability": "nonpayable",
      "type": "function"
    },
    {
      "inputs": [],
      "name": "distributeRoyalties",
      "outputs": [],
      "stateMutability": "nonpayable",
      "type": "function"
    },
    {
      "inputs": [
        {
          "internalType": "address payable",
          "name": "_creator",
          "type": "address"
        },
        {
          "internalType": "uint256",
          "name": "_creatorFee",
          "type": "uint256"
        },
        {
          "internalType": "address payable",
          "name": "_protocolTreasury",
          "type": "address"
        },
        {
          "internalType": "uint256",
          "name": "_protocolFee",
          "type": "uint256"
        },
        {
          "internalType": "address",
          "name": "_market",
          "type": "address"
        }
      ],
      "name": "initialize",
      "outputs": [],
      "stateMutability": "nonpayable",
      "type": "function"
    },
    {
      "inputs": [],
      "name": "initialized",
      "outputs": [
        {
          "internalType": "bool",
          "name": "",
          "type": "bool"
        }
      ],
      "stateMutability": "view",
      "type": "function"
    },
    {
      "inputs": [],
      "name": "market",
      "outputs": [
        {
          "internalType": "contract IMarket",
          "name": "",
          "type": "address"
        }
      ],
      "stateMutability": "view",
      "type": "function"
    },
    {
      "inputs": [],
      "name": "protocolFee",
      "outputs": [
        {
          "internalType": "uint256",
          "name": "",
          "type": "uint256"
        }
      ],
      "stateMutability": "view",
      "type": "function"
    },
    {
      "inputs": [],
      "name": "protocolTreasury",
      "outputs": [
        {
          "internalType": "address payable",
          "name": "",
          "type": "address"
        }
      ],
      "stateMutability": "view",
      "type": "function"
    },
    {
      "stateMutability": "payable",
      "type": "receive"
    }
  ],
  "bytecode": "0x608060405234801561001057600080fd5b50610f09806100206000396000f3fe6080604052600436106100a05760003560e01c8063803db96d11610064578063803db96d1461015c57806380f556051461017c578063b0e21e8a146101a9578063c884ef83146101cc578063e251d7be146101fc578063e88958dc1461021c57600080fd5b806302d05d3f146100ac578063158ef93e146100e25780632fb8a96e1461011057806361929d8a146101275780636f4a2cd01461014757600080fd5b366100a757005b600080fd5b3480156100b857600080fd5b506000546100cc906001600160a01b031681565b6040516100d99190610bdf565b60405180910390f35b3480156100ee57600080fd5b5060045461010390600160a01b900460ff1681565b6040516100d99190610bf5565b34801561011c57600080fd5b50610125610232565b005b34801561013357600080fd5b50610125610142366004610c25565b6103df565b34801561015357600080fd5b5061012561074d565b34801561016857600080fd5b506002546100cc906001600160a01b031681565b34801561018857600080fd5b5060045461019c906001600160a01b031681565b6040516100d99190610c7e565b3480156101b557600080fd5b506101bf60035481565b6040516100d99190610c92565b3480156101d857600080fd5b506101036101e7366004610c25565b60056020526000908152604090205460ff1681565b34801561020857600080fd5b50610125610217366004610cb1565b610b39565b34801561022857600080fd5b506101bf60015481565b600480546040805163091fccff60e31b815290516001600160a01b03909216926348fe67f8928282019260209290829003018186803b15801561027457600080fd5b505afa158015610288573d6000803e3d6000fd5b505050506040513d601f19601f820116820180604052508101906102ac9190610d34565b6102d15760405162461bcd60e51b81526004016102c890610d85565b60405180910390fd5b6000600654600460009054906101000a90046001600160a01b03166001600160a01b031663a6ffc4796040518163ffffffff1660e01b815260040160206040518083038186803b15801561032457600080fd5b505afa158015610338573d6000803e3d6000fd5b505050506040513d601f19601f8201168201806040525081019061035c9190610d34565b6103669190610dab565b905060006103748247610dab565b6000549091506001600160a01b03166108fc610391600284610dd8565b6040518115909202916000818181858888f15050600280546001600160a01b031693506108fc92506103c4915084610dd8565b6040518115909202916000818181858888f150505050505050565b600480546040805163091fccff60e31b815290516001600160a01b03909216926348fe67f8928282019260209290829003018186803b15801561042157600080fd5b505afa158015610435573d6000803e3d6000fd5b505050506040513d601f19601f820116820180604052508101906104599190610d34565b6104755760405162461bcd60e51b81526004016102c890610e14565b6001600160a01b03811660009081526005602052604090205460ff16156104ae5760405162461bcd60e51b81526004016102c890610e51565b60006003546001546104c09190610e61565b90506000600460009054906101000a90046001600160a01b03166001600160a01b031663a6ffc4796040518163ffffffff1660e01b815260040160206040518083038186803b15801561051257600080fd5b505afa158015610526573d6000803e3d6000fd5b505050506040513d601f19601f8201168201806040525081019061054a9190610d34565b6004805460405163f61d205160e01b81529293506000926001600160a01b039091169163f61d20519161057f91889101610bdf565b60206040518083038186803b15801561059757600080fd5b505afa1580156105ab573d6000803e3d6000fd5b505050506040513d601f19601f820116820180604052508101906105cf9190610d34565b90506000600460009054906101000a90046001600160a01b03166001600160a01b031663f101e4816040518163ffffffff1660e01b815260040160206040518083038186803b15801561062157600080fd5b505afa158015610635573d6000803e3d6000fd5b505050506040513d601f19601f820116820180604052508101906106599190610d34565b905060006106678583610e79565b610672906002610e79565b83600154866106819190610e79565b61068b9190610e79565b6106959190610dd8565b905060006106a38684610e79565b6106ae906003610e79565b84600354876106bd9190610e79565b6106c79190610e79565b6106d19190610dd8565b6001600160a01b0388166000908152600560205260409020805460ff1916600117905590506107008183610e61565b600660008282546107119190610e61565b90915550506001600160a01b0387166108fc61072d8385610e61565b6040518115909202916000818181858888f1505050505050505050505050565b600480546040805163091fccff60e31b815290516001600160a01b03909216926348fe67f8928282019260209290829003018186803b15801561078f57600080fd5b505afa1580156107a3573d6000803e3d6000fd5b505050506040513d601f19601f820116820180604052508101906107c79190610d34565b6107e35760405162461bcd60e51b81526004016102c890610e14565b600454600160a81b900460ff161561080d5760405162461bcd60e51b81526004016102c890610e51565b6004805460ff60a81b1916600160a81b17905560035460015460009161083291610e61565b90506000600460009054906101000a90046001600160a01b03166001600160a01b031663a6ffc4796040518163ffffffff1660e01b815260040160206040518083038186803b15801561088457600080fd5b505afa158015610898573d6000803e3d6000fd5b505050506040513d601f19601f820116820180604052508101906108bc9190610d34565b90506000600460009054906101000a90046001600160a01b03166001600160a01b031663f101e4816040518163ffffffff1660e01b815260040160206040518083038186803b15801561090e57600080fd5b505afa158015610922573d6000803e3d6000fd5b505050506040513d601f19601f820116820180604052508101906109469190610d34565b90506000600460009054906101000a90046001600160a01b03166001600160a01b0316635f96a4eb6040518163ffffffff1660e01b815260040160206040518083038186803b15801561099857600080fd5b505afa1580156109ac573d6000803e3d6000fd5b505050506040513d601f19601f820116820180604052508101906109d09190610d34565b6109da9083610dab565b905060006109e88584610e79565b6109f3906002610e79565b8260015486610a029190610e79565b610a0c9190610e79565b610a169190610dd8565b9050610a23856002610e79565b600154610a309086610e79565b610a3a9190610dd8565b610a449082610e61565b600080546040519293506001600160a01b03169183156108fc0291849190818181858888f193505050505060008584610a7d9190610e79565b610a88906003610e79565b8360035487610a979190610e79565b610aa19190610e79565b610aab9190610dd8565b9050610ab8866003610e79565b600354610ac59087610e79565b610ad0906002610e79565b610ada9190610dd8565b610ae49082610e61565b6002546040519192506001600160a01b03169082156108fc029083906000818181858888f19350505050508082610b1b9190610e61565b60066000828254610b2c9190610e61565b9091555050505050505050565b600454600160a01b900460ff1615610b635760405162461bcd60e51b81526004016102c890610ec3565b600080546001600160a01b039687166001600160a01b031991821617909155600194909455600280549386169390941692909217909255600391909155600480546001600160a81b0319169190921617600160a01b179055565b60006001600160a01b0382165b92915050565b610bd981610bbd565b82525050565b60208101610bca8284610bd0565b801515610bd9565b60208101610bca8284610bed565b610c0c81610bbd565b8114610c1757600080fd5b50565b8035610bca81610c03565b600060208284031215610c3a57610c3a600080fd5b6000610c468484610c1a565b949350505050565b60006001600160a01b038216610bca565b6000610bca82610c4e565b6000610bca82610c5f565b610bd981610c6a565b60208101610bca8284610c75565b80610bd9565b60208101610bca8284610c8c565b80610c0c565b8035610bca81610ca0565b600080600080600060a08688031215610ccc57610ccc600080fd5b6000610cd88888610c1a565b9550506020610ce988828901610ca6565b9450506040610cfa88828901610c1a565b9350506060610d0b88828901610ca6565b9250506080610d1c88828901610c1a565b9150509295509295909350565b8051610bca81610ca0565b600060208284031215610d4957610d49600080fd5b6000610c468484610d29565b6016815260006020820175149bde585b1d1a595cc81b9bdd081c9958d95a5d995960521b815291505b5060200190565b60208082528101610bca81610d55565b634e487b7160e01b600052601160045260246000fd5b600082821015610dbd57610dbd610d95565b500390565b634e487b7160e01b600052601260045260246000fd5b600082610de757610de7610dc2565b500490565b60118152600060208201701199595cc81b9bdd081c9958d95a5d9959607a1b81529150610d7e565b60208082528101610bca81610dec565b601681526000602082017514995dd85c9908185b1c9958591e4818db185a5b595960521b81529150610d7e565b60208082528101610bca81610e24565b60008219821115610e7457610e74610d95565b500190565b6000816000190483118215151615610e9357610e93610d95565b500290565b601481526000602082017320b63932b0b23c9034b734ba34b0b634bd32b21760611b81529150610d7e565b60208082528101610bca81610e9856fea2646970667358221220bdf612863642c2068397d7ebe1ea830960ce1de56913d3391eb6c1004565a64b64736f6c63430008090033",
  "linkReferences": {},
  "deployedLinkReferences": {}
}