{
  "_format": "hh-sol-artifact-1",
  "contractName": "Manager",
  "sourceName": "contracts/manager/Manager.sol",
  "abi": [
    {
      "inputs": [],
      "stateMutability": "nonpayable",
      "type": "constructor"
    },
    {
      "anonymous": false,
      "inputs": [
        {
          "indexed": false,
          "internalType": "address",
          "name": "_manager",
          "type": "address"
        },
        {
          "indexed": false,
          "internalType": "uint256",
          "name": "_amount",
          "type": "uint256"
        }
      ],
      "name": "ManagerRewardClaimed",
      "type": "event"
    },
    {
      "anonymous": false,
      "inputs": [
        {
          "indexed": false,
          "internalType": "address",
          "name": "_protocolTreasury",
          "type": "address"
        },
        {
          "indexed": false,
          "internalType": "uint256",
          "name": "_amount",
          "type": "uint256"
        }
      ],
      "name": "ProtocolRewardClaimed",
      "type": "event"
    },
    {
      "anonymous": false,
      "inputs": [
        {
          "indexed": false,
          "internalType": "address",
          "name": "_referral",
          "type": "address"
        },
        {
          "indexed": false,
          "internalType": "uint256",
          "name": "_reward",
          "type": "uint256"
        }
      ],
      "name": "ReferralRewardClaimed",
      "type": "event"
    },
    {
      "inputs": [],
      "name": "amountClaimed",
      "outputs": [
        {
          "internalType": "uint256",
          "name": "",
          "type": "uint256"
        }
      ],
      "stateMutability": "view",
      "type": "function"
    },
    {
      "inputs": [
        {
          "internalType": "address",
          "name": "_referral",
          "type": "address"
        }
      ],
      "name": "claimReferralReward",
      "outputs": [],
      "stateMutability": "nonpayable",
      "type": "function"
    },
    {
      "inputs": [
        {
          "internalType": "address",
          "name": "",
          "type": "address"
        }
      ],
      "name": "claimed",
      "outputs": [
        {
          "internalType": "bool",
          "name": "",
          "type": "bool"
        }
      ],
      "stateMutability": "view",
      "type": "function"
    },
    {
      "inputs": [],
      "name": "creator",
      "outputs": [
        {
          "internalType": "address payable",
          "name": "",
          "type": "address"
        }
      ],
      "stateMutability": "view",
      "type": "function"
    },
    {
      "inputs": [],
      "name": "creatorFee",
      "outputs": [
        {
          "internalType": "uint256",
          "name": "",
          "type": "uint256"
        }
      ],
      "stateMutability": "view",
      "type": "function"
    },
    {
      "inputs": [],
      "name": "creatorReward",
      "outputs": [
        {
          "internalType": "uint256",
          "name": "",
          "type": "uint256"
        }
      ],
      "stateMutability": "view",
      "type": "function"
    },
    {
      "inputs": [
        {
          "internalType": "contract IERC20",
          "name": "_token",
          "type": "address"
        }
      ],
      "name": "distributeERC20",
      "outputs": [],
      "stateMutability": "nonpayable",
      "type": "function"
    },
    {
      "inputs": [],
      "name": "distributeRewards",
      "outputs": [],
      "stateMutability": "nonpayable",
      "type": "function"
    },
    {
      "inputs": [],
      "name": "distributeSurplus",
      "outputs": [],
      "stateMutability": "nonpayable",
      "type": "function"
    },
    {
      "inputs": [],
      "name": "executeCreatorRewards",
      "outputs": [],
      "stateMutability": "nonpayable",
      "type": "function"
    },
    {
      "inputs": [],
      "name": "executeProtocolRewards",
      "outputs": [],
      "stateMutability": "nonpayable",
      "type": "function"
    },
    {
      "inputs": [
        {
          "internalType": "address payable",
          "name": "_creator",
          "type": "address"
        },
        {
          "internalType": "uint256",
          "name": "_creatorFee",
          "type": "uint256"
        },
        {
          "internalType": "address payable",
          "name": "_protocolTreasury",
          "type": "address"
        },
        {
          "internalType": "uint256",
          "name": "_protocolFee",
          "type": "uint256"
        },
        {
          "internalType": "address",
          "name": "_market",
          "type": "address"
        }
      ],
      "name": "initialize",
      "outputs": [],
      "stateMutability": "nonpayable",
      "type": "function"
    },
    {
      "inputs": [],
      "name": "initialized",
      "outputs": [
        {
          "internalType": "bool",
          "name": "",
          "type": "bool"
        }
      ],
      "stateMutability": "view",
      "type": "function"
    },
    {
      "inputs": [],
      "name": "managerRewardDistributed",
      "outputs": [
        {
          "internalType": "bool",
          "name": "",
          "type": "bool"
        }
      ],
      "stateMutability": "view",
      "type": "function"
    },
    {
      "inputs": [],
      "name": "market",
      "outputs": [
        {
          "internalType": "contract IMarket",
          "name": "",
          "type": "address"
        }
      ],
      "stateMutability": "view",
      "type": "function"
    },
    {
      "inputs": [],
      "name": "protocolFee",
      "outputs": [
        {
          "internalType": "uint256",
          "name": "",
          "type": "uint256"
        }
      ],
      "stateMutability": "view",
      "type": "function"
    },
    {
      "inputs": [],
      "name": "protocolReward",
      "outputs": [
        {
          "internalType": "uint256",
          "name": "",
          "type": "uint256"
        }
      ],
      "stateMutability": "view",
      "type": "function"
    },
    {
      "inputs": [],
      "name": "protocolTreasury",
      "outputs": [
        {
          "internalType": "address payable",
          "name": "",
          "type": "address"
        }
      ],
      "stateMutability": "view",
      "type": "function"
    },
    {
      "stateMutability": "payable",
      "type": "receive"
    }
  ],
  "bytecode": "0x608060405234801561001057600080fd5b5061145e806100206000396000f3fe60806040526004361061010d5760003560e01c80639fee901e11610095578063c80a0a7f11610064578063c80a0a7f146102bb578063c884ef83146102d0578063d8fd1ed914610300578063e251d7be14610316578063e88958dc1461033657600080fd5b80639fee901e1461025a578063ad6b5d041461026f578063b0e21e8a14610285578063bce582691461029b57600080fd5b80636f4a2cd0116100dc5780636f4a2cd0146101b4578063725b72e0146101c957806376248db2146101ec578063803db96d1461020d57806380f556051461022d57600080fd5b806302d05d3f14610119578063158ef93e1461014f578063341776ec1461017d57806361929d8a1461019457600080fd5b3661011457005b600080fd5b34801561012557600080fd5b50600054610139906001600160a01b031681565b6040516101469190610ff4565b60405180910390f35b34801561015b57600080fd5b5060045461017090600160a01b900460ff1681565b604051610146919061100a565b34801561018957600080fd5b5061019261034c565b005b3480156101a057600080fd5b506101926101af36600461103a565b6103b5565b3480156101c057600080fd5b50610192610754565b3480156101d557600080fd5b506101df60085481565b6040516101469190611069565b3480156101f857600080fd5b5060045461017090600160a81b900460ff1681565b34801561021957600080fd5b50600254610139906001600160a01b031681565b34801561023957600080fd5b5060045461024d906001600160a01b031681565b60405161014691906110a7565b34801561026657600080fd5b50610192610b1a565b34801561027b57600080fd5b506101df60065481565b34801561029157600080fd5b506101df60035481565b3480156102a757600080fd5b506101926102b63660046110d4565b610b78565b3480156102c757600080fd5b50610192610d23565b3480156102dc57600080fd5b506101706102eb36600461103a565b60056020526000908152604090205460ff1681565b34801561030c57600080fd5b506101df60075481565b34801561032257600080fd5b50610192610331366004611106565b610ec1565b34801561034257600080fd5b506101df60015481565b60088054600090915560025461036b906001600160a01b031682610f45565b6002546040517fe8a031af00242bada7cd9a100a3240796c722479a1c521b2a3f9280396e48e49916103aa916001600160a01b0390911690849061117e565b60405180910390a150565b600480546040805163091fccff60e31b815290516001600160a01b03909216926348fe67f8928282019260209290829003018186803b1580156103f757600080fd5b505afa15801561040b573d6000803e3d6000fd5b505050506040513d601f19601f8201168201806040525081019061042f91906111ab565b6104545760405162461bcd60e51b815260040161044b906111f7565b60405180910390fd5b6001600160a01b03811660009081526005602052604090205460ff161561048d5760405162461bcd60e51b815260040161044b90611234565b600060035460015461049f919061125a565b90506000600460009054906101000a90046001600160a01b03166001600160a01b031663a6ffc4796040518163ffffffff1660e01b815260040160206040518083038186803b1580156104f157600080fd5b505afa158015610505573d6000803e3d6000fd5b505050506040513d601f19601f8201168201806040525081019061052991906111ab565b6004805460405163f61d205160e01b81529293506000926001600160a01b039091169163f61d20519161055e91889101610ff4565b60206040518083038186803b15801561057657600080fd5b505afa15801561058a573d6000803e3d6000fd5b505050506040513d601f19601f820116820180604052508101906105ae91906111ab565b90506000600460009054906101000a90046001600160a01b03166001600160a01b031663f101e4816040518163ffffffff1660e01b815260040160206040518083038186803b15801561060057600080fd5b505afa158015610614573d6000803e3d6000fd5b505050506040513d601f19601f8201168201806040525081019061063891906111ab565b905060006106468583611272565b610651906002611272565b83600154866106609190611272565b61066a9190611272565b61067491906112a7565b905060006106828684611272565b61068d906003611272565b846003548761069c9190611272565b6106a69190611272565b6106b091906112a7565b6001600160a01b0388166000908152600560205260409020805460ff1916600117905590506106df818361125a565b600660008282546106f0919061125a565b90915550610709905087610704838561125a565b610f45565b7f5be4d22009fea85381595ed91090bc5c0bc92a93fe07ed7472c5888eb1993f8387610735838561125a565b6040516107439291906112bb565b60405180910390a150505050505050565b600480546040805163091fccff60e31b815290516001600160a01b03909216926348fe67f8928282019260209290829003018186803b15801561079657600080fd5b505afa1580156107aa573d6000803e3d6000fd5b505050506040513d601f19601f820116820180604052508101906107ce91906111ab565b6107ea5760405162461bcd60e51b815260040161044b906111f7565b600454600160a81b900460ff16156108145760405162461bcd60e51b815260040161044b90611234565b6004805460ff60a81b1916600160a81b1790556003546001546000916108399161125a565b90506000600460009054906101000a90046001600160a01b03166001600160a01b031663a6ffc4796040518163ffffffff1660e01b815260040160206040518083038186803b15801561088b57600080fd5b505afa15801561089f573d6000803e3d6000fd5b505050506040513d601f19601f820116820180604052508101906108c391906111ab565b90506000600460009054906101000a90046001600160a01b03166001600160a01b031663f101e4816040518163ffffffff1660e01b815260040160206040518083038186803b15801561091557600080fd5b505afa158015610929573d6000803e3d6000fd5b505050506040513d601f19601f8201168201806040525081019061094d91906111ab565b90506000600460009054906101000a90046001600160a01b03166001600160a01b0316635f96a4eb6040518163ffffffff1660e01b815260040160206040518083038186803b15801561099f57600080fd5b505afa1580156109b3573d6000803e3d6000fd5b505050506040513d601f19601f820116820180604052508101906109d791906111ab565b6109e190836112c9565b905060006109ef8584611272565b6109fa906002611272565b8260015486610a099190611272565b610a139190611272565b610a1d91906112a7565b9050610a2a856002611272565b600154610a379086611272565b610a4191906112a7565b610a4b908261125a565b90508060076000828254610a5f919061125a565b9091555060009050610a718685611272565b610a7c906003611272565b8360035487610a8b9190611272565b610a959190611272565b610a9f91906112a7565b9050610aac866003611272565b600354610ab99087611272565b610ac4906002611272565b610ace91906112a7565b610ad8908261125a565b90508060086000828254610aec919061125a565b90915550610afc9050818361125a565b60066000828254610b0d919061125a565b9091555050505050505050565b600780546000918290559054610b39906001600160a01b031682610f45565b6000546040517f9c254fff8e92ccd1ed5f02730b815c4358fcd9dcabb2f53ca6da6da5ee59975d916103aa916001600160a01b0390911690849061117e565b6040516370a0823160e01b81526000906001600160a01b038316906370a0823190610ba7903090600401610ff4565b60206040518083038186803b158015610bbf57600080fd5b505afa158015610bd3573d6000803e3d6000fd5b505050506040513d601f19601f82011682018060405250810190610bf791906111ab565b6000549091506001600160a01b038084169163a9059cbb9116610c1b6002856112a7565b6040518363ffffffff1660e01b8152600401610c3892919061117e565b602060405180830381600087803b158015610c5257600080fd5b505af1158015610c66573d6000803e3d6000fd5b505050506040513d601f19601f82011682018060405250810190610c8a91906112f3565b50600280546001600160a01b038085169263a9059cbb9290911690610caf90856112a7565b6040518363ffffffff1660e01b8152600401610ccc92919061117e565b602060405180830381600087803b158015610ce657600080fd5b505af1158015610cfa573d6000803e3d6000fd5b505050506040513d601f19601f82011682018060405250810190610d1e91906112f3565b505050565b600480546040805163091fccff60e31b815290516001600160a01b03909216926348fe67f8928282019260209290829003018186803b158015610d6557600080fd5b505afa158015610d79573d6000803e3d6000fd5b505050506040513d601f19601f82011682018060405250810190610d9d91906111ab565b610db95760405162461bcd60e51b815260040161044b90611348565b6000600654600460009054906101000a90046001600160a01b03166001600160a01b031663a6ffc4796040518163ffffffff1660e01b815260040160206040518083038186803b158015610e0c57600080fd5b505afa158015610e20573d6000803e3d6000fd5b505050506040513d601f19601f82011682018060405250810190610e4491906111ab565b610e4e91906112c9565b905060006008546007548347610e6491906112c9565b610e6e91906112c9565b610e7891906112c9565b9050610e856002826112a7565b60076000828254610e96919061125a565b90915550610ea790506002826112a7565b60086000828254610eb8919061125a565b90915550505050565b600454600160a01b900460ff1615610eeb5760405162461bcd60e51b815260040161044b90611383565b600080546001600160a01b039687166001600160a01b031991821617909155600194909455600280549386169390941692909217909255600391909155600480546001600160a81b0319169190921617600160a01b179055565b604080516000808252602082019092526001600160a01b038416908390604051610f6f91906113e5565b60006040518083038185875af1925050503d8060008114610fac576040519150601f19603f3d011682016040523d82523d6000602084013e610fb1565b606091505b5050905080610d1e5760405162461bcd60e51b815260040161044b90611418565b60006001600160a01b0382165b92915050565b610fee81610fd2565b82525050565b60208101610fdf8284610fe5565b801515610fee565b60208101610fdf8284611002565b61102181610fd2565b811461102c57600080fd5b50565b8035610fdf81611018565b60006020828403121561104f5761104f600080fd5b600061105b848461102f565b949350505050565b80610fee565b60208101610fdf8284611063565b60006001600160a01b038216610fdf565b6000610fdf82611077565b6000610fdf82611088565b610fee81611093565b60208101610fdf828461109e565b6000610fdf82610fd2565b611021816110b5565b8035610fdf816110c0565b6000602082840312156110e9576110e9600080fd5b600061105b84846110c9565b80611021565b8035610fdf816110f5565b600080600080600060a0868803121561112157611121600080fd5b600061112d888861102f565b955050602061113e888289016110fb565b945050604061114f8882890161102f565b9350506060611160888289016110fb565b92505060806111718882890161102f565b9150509295509295909350565b6040810161118c828561109e565b6111996020830184611063565b9392505050565b8051610fdf816110f5565b6000602082840312156111c0576111c0600080fd5b600061105b84846111a0565b60118152600060208201701199595cc81b9bdd081c9958d95a5d9959607a1b815291505b5060200190565b60208082528101610fdf816111cc565b601681526000602082017514995dd85c9908185b1c9958591e4818db185a5b595960521b815291506111f0565b60208082528101610fdf81611207565b634e487b7160e01b600052601160045260246000fd5b6000821982111561126d5761126d611244565b500190565b600081600019048311821515161561128c5761128c611244565b500290565b634e487b7160e01b600052601260045260246000fd5b6000826112b6576112b6611291565b500490565b6040810161118c8285610fe5565b6000828210156112db576112db611244565b500390565b801515611021565b8051610fdf816112e0565b60006020828403121561130857611308600080fd5b600061105b84846112e8565b601c81526000602082017f43616e2774206469737472696275746520737572706c75732079657400000000815291506111f0565b60208082528101610fdf81611314565b601481526000602082017320b63932b0b23c9034b734ba34b0b634bd32b21760611b815291506111f0565b60208082528101610fdf81611358565b60005b838110156113ae578181015183820152602001611396565b838111156113bd576000848401525b50505050565b60006113cd825190565b6113db818560208601611393565b9290920192915050565b600061119982846113c3565b601081526000602082016f14d95b9908161110524819985a5b195960821b815291506111f0565b60208082528101610fdf816113f156fea2646970667358221220dbc5f35bf30f0d5ae403ceb98d4a8162fbadebfade63e9dae80c16b1dd18011d64736f6c63430008090033",
  "linkReferences": {},
  "deployedLinkReferences": {}
}