{
  "_format": "hh-sol-artifact-1",
  "contractName": "SVG",
  "sourceName": "contracts/ads/SVG.sol",
  "abi": [
    {
      "inputs": [],
      "stateMutability": "nonpayable",
      "type": "constructor"
    },
    {
      "inputs": [
        {
          "internalType": "address",
          "name": "_market",
          "type": "address"
        },
        {
          "internalType": "uint256",
          "name": "_tokenID",
          "type": "uint256"
        }
      ],
      "name": "getSVG",
      "outputs": [
        {
          "internalType": "string",
          "name": "",
          "type": "string"
        }
      ],
      "stateMutability": "view",
      "type": "function"
    },
    {
      "inputs": [
        {
          "internalType": "bytes32",
          "name": "_itemID",
          "type": "bytes32"
        },
        {
          "internalType": "bytes32",
          "name": "_proxyItemID",
          "type": "bytes32"
        },
        {
          "internalType": "string",
          "name": "_svg",
          "type": "string"
        }
      ],
      "name": "initialize",
      "outputs": [],
      "stateMutability": "nonpayable",
      "type": "function"
    },
    {
      "inputs": [],
      "name": "itemID",
      "outputs": [
        {
          "internalType": "bytes32",
          "name": "",
          "type": "bytes32"
        }
      ],
      "stateMutability": "view",
      "type": "function"
    },
    {
      "inputs": [],
      "name": "proxyItemID",
      "outputs": [
        {
          "internalType": "bytes32",
          "name": "",
          "type": "bytes32"
        }
      ],
      "stateMutability": "view",
      "type": "function"
    }
  ],
  "bytecode": "0x608060405234801561001057600080fd5b506105b6806100206000396000f3fe608060405234801561001057600080fd5b506004361061004c5760003560e01c806343cdef60146100515780634660a3e314610070578063ae9d449d14610090578063b7c2a40814610099575b600080fd5b61005a60015481565b6040516100679190610253565b60405180910390f35b61008361007e3660046102a3565b6100ae565b6040516100679190610342565b61005a60025481565b6100ac6100a736600461045d565b610144565b005b6060600080546100bd906104de565b80601f01602080910402602001604051908101604052809291908181526020018280546100e9906104de565b80156101365780601f1061010b57610100808354040283529160200191610136565b820191906000526020600020905b81548152906001019060200180831161011957829003601f168201915b505050505090505b92915050565b60008054610151906104de565b1590506101795760405162461bcd60e51b815260040161017090610534565b60405180910390fd5b600081511161019a5760405162461bcd60e51b815260040161017090610570565b80516101ad9060009060208401906101ba565b5050600191909155600255565b8280546101c6906104de565b90600052602060002090601f0160209004810192826101e8576000855561022e565b82601f1061020157805160ff191683800117855561022e565b8280016001018555821561022e579182015b8281111561022e578251825591602001919060010190610213565b5061023a92915061023e565b5090565b5b8082111561023a576000815560010161023f565b8181526020810161013e565b60006001600160a01b03821661013e565b6102798161025f565b811461028457600080fd5b50565b803561013e81610270565b80610279565b803561013e81610292565b600080604083850312156102b9576102b9600080fd5b60006102c58585610287565b92505060206102d685828601610298565b9150509250929050565b60005b838110156102fb5781810151838201526020016102e3565b8381111561030a576000848401525b50505050565b600061031a825190565b8084526020840193506103318185602086016102e0565b601f01601f19169290920192915050565b602080825281016103538184610310565b9392505050565b634e487b7160e01b600052604160045260246000fd5b601f19601f830116810181811067ffffffffffffffff821117156103965761039661035a565b6040525050565b60006103a860405190565b90506103b48282610370565b919050565b600067ffffffffffffffff8211156103d3576103d361035a565b601f19601f83011660200192915050565b82818337506000910152565b60006104036103fe846103b9565b61039d565b90508281526020810184848401111561041e5761041e600080fd5b6104298482856103e4565b509392505050565b600082601f83011261044557610445600080fd5b81356104558482602086016103f0565b949350505050565b60008060006060848603121561047557610475600080fd5b60006104818686610298565b935050602061049286828701610298565b925050604084013567ffffffffffffffff8111156104b2576104b2600080fd5b6104be86828701610431565b9150509250925092565b634e487b7160e01b600052602260045260246000fd5b6002810460018216806104f257607f821691505b60208210811415610505576105056104c8565b50919050565b600f81526000602082016e14d591c8185b1c9958591e481cd95d608a1b815291505b5060200190565b6020808252810161013e8161050b565b6015815260006020820174535647206d757374206e6f7420626520656d70747960581b8152915061052d565b6020808252810161013e8161054456fea26469706673582212207ae586028653c4505408a86738fcd45a96464ccbdc869362ddce66a25d90d1ae64736f6c63430008090033",
  "linkReferences": {},
  "deployedLinkReferences": {}
}