{
  "_format": "hh-sol-artifact-1",
  "contractName": "SVGFactory",
  "sourceName": "contracts/ads/SVGFactory.sol",
  "abi": [
    {
      "inputs": [
        {
          "internalType": "address",
          "name": "_adContract",
          "type": "address"
        },
        {
          "internalType": "contract ICurate",
          "name": "_technicalCurate",
          "type": "address"
        },
        {
          "internalType": "contract ICurate",
          "name": "_contentCurate",
          "type": "address"
        },
        {
          "internalType": "address",
          "name": "_curateProxy",
          "type": "address"
        }
      ],
      "stateMutability": "nonpayable",
      "type": "constructor"
    },
    {
      "anonymous": false,
      "inputs": [
        {
          "indexed": true,
          "internalType": "address",
          "name": "ad",
          "type": "address"
        }
      ],
      "name": "NewAd",
      "type": "event"
    },
    {
      "inputs": [],
      "name": "adContract",
      "outputs": [
        {
          "internalType": "address",
          "name": "",
          "type": "address"
        }
      ],
      "stateMutability": "view",
      "type": "function"
    },
    {
      "inputs": [],
      "name": "adCount",
      "outputs": [
        {
          "internalType": "uint256",
          "name": "",
          "type": "uint256"
        }
      ],
      "stateMutability": "view",
      "type": "function"
    },
    {
      "inputs": [
        {
          "internalType": "uint256",
          "name": "",
          "type": "uint256"
        }
      ],
      "name": "ads",
      "outputs": [
        {
          "internalType": "contract SVG",
          "name": "",
          "type": "address"
        }
      ],
      "stateMutability": "view",
      "type": "function"
    },
    {
      "inputs": [],
      "name": "allAds",
      "outputs": [
        {
          "internalType": "contract SVG[]",
          "name": "",
          "type": "address[]"
        }
      ],
      "stateMutability": "view",
      "type": "function"
    },
    {
      "inputs": [
        {
          "internalType": "address",
          "name": "_newAdContract",
          "type": "address"
        }
      ],
      "name": "changeAdContract",
      "outputs": [],
      "stateMutability": "nonpayable",
      "type": "function"
    },
    {
      "inputs": [
        {
          "internalType": "address",
          "name": "_newCurateProxy",
          "type": "address"
        }
      ],
      "name": "changeCurateProxy",
      "outputs": [],
      "stateMutability": "nonpayable",
      "type": "function"
    },
    {
      "inputs": [
        {
          "internalType": "address",
          "name": "_newGovernor",
          "type": "address"
        }
      ],
      "name": "changeGovernor",
      "outputs": [],
      "stateMutability": "nonpayable",
      "type": "function"
    },
    {
      "inputs": [],
      "name": "contentCurate",
      "outputs": [
        {
          "internalType": "contract ICurate",
          "name": "",
          "type": "address"
        }
      ],
      "stateMutability": "view",
      "type": "function"
    },
    {
      "inputs": [
        {
          "internalType": "string",
          "name": "_svg",
          "type": "string"
        }
      ],
      "name": "createAd",
      "outputs": [
        {
          "internalType": "address",
          "name": "",
          "type": "address"
        }
      ],
      "stateMutability": "payable",
      "type": "function"
    },
    {
      "inputs": [],
      "name": "curateProxy",
      "outputs": [
        {
          "internalType": "address",
          "name": "",
          "type": "address"
        }
      ],
      "stateMutability": "view",
      "type": "function"
    },
    {
      "inputs": [],
      "name": "governor",
      "outputs": [
        {
          "internalType": "address",
          "name": "",
          "type": "address"
        }
      ],
      "stateMutability": "view",
      "type": "function"
    },
    {
      "inputs": [
        {
          "internalType": "bytes32",
          "name": "",
          "type": "bytes32"
        }
      ],
      "name": "items",
      "outputs": [
        {
          "internalType": "address",
          "name": "creator",
          "type": "address"
        },
        {
          "internalType": "uint32",
          "name": "technicalRequestIndex",
          "type": "uint32"
        },
        {
          "internalType": "uint32",
          "name": "contentRequestIndex",
          "type": "uint32"
        },
        {
          "internalType": "bool",
          "name": "rewardClaimed",
          "type": "bool"
        }
      ],
      "stateMutability": "view",
      "type": "function"
    },
    {
      "inputs": [],
      "name": "technicalCurate",
      "outputs": [
        {
          "internalType": "contract ICurate",
          "name": "",
          "type": "address"
        }
      ],
      "stateMutability": "view",
      "type": "function"
    },
    {
      "inputs": [
        {
          "internalType": "bytes32",
          "name": "_itemID",
          "type": "bytes32"
        }
      ],
      "name": "withdraw",
      "outputs": [],
      "stateMutability": "nonpayable",
      "type": "function"
    },
    {
      "stateMutability": "payable",
      "type": "receive"
    }
  ],
  "bytecode": "0x60c0604052600080546001600160a01b031916331790553480156200002357600080fd5b5060405162001d2b38038062001d2b8339810160408190526200004691620000e3565b600280546001600160a01b039586166001600160a01b03199182161790915592841660805290831660a0526001805491909316911617905562000151565b60006001600160a01b0382165b92915050565b620000a28162000084565b8114620000ae57600080fd5b50565b8051620000918162000097565b6000620000918262000084565b620000a281620000be565b80516200009181620000cb565b60008060008060808587031215620000fe57620000fe600080fd5b60006200010c8787620000b1565b94505060206200011f87828801620000d6565b93505060406200013287828801620000d6565b92505060606200014587828801620000b1565b91505092959194509250565b60805160a051611b7d620001ae60003960008181610317015281816104e9015281816105fc0152818161077c0152610a2201526000818160ff015281816104bc0152818161057f015281816106a501526109e30152611b7d6000f3fe6080604052600436106100e15760003560e01c80634fa773031161007f5780639c89dcf3116100595780639c89dcf3146102a8578063c9bdb93e146102c5578063e4c0aaf4146102e5578063e92057aa1461030557600080fd5b80634fa77303146102555780637b40be60146102685780638e19899e1461028857600080fd5b806311a7a4c0116100bb57806311a7a4c0146101845780631d63b28f146101a45780633c14d696146101c657806348f343f3146101e857600080fd5b806303db0eee146100ed5780630c340a24146101375780630d19c74b1461016457600080fd5b366100e857005b600080fd5b3480156100f957600080fd5b506101217f000000000000000000000000000000000000000000000000000000000000000081565b60405161012e9190611036565b60405180910390f35b34801561014357600080fd5b50600054610157906001600160a01b031681565b60405161012e919061105e565b34801561017057600080fd5b50600154610157906001600160a01b031681565b34801561019057600080fd5b5061012161019f366004611087565b610339565b3480156101b057600080fd5b506101c46101bf3660046110bc565b610363565b005b3480156101d257600080fd5b506101db6103b8565b60405161012e919061113a565b3480156101f457600080fd5b50610245610203366004611087565b6004602052600090815260409020546001600160a01b0381169063ffffffff600160a01b8204811691600160c01b81049091169060ff600160e01b9091041684565b60405161012e9493929190611166565b610157610263366004611291565b61041a565b34801561027457600080fd5b506101c46102833660046110bc565b61092e565b34801561029457600080fd5b506101c46102a3366004611087565b61097a565b3480156102b457600080fd5b5060035460405161012e91906112d2565b3480156102d157600080fd5b50600254610157906001600160a01b031681565b3480156102f157600080fd5b506101c46103003660046110bc565b610b07565b34801561031157600080fd5b506101217f000000000000000000000000000000000000000000000000000000000000000081565b6003818154811061034957600080fd5b6000918252602090912001546001600160a01b0316905081565b6000546001600160a01b031633146103965760405162461bcd60e51b815260040161038d90611308565b60405180910390fd5b600280546001600160a01b0319166001600160a01b0392909216919091179055565b6060600380548060200260200160405190810160405280929190818152602001828054801561041057602002820191906000526020600020905b81546001600160a01b031681526001909101906020018083116103f2575b5050505050905090565b6002546000908190610434906001600160a01b0316610b53565b60405190915081906001600160a01b038216907f7c466f1f8042a039f142263e295543c0dfd8dafd0c8534312863713e5e4a944790600090a26003805460018101825560009182527fc2575a0e9e593c00f959f8c92f12db2869c3395a3b0502d05e2516446f71f85b0180546001600160a01b0319166001600160a01b0384161790556104e07f0000000000000000000000000000000000000000000000000000000000000000610bc7565b9050600061050d7f0000000000000000000000000000000000000000000000000000000000000000610bc7565b9050610519818361132e565b34146105375760405162461bcd60e51b815260040161038d9061136d565b604051600090610558906135a560f21b908790600160ff1b906020016113c5565b60408051601f198184030181529082905263d294ccef60e01b825291506001600160a01b037f0000000000000000000000000000000000000000000000000000000000000000169063d294ccef9085906105b690859060040161145a565b6000604051808303818588803b1580156105cf57600080fd5b505af11580156105e3573d6000803e3d6000fd5b505060405163d294ccef60e01b81526001600160a01b037f000000000000000000000000000000000000000000000000000000000000000016935063d294ccef925085915061063690859060040161145a565b6000604051808303818588803b15801561064f57600080fd5b505af1158015610663573d6000803e3d6000fd5b505083516020808601919091206000818152600492839052604080822080546001600160a01b031916331781559051634aac84e560e01b8152929650945092507f00000000000000000000000000000000000000000000000000000000000000006001600160a01b031691634aac84e5916106e0918791016112d2565b60006040518083038186803b1580156106f857600080fd5b505afa15801561070c573d6000803e3d6000fd5b505050506040513d6000823e601f3d908101601f1916820160405261073491908101906114e6565b925050506001816107459190611550565b825463ffffffff91909116600160a01b0263ffffffff60a01b19909116178255604051634aac84e560e01b81526001600160a01b037f00000000000000000000000000000000000000000000000000000000000000001690634aac84e5906107b19086906004016112d2565b60006040518083038186803b1580156107c957600080fd5b505afa1580156107dd573d6000803e3d6000fd5b505050506040513d6000823e601f3d908101601f1916820160405261080591908101906114e6565b925061081691506001905082611550565b825463ffffffff91909116600160c01b0263ffffffff60c01b19909116178255600154604051638d10eb3560e01b81526000916001600160a01b031690638d10eb35906108699087908190600401611567565b602060405180830381600087803b15801561088357600080fd5b505af1158015610897573d6000803e3d6000fd5b505050506040513d601f19601f820116820180604052508101906108bb9190611582565b9050876001600160a01b031663b7c2a40885838e6040518463ffffffff1660e01b81526004016108ed939291906115a3565b600060405180830381600087803b15801561090757600080fd5b505af115801561091b573d6000803e3d6000fd5b509a9d9c50505050505050505050505050565b6000546001600160a01b031633146109585760405162461bcd60e51b815260040161038d90611308565b600180546001600160a01b0319166001600160a01b0392909216919091179055565b600081815260046020526040902080546001600160a01b03166109af5760405162461bcd60e51b815260040161038d906115f9565b8054600160e01b900460ff16156109d85760405162461bcd60e51b815260040161038d9061162f565b8054600090610a17907f0000000000000000000000000000000000000000000000000000000000000000908590600160a01b900463ffffffff16610db9565b8254909150610a56907f0000000000000000000000000000000000000000000000000000000000000000908590600160c01b900463ffffffff16610db9565b610a60908261132e565b825460ff60e01b198116600160e01b17845560408051600080825260208201928390529394506001600160a01b03909216918491610a9e9190611661565b60006040518083038185875af1925050503d8060008114610adb576040519150601f19603f3d011682016040523d82523d6000602084013e610ae0565b606091505b5050905080610b015760405162461bcd60e51b815260040161038d90611694565b50505050565b6000546001600160a01b03163314610b315760405162461bcd60e51b815260040161038d90611308565b600080546001600160a01b0319166001600160a01b0392909216919091179055565b6000604051733d602d80600a3d3981f3363d3d373d3d3d363d7360601b81528260601b60148201526e5af43d82803e903d91602b57fd5bf360881b60288201526037816000f09150506001600160a01b038116610bc25760405162461bcd60e51b815260040161038d906116d1565b919050565b600080826001600160a01b0316636cc6cde16040518163ffffffff1660e01b815260040160206040518083038186803b158015610c0357600080fd5b505afa158015610c17573d6000803e3d6000fd5b505050506040513d601f19601f82011682018060405250810190610c3b9190611700565b90506000816001600160a01b031663f7434ea9856001600160a01b0316630c7ac7b66040518163ffffffff1660e01b815260040160006040518083038186803b158015610c8757600080fd5b505afa158015610c9b573d6000803e3d6000fd5b505050506040513d6000823e601f3d908101601f19168201604052610cc39190810190611721565b6040518263ffffffff1660e01b8152600401610cdf919061145a565b60206040518083038186803b158015610cf757600080fd5b505afa158015610d0b573d6000803e3d6000fd5b505050506040513d601f19601f82011682018060405250810190610d2f9190611582565b90506000846001600160a01b031663bb0b86ff6040518163ffffffff1660e01b815260040160206040518083038186803b158015610d6c57600080fd5b505afa158015610d80573d6000803e3d6000fd5b505050506040513d601f19601f82011682018060405250810190610da49190611582565b9050610db08282610fcd565b95945050505050565b6000806000856001600160a01b031663bfbcff1a86866040518363ffffffff1660e01b8152600401610dec929190611567565b60006040518083038186803b158015610e0457600080fd5b505afa158015610e18573d6000803e3d6000fd5b505050506040513d6000823e601f3d908101601f19168201604052610e409190810190611829565b50505096505050945050505081610e695760405162461bcd60e51b815260040161038d90611956565b6000806000886001600160a01b031663974121b2898960006040518463ffffffff1660e01b8152600401610e9f9392919061197b565b6101006040518083038186803b158015610eb857600080fd5b505afa158015610ecc573d6000803e3d6000fd5b505050506040513d601f19601f82011682018060405250810190610ef09190611a83565b6020820151929650909450925015905080610f0d57506040820151155b15610f1e5760208301519550610fc1565b6000846002811115610f3257610f32611ae8565b148015610f425750602083015115155b15610f7c5760208301516040840151610f5b919061132e565b6020840151610f6b908390611afe565b610f759190611b33565b9550610fc1565b6001846002811115610f9057610f90611ae8565b148015610fa05750602083015115155b15610fc1576020830151610fb48282611afe565b610fbe9190611b33565b95505b50505050509392505050565b600082820183811015610fe257600019610fe4565b805b9150505b92915050565b6000610fe86001600160a01b038316611005565b90565b6001600160a01b031690565b6000610fe882610fee565b6000610fe882611011565b6110308161101c565b82525050565b60208101610fe88284611027565b60006001600160a01b038216610fe8565b61103081611044565b60208101610fe88284611055565b805b811461107957600080fd5b50565b8035610fe88161106c565b60006020828403121561109c5761109c600080fd5b6000610fe4848461107c565b61106e81611044565b8035610fe8816110a8565b6000602082840312156110d1576110d1600080fd5b6000610fe484846110b1565b60006110e98383611027565b505060200190565b60006110fb825190565b80845260209384019383018060005b8381101561112f57815161111e88826110dd565b97506020830192505060010161110a565b509495945050505050565b6020808252810161114b81846110f1565b9392505050565b63ffffffff8116611030565b801515611030565b608081016111748287611055565b6111816020830186611152565b61118e6040830185611152565b610db0606083018461115e565b634e487b7160e01b600052604160045260246000fd5b601f19601f830116810181811067ffffffffffffffff821117156111d7576111d761119b565b6040525050565b60006111e960405190565b9050610bc282826111b1565b600067ffffffffffffffff82111561120f5761120f61119b565b601f19601f83011660200192915050565b82818337506000910152565b600061123f61123a846111f5565b6111de565b90508281526020810184848401111561125a5761125a600080fd5b611265848285611220565b509392505050565b600082601f83011261128157611281600080fd5b8135610fe484826020860161122c565b6000602082840312156112a6576112a6600080fd5b813567ffffffffffffffff8111156112c0576112c0600080fd5b610fe48482850161126d565b80611030565b60208101610fe882846112cc565b600e81526000602082016d139bdd08185d5d1a1bdc9a5e995960921b815291505b5060200190565b60208082528101610fe8816112e0565b634e487b7160e01b600052601160045260246000fd5b6000821982111561134157611341611318565b500190565b601081526000602082016f4e6f7420656e6f7567682066756e647360801b81529150611301565b60208082528101610fe881611346565b6001600160f01b03198116611030565b6000610fe88260601b90565b6000610fe88261138d565b6110306113b082611044565b611399565b6001600160f81b03198116611030565b60006113d1828661137d565b6002820191506113e182856113a4565b6014820191506113f182846113b5565b506001019392505050565b60005b838110156114175781810151838201526020016113ff565b83811115610b015750506000910152565b6000611432825190565b8084526020840193506114498185602086016113fc565b601f01601f19169290920192915050565b6020808252810161114b8184611428565b600061147961123a846111f5565b90508281526020810184848401111561149457611494600080fd5b6112658482856113fc565b600082601f8301126114b3576114b3600080fd5b8151610fe484826020860161146b565b6004811061107957600080fd5b8051610fe8816114c3565b8051610fe88161106c565b6000806000606084860312156114fe576114fe600080fd5b835167ffffffffffffffff81111561151857611518600080fd5b6115248682870161149f565b9350506020611535868287016114d0565b9250506040611546868287016114db565b9150509250925092565b60008282101561156257611562611318565b500390565b6040810161157582856112cc565b61114b60208301846112cc565b60006020828403121561159757611597600080fd5b6000610fe484846114db565b606081016115b182866112cc565b6115be60208301856112cc565b8181036040830152610db08184611428565b6012815260006020820171105908191bd95cc81b9bdd08195e1cda5cdd60721b81529150611301565b60208082528101610fe8816115d0565b600f81526000602082016e105b1c9958591e4818db185a5b5959608a1b81529150611301565b60208082528101610fe881611609565b6000611649825190565b6116578185602086016113fc565b9290920192915050565b600061114b828461163f565b601081526000602082016f14d95b9908161110524819985a5b195960821b81529150611301565b60208082528101610fe88161166d565b6016815260006020820175115490cc4c4d8dce8818dc99585d194819985a5b195960521b81529150611301565b60208082528101610fe8816116a4565b6000610fe882611044565b61106e816116e1565b8051610fe8816116ec565b60006020828403121561171557611715600080fd5b6000610fe484846116f5565b60006020828403121561173657611736600080fd5b815167ffffffffffffffff81111561175057611750600080fd5b610fe48482850161149f565b80151561106e565b8051610fe88161175c565b600067ffffffffffffffff8211156117895761178961119b565b5060200290565b8051610fe8816110a8565b60006117a961123a8461176f565b905080602084028301858111156117c2576117c2600080fd5b835b818110156117e657806117d78882611790565b845250602092830192016117c4565b5050509392505050565b600082601f83011261180457611804600080fd5b6003610fe484828561179b565b6003811061107957600080fd5b8051610fe881611811565b6000806000806000806000806000806101808b8d03121561184c5761184c600080fd5b60006118588d8d611764565b9a505060206118698d828e016114db565b995050604061187a8d828e016114db565b985050606061188b8d828e01611764565b975050608061189c8d828e016117f0565b96505060e06118ad8d828e016114db565b9550506101006118bf8d828e0161181e565b9450506101206118d18d828e01611790565b9350506101408b015167ffffffffffffffff8111156118f2576118f2600080fd5b6118fe8d828e0161149f565b9250506101606119108d828e016114db565b9150509295989b9194979a5092959850565b601881526000602082017f52657175657374206e6f74207265736f6c76656420796574000000000000000081529150611301565b60208082528101610fe881611922565b6000610fe86110028381565b61103081611966565b6060810161198982866112cc565b61199660208301856112cc565b6119a36040830184611972565b949350505050565b60006119b961123a8461176f565b905080602084028301858111156119d2576119d2600080fd5b835b818110156117e657806119e788826114db565b845250602092830192016119d4565b600082601f830112611a0a57611a0a600080fd5b6003610fe48482856119ab565b6000611a2561123a8461176f565b90508060208402830185811115611a3e57611a3e600080fd5b835b818110156117e65780611a538882611764565b84525060209283019201611a40565b600082601f830112611a7657611a76600080fd5b6003610fe4848285611a17565b6000806000806101008587031215611a9d57611a9d600080fd5b6000611aa98787611764565b9450506020611aba878288016119f6565b9350506080611acb87828801611a62565b92505060e0611adc878288016114db565b91505092959194509250565b634e487b7160e01b600052602160045260246000fd5b6000816000190483118215151615611b1857611b18611318565b500290565b634e487b7160e01b600052601260045260246000fd5b600082611b4257611b42611b1d565b50049056fea26469706673582212207be34f7cd3ee176b49cd6436d4d31d849d72cf23ef701204c63c7239dc5de32364736f6c63430008090033",
  "linkReferences": {},
  "deployedLinkReferences": {}
}