{
  "_format": "hh-sol-artifact-1",
  "contractName": "Base64Ad",
  "sourceName": "contracts/ads/Base64Ad.sol",
  "abi": [
    {
      "inputs": [],
      "stateMutability": "nonpayable",
      "type": "constructor"
    },
    {
      "inputs": [],
      "name": "creator",
      "outputs": [
        {
          "internalType": "address",
          "name": "",
          "type": "address"
        }
      ],
      "stateMutability": "view",
      "type": "function"
    },
    {
      "inputs": [
        {
          "internalType": "address",
          "name": "_market",
          "type": "address"
        },
        {
          "internalType": "uint256",
          "name": "_tokenID",
          "type": "uint256"
        }
      ],
      "name": "getSVG",
      "outputs": [
        {
          "internalType": "string",
          "name": "",
          "type": "string"
        }
      ],
      "stateMutability": "view",
      "type": "function"
    },
    {
      "inputs": [
        {
          "internalType": "address",
          "name": "_creator",
          "type": "address"
        },
        {
          "internalType": "string",
          "name": "_svg",
          "type": "string"
        }
      ],
      "name": "initialize",
      "outputs": [],
      "stateMutability": "payable",
      "type": "function"
    },
    {
      "inputs": [],
      "name": "itemID",
      "outputs": [
        {
          "internalType": "bytes32",
          "name": "",
          "type": "bytes32"
        }
      ],
      "stateMutability": "view",
      "type": "function"
    },
    {
      "inputs": [],
      "name": "proxyItemID",
      "outputs": [
        {
          "internalType": "bytes32",
          "name": "",
          "type": "bytes32"
        }
      ],
      "stateMutability": "view",
      "type": "function"
    },
    {
      "inputs": [],
      "name": "withdraw",
      "outputs": [],
      "stateMutability": "nonpayable",
      "type": "function"
    },
    {
      "stateMutability": "payable",
      "type": "receive"
    }
  ],
  "bytecode": "0x608060405234801561001057600080fd5b50610b18806100206000396000f3fe6080604052600436106100595760003560e01c806302d05d3f146100655780633ccfd60b1461009b57806343cdef60146100b25780634660a3e3146100d5578063ae9d449d14610102578063f399e22e1461011857600080fd5b3661006057005b600080fd5b34801561007157600080fd5b50600154610085906001600160a01b031681565b6040516100929190610679565b60405180910390f35b3480156100a757600080fd5b506100b061012b565b005b3480156100be57600080fd5b506100c860025481565b604051610092919061068d565b3480156100e157600080fd5b506100f56100f03660046106cb565b6101c4565b604051610092919061076a565b34801561010e57600080fd5b506100c860035481565b6100b0610126366004610885565b61025a565b6001546040805160008082526020820192839052926001600160a01b0316914791610155916108f5565b60006040518083038185875af1925050503d8060008114610192576040519150601f19603f3d011682016040523d82523d6000602084013e610197565b606091505b50509050806101c15760405162461bcd60e51b81526004016101b89061092b565b60405180910390fd5b50565b6060600080546101d390610951565b80601f01602080910402602001604051908101604052809291908181526020018280546101ff90610951565b801561024c5780601f106102215761010080835404028352916020019161024c565b820191906000526020600020905b81548152906001019060200180831161022f57829003601f168201915b505050505090505b92915050565b6000805461026790610951565b1590506102865760405162461bcd60e51b81526004016101b8906109a4565b60008151116102a75760405162461bcd60e51b81526004016101b8906109e0565b80516102ba9060009060208401906105c0565b50600180546001600160a01b0319166001600160a01b0384161790556040516000906102f7906135a560f21b903090600160ff1b90602001610a38565b60405160208183030381529060405290506000336001600160a01b03166303db0eee6040518163ffffffff1660e01b815260040160206040518083038186803b15801561034357600080fd5b505afa158015610357573d6000803e3d6000fd5b505050506040513d601f19601f8201168201806040525081019061037b9190610a7a565b9050806001600160a01b031663d294ccef47846040518363ffffffff1660e01b81526004016103aa919061076a565b6000604051808303818588803b1580156103c357600080fd5b505af11580156103d7573d6000803e3d6000fd5b50505050506000336001600160a01b031663e92057aa6040518163ffffffff1660e01b815260040160206040518083038186803b15801561041757600080fd5b505afa15801561042b573d6000803e3d6000fd5b505050506040513d601f19601f8201168201806040525081019061044f9190610a7a565b9050806001600160a01b031663d294ccef47856040518363ffffffff1660e01b815260040161047e919061076a565b6000604051808303818588803b15801561049757600080fd5b505af11580156104ab573d6000803e3d6000fd5b505050505082805190602001206002819055506000336001600160a01b0316630d19c74b6040518163ffffffff1660e01b815260040160206040518083038186803b1580156104f957600080fd5b505afa15801561050d573d6000803e3d6000fd5b505050506040513d601f19601f820116820180604052508101906105319190610a7a565b600254604051638d10eb3560e01b81529192506001600160a01b03831691638d10eb3591610563918190600401610a9b565b602060405180830381600087803b15801561057d57600080fd5b505af1158015610591573d6000803e3d6000fd5b505050506040513d601f19601f820116820180604052508101906105b59190610ac1565b600355505050505050565b8280546105cc90610951565b90600052602060002090601f0160209004810192826105ee5760008555610634565b82601f1061060757805160ff1916838001178555610634565b82800160010185558215610634579182015b82811115610634578251825591602001919060010190610619565b50610640929150610644565b5090565b5b808211156106405760008155600101610645565b60006001600160a01b038216610254565b61067381610659565b82525050565b60208101610254828461066a565b80610673565b602081016102548284610687565b6106a481610659565b81146101c157600080fd5b80356102548161069b565b806106a4565b8035610254816106ba565b600080604083850312156106e1576106e1600080fd5b60006106ed85856106af565b92505060206106fe858286016106c0565b9150509250929050565b60005b8381101561072357818101518382015260200161070b565b83811115610732576000848401525b50505050565b6000610742825190565b808452602084019350610759818560208601610708565b601f01601f19169290920192915050565b6020808252810161077b8184610738565b9392505050565b634e487b7160e01b600052604160045260246000fd5b601f19601f830116810181811067ffffffffffffffff821117156107be576107be610782565b6040525050565b60006107d060405190565b90506107dc8282610798565b919050565b600067ffffffffffffffff8211156107fb576107fb610782565b601f19601f83011660200192915050565b82818337506000910152565b600061082b610826846107e1565b6107c5565b90508281526020810184848401111561084657610846600080fd5b61085184828561080c565b509392505050565b600082601f83011261086d5761086d600080fd5b813561087d848260208601610818565b949350505050565b6000806040838503121561089b5761089b600080fd5b60006108a785856106af565b925050602083013567ffffffffffffffff8111156108c7576108c7600080fd5b6106fe85828601610859565b60006108dd825190565b6108eb818560208601610708565b9290920192915050565b600061077b82846108d3565b601081526000602082016f14d95b9908161110524819985a5b195960821b815291505b5060200190565b6020808252810161025481610901565b634e487b7160e01b600052602260045260246000fd5b60028104600182168061096557607f821691505b602082108114156109785761097861093b565b50919050565b600f81526000602082016e14d591c8185b1c9958591e481cd95d608a1b81529150610924565b602080825281016102548161097e565b6015815260006020820174535647206d757374206e6f7420626520656d70747960581b81529150610924565b60208082528101610254816109b4565b6001600160f01b03198116610673565b60006102548260601b90565b600061025482610a00565b610673610a2382610659565b610a0c565b6001600160f81b03198116610673565b6000610a4482866109f0565b600282019150610a548285610a17565b601482019150610a648284610a28565b506001019392505050565b80516102548161069b565b600060208284031215610a8f57610a8f600080fd5b600061087d8484610a6f565b60408101610aa98285610687565b61077b6020830184610687565b8051610254816106ba565b600060208284031215610ad657610ad6600080fd5b600061087d8484610ab656fea2646970667358221220557c408586179916f63d348b2afabc89c6dff52d2d22a86d070eeb10459a693664736f6c63430008090033",
  "linkReferences": {},
  "deployedLinkReferences": {}
}