{
  "_format": "hh-sol-artifact-1",
  "contractName": "Base64AdFactory",
  "sourceName": "contracts/ads/Base64AdFactory.sol",
  "abi": [
    {
      "inputs": [
        {
          "internalType": "address",
          "name": "_adContract",
          "type": "address"
        },
        {
          "internalType": "address",
          "name": "_technicalCurate",
          "type": "address"
        },
        {
          "internalType": "address",
          "name": "_contentCurate",
          "type": "address"
        },
        {
          "internalType": "address",
          "name": "_curateProxy",
          "type": "address"
        }
      ],
      "stateMutability": "nonpayable",
      "type": "constructor"
    },
    {
      "anonymous": false,
      "inputs": [
        {
          "indexed": true,
          "internalType": "address",
          "name": "ad",
          "type": "address"
        }
      ],
      "name": "NewAd",
      "type": "event"
    },
    {
      "inputs": [],
      "name": "adContract",
      "outputs": [
        {
          "internalType": "address",
          "name": "",
          "type": "address"
        }
      ],
      "stateMutability": "view",
      "type": "function"
    },
    {
      "inputs": [],
      "name": "adCount",
      "outputs": [
        {
          "internalType": "uint256",
          "name": "",
          "type": "uint256"
        }
      ],
      "stateMutability": "view",
      "type": "function"
    },
    {
      "inputs": [
        {
          "internalType": "uint256",
          "name": "",
          "type": "uint256"
        }
      ],
      "name": "ads",
      "outputs": [
        {
          "internalType": "contract Base64Ad",
          "name": "",
          "type": "address"
        }
      ],
      "stateMutability": "view",
      "type": "function"
    },
    {
      "inputs": [],
      "name": "allAds",
      "outputs": [
        {
          "internalType": "contract Base64Ad[]",
          "name": "",
          "type": "address[]"
        }
      ],
      "stateMutability": "view",
      "type": "function"
    },
    {
      "inputs": [],
      "name": "contentCurate",
      "outputs": [
        {
          "internalType": "address",
          "name": "",
          "type": "address"
        }
      ],
      "stateMutability": "view",
      "type": "function"
    },
    {
      "inputs": [
        {
          "internalType": "string",
          "name": "_svg",
          "type": "string"
        }
      ],
      "name": "createAd",
      "outputs": [
        {
          "internalType": "address",
          "name": "",
          "type": "address"
        }
      ],
      "stateMutability": "payable",
      "type": "function"
    },
    {
      "inputs": [],
      "name": "curateProxy",
      "outputs": [
        {
          "internalType": "address",
          "name": "",
          "type": "address"
        }
      ],
      "stateMutability": "view",
      "type": "function"
    },
    {
      "inputs": [],
      "name": "technicalCurate",
      "outputs": [
        {
          "internalType": "address",
          "name": "",
          "type": "address"
        }
      ],
      "stateMutability": "view",
      "type": "function"
    }
  ],
  "bytecode": "0x61010060405234801561001157600080fd5b5060405161087538038061087583398101604081905261003091610087565b6001600160a01b0393841660805291831660a052821660c0521660e0526100eb565b60006001600160a01b0382165b92915050565b61006e81610052565b811461007957600080fd5b50565b805161005f81610065565b600080600080608085870312156100a0576100a0600080fd5b60006100ac878761007c565b94505060206100bd8782880161007c565b93505060406100ce8782880161007c565b92505060606100df8782880161007c565b91505092959194509250565b60805160a05160c05160e05161074c610129600039600060dc015260006101c301526000609201526000818161018f0152610279015261074c6000f3fe60806040526004361061007b5760003560e01c80634fa773031161004e5780634fa773031461014d5780639c89dcf314610160578063c9bdb93e1461017d578063e92057aa146101b157600080fd5b806303db0eee146100805780630d19c74b146100ca57806311a7a4c0146100fe5780633c14d6961461012b575b600080fd5b34801561008c57600080fd5b506100b47f000000000000000000000000000000000000000000000000000000000000000081565b6040516100c1919061042a565b60405180910390f35b3480156100d657600080fd5b506100b47f000000000000000000000000000000000000000000000000000000000000000081565b34801561010a57600080fd5b5061011e61011936600461043f565b6101e5565b6040516100c19190610498565b34801561013757600080fd5b5061014061020f565b6040516100c19190610503565b6100b461015b366004610611565b610271565b34801561016c57600080fd5b506000546040516100c19190610652565b34801561018957600080fd5b506100b47f000000000000000000000000000000000000000000000000000000000000000081565b3480156101bd57600080fd5b506100b47f000000000000000000000000000000000000000000000000000000000000000081565b600081815481106101f557600080fd5b6000918252602090912001546001600160a01b0316905081565b6060600080548060200260200160405190810160405280929190818152602001828054801561026757602002820191906000526020600020905b81546001600160a01b03168152600190910190602001808311610249575b5050505050905090565b6000806102a67f00000000000000000000000000000000000000000000000000000000000000006001600160a01b031661038b565b9050806001600160a01b031663f399e22e3433866040518463ffffffff1660e01b81526004016102d79291906106c2565b6000604051808303818588803b1580156102f057600080fd5b505af1158015610304573d6000803e3d6000fd5b50506040516001600160a01b03851693507f7c466f1f8042a039f142263e295543c0dfd8dafd0c8534312863713e5e4a9447925060009150a2600080546001810182559080527f290decd9548b62a8d60345a988386fc84ba6bc95484008f6362f93160ef3e5630180546001600160a01b0319166001600160a01b03831617905592915050565b6000604051733d602d80600a3d3981f3363d3d373d3d3d363d7360601b81528260601b60148201526e5af43d82803e903d91602b57fd5bf360881b60288201526037816000f09150506001600160a01b0381166104035760405162461bcd60e51b81526004016103fa906106e2565b60405180910390fd5b919050565b60006001600160a01b0382165b92915050565b61042481610408565b82525050565b60208101610415828461041b565b8035610415565b60006020828403121561045457610454600080fd5b60006104608484610438565b949350505050565b60006001600160a01b038216610415565b600061041582610468565b600061041582610479565b61042481610484565b60208101610415828461048f565b60006104b2838361048f565b505060200190565b60006104c4825190565b80845260209384019383018060005b838110156104f85781516104e788826104a6565b9750602083019250506001016104d3565b509495945050505050565b6020808252810161051481846104ba565b9392505050565b634e487b7160e01b600052604160045260246000fd5b601f19601f830116810181811067ffffffffffffffff821117156105575761055761051b565b6040525050565b600061056960405190565b90506104038282610531565b600067ffffffffffffffff82111561058f5761058f61051b565b601f19601f83011660200192915050565b82818337506000910152565b60006105bf6105ba84610575565b61055e565b9050828152602081018484840111156105da576105da600080fd5b6105e58482856105a0565b509392505050565b600082601f83011261060157610601600080fd5b81356104608482602086016105ac565b60006020828403121561062657610626600080fd5b813567ffffffffffffffff81111561064057610640600080fd5b610460848285016105ed565b80610424565b60208101610415828461064c565b60005b8381101561067b578181015183820152602001610663565b8381111561068a576000848401525b50505050565b600061069a825190565b8084526020840193506106b1818560208601610660565b601f01601f19169290920192915050565b604081016106d0828561041b565b81810360208301526104608184610690565b60208082528101610415816016815275115490cc4c4d8dce8818dc99585d194819985a5b195960521b60208201526040019056fea2646970667358221220d84ff568f01cfcb86cca6f251836c5e6f12349c6681ed44802963e47b8c1931a64736f6c63430008090033",
  "linkReferences": {},
  "deployedLinkReferences": {}
}