{
  "_format": "hh-sol-artifact-1",
  "contractName": "FirstPriceAuction",
  "sourceName": "contracts/ads/FirstPriceAuction.sol",
  "abi": [
    {
      "inputs": [
        {
          "internalType": "contract ICurate",
          "name": "_curatedAds",
          "type": "address"
        },
        {
          "internalType": "contract IBilling",
          "name": "_billing",
          "type": "address"
        }
      ],
      "stateMutability": "nonpayable",
      "type": "constructor"
    },
    {
      "anonymous": false,
      "inputs": [
        {
          "indexed": true,
          "internalType": "address",
          "name": "_market",
          "type": "address"
        },
        {
          "indexed": true,
          "internalType": "address",
          "name": "_bidder",
          "type": "address"
        },
        {
          "indexed": false,
          "internalType": "bytes32",
          "name": "_itemID",
          "type": "bytes32"
        },
        {
          "indexed": true,
          "internalType": "uint256",
          "name": "_bidPerSecond",
          "type": "uint256"
        },
        {
          "indexed": false,
          "internalType": "uint256",
          "name": "_newBalance",
          "type": "uint256"
        }
      ],
      "name": "BidUpdate",
      "type": "event"
    },
    {
      "anonymous": false,
      "inputs": [
        {
          "indexed": true,
          "internalType": "address",
          "name": "_market",
          "type": "address"
        },
        {
          "indexed": false,
          "internalType": "address",
          "name": "_bidder",
          "type": "address"
        },
        {
          "indexed": false,
          "internalType": "bytes32",
          "name": "_itemID",
          "type": "bytes32"
        }
      ],
      "name": "NewHighestBid",
      "type": "event"
    },
    {
      "inputs": [],
      "name": "MIN_OFFER_DURATION",
      "outputs": [
        {
          "internalType": "uint256",
          "name": "",
          "type": "uint256"
        }
      ],
      "stateMutability": "view",
      "type": "function"
    },
    {
      "inputs": [
        {
          "internalType": "bytes32",
          "name": "",
          "type": "bytes32"
        }
      ],
      "name": "bids",
      "outputs": [
        {
          "internalType": "bytes32",
          "name": "previousBidPointer",
          "type": "bytes32"
        },
        {
          "internalType": "bytes32",
          "name": "nextBidPointer",
          "type": "bytes32"
        },
        {
          "internalType": "address",
          "name": "bidder",
          "type": "address"
        },
        {
          "internalType": "uint64",
          "name": "startTimestamp",
          "type": "uint64"
        },
        {
          "internalType": "bool",
          "name": "removed",
          "type": "bool"
        },
        {
          "internalType": "uint256",
          "name": "bidPerSecond",
          "type": "uint256"
        },
        {
          "internalType": "uint256",
          "name": "balance",
          "type": "uint256"
        },
        {
          "internalType": "bytes32",
          "name": "itemID",
          "type": "bytes32"
        }
      ],
      "stateMutability": "view",
      "type": "function"
    },
    {
      "inputs": [],
      "name": "billing",
      "outputs": [
        {
          "internalType": "contract IBilling",
          "name": "",
          "type": "address"
        }
      ],
      "stateMutability": "view",
      "type": "function"
    },
    {
      "inputs": [],
      "name": "curatedAds",
      "outputs": [
        {
          "internalType": "contract ICurate",
          "name": "",
          "type": "address"
        }
      ],
      "stateMutability": "view",
      "type": "function"
    },
    {
      "inputs": [
        {
          "internalType": "address",
          "name": "_market",
          "type": "address"
        }
      ],
      "name": "executeHighestBid",
      "outputs": [],
      "stateMutability": "nonpayable",
      "type": "function"
    },
    {
      "inputs": [
        {
          "internalType": "address",
          "name": "_market",
          "type": "address"
        },
        {
          "internalType": "uint256",
          "name": "_tokenID",
          "type": "uint256"
        }
      ],
      "name": "getAd",
      "outputs": [
        {
          "internalType": "string",
          "name": "",
          "type": "string"
        }
      ],
      "stateMutability": "view",
      "type": "function"
    },
    {
      "inputs": [
        {
          "internalType": "address",
          "name": "_market",
          "type": "address"
        },
        {
          "internalType": "uint256",
          "name": "_from",
          "type": "uint256"
        },
        {
          "internalType": "uint256",
          "name": "_to",
          "type": "uint256"
        }
      ],
      "name": "getBids",
      "outputs": [
        {
          "components": [
            {
              "internalType": "bytes32",
              "name": "previousBidPointer",
              "type": "bytes32"
            },
            {
              "internalType": "bytes32",
              "name": "nextBidPointer",
              "type": "bytes32"
            },
            {
              "internalType": "address",
              "name": "bidder",
              "type": "address"
            },
            {
              "internalType": "uint64",
              "name": "startTimestamp",
              "type": "uint64"
            },
            {
              "internalType": "bool",
              "name": "removed",
              "type": "bool"
            },
            {
              "internalType": "uint256",
              "name": "bidPerSecond",
              "type": "uint256"
            },
            {
              "internalType": "uint256",
              "name": "balance",
              "type": "uint256"
            },
            {
              "internalType": "bytes32",
              "name": "itemID",
              "type": "bytes32"
            }
          ],
          "internalType": "struct FirstPriceAuction.Bid[]",
          "name": "",
          "type": "tuple[]"
        }
      ],
      "stateMutability": "view",
      "type": "function"
    },
    {
      "inputs": [
        {
          "internalType": "address",
          "name": "_market",
          "type": "address"
        },
        {
          "internalType": "uint256",
          "name": "_tokenID",
          "type": "uint256"
        }
      ],
      "name": "getRef",
      "outputs": [
        {
          "internalType": "string",
          "name": "",
          "type": "string"
        }
      ],
      "stateMutability": "view",
      "type": "function"
    },
    {
      "inputs": [
        {
          "internalType": "bytes32",
          "name": "_itemID",
          "type": "bytes32"
        },
        {
          "internalType": "address",
          "name": "_market",
          "type": "address"
        },
        {
          "internalType": "uint256",
          "name": "_bidPerSecond",
          "type": "uint256"
        }
      ],
      "name": "placeBid",
      "outputs": [],
      "stateMutability": "payable",
      "type": "function"
    },
    {
      "inputs": [
        {
          "internalType": "bytes32",
          "name": "_itemID",
          "type": "bytes32"
        },
        {
          "internalType": "address",
          "name": "_market",
          "type": "address"
        }
      ],
      "name": "removeBid",
      "outputs": [],
      "stateMutability": "nonpayable",
      "type": "function"
    }
  ],
  "bytecode": "0x60806040523480156200001157600080fd5b5060405162001d3a38038062001d3a8339810160408190526200003491620000ad565b600080546001600160a01b039384166001600160a01b03199182161790915560018054929093169116179055620000f0565b60006001600160a01b0382165b92915050565b6000620000738262000066565b620000918162000079565b81146200009d57600080fd5b50565b8051620000738162000086565b60008060408385031215620000c557620000c5600080fd5b6000620000d38585620000a0565b9250506020620000e685828601620000a0565b9150509250929050565b611c3a80620001006000396000f3fe6080604052600436106100905760003560e01c80632fb1528b116100595780632fb1528b146101505780638f98eeda1461017d578063a487305814610207578063e2e3d93414610227578063fa14adac1461025457600080fd5b8062fb4b1e146100955780631900f81a146100b757806322aefbb8146100ed57806325929ddd1461010d578063294a70e414610130575b600080fd5b3480156100a157600080fd5b506100b56100b03660046113ad565b610267565b005b3480156100c357600080fd5b506000546100d7906001600160a01b031681565b6040516100e49190611432565b60405180910390f35b3480156100f957600080fd5b506100b5610108366004611440565b610471565b34801561011957600080fd5b5061012361070881565b6040516100e4919061146f565b34801561013c57600080fd5b506001546100d7906001600160a01b031681565b34801561015c57600080fd5b5061017061016b36600461147d565b6107ee565b6040516100e49190611512565b34801561018957600080fd5b506101f3610198366004611523565b60026020819052600091825260409091208054600182015492820154600383015460048401546005909401549294936001600160a01b03831693600160a01b84046001600160401b031693600160e01b900460ff1692919088565b6040516100e4989796959493929190611564565b34801561021357600080fd5b5061017061022236600461147d565b6109b7565b34801561023357600080fd5b506102476102423660046115db565b610b02565b6040516100e49190611720565b6100b5610262366004611731565b610cde565b600081833360405160200161027e93929190611766565b60408051601f198184030181529181528151602092830120600081815260029384905291909120918201549092506001600160a01b031633146102dc5760405162461bcd60e51b81526004016102d3906117ba565b60405180910390fd5b6002810154600160e01b900460ff16156103085760405162461bcd60e51b81526004016102d3906117f4565b6002808201805460ff60e01b1916600160e01b1790558154600183810180546000908152602094855260408082208590559154938152818120909201929092559051909161035891869101611804565b6040516020818303038152906040528051906020012090508082600001541415610413576103868285610efe565b60018201541561041357600182015460009081526002602081905260409182902090810180546001600160401b034216600160a01b0267ffffffffffffffff60a01b19821681179092556005830154935192936001600160a01b03808a1694600080516020611be583398151915294610409949083169216919091179190611812565b60405180910390a2505b8160030154336001600160a01b0316856001600160a01b0316600080516020611bc583398151915288600060405161044c929190611842565b60405180910390a460048201805460009091556104693382610fe9565b505050505050565b6000816040516020016104849190611804565b60408051601f19818403018152918152815160209283012060008181526002909352912060010154909150806104cc5760405162461bcd60e51b81526004016102d390611880565b600081815260026020819052604082206003810154918101549092919061050390600160a01b90046001600160401b0316426118a6565b61050d91906118bd565b90508160040154811015806105a257506000546005830154604051631392c59160e11b81526001600160a01b03909216916327258b22916105509160040161146f565b60206040518083038186803b15801561056857600080fd5b505afa15801561057c573d6000803e3d6000fd5b505050506040513d601f19601f820116820180604052508101906105a091906118ef565b155b156106f8576002808301805460ff60e01b1916600160e01b178155835460018581018054600090815260209590955260408086208490559054928552808520820192909255825467ffffffffffffffff60a01b1916909255600480860180549490559154905163f8cf068b60e01b81526001600160a01b039091169163f8cf068b918491610632918b9101611804565b6000604051808303818588803b15801561064b57600080fd5b505af115801561065f573d6000803e3d6000fd5b5050505060018401541590506106f257600183015460009081526002602081905260409182902090810180546001600160401b034216600160a01b0267ffffffffffffffff60a01b19821681179092556005830154935192936001600160a01b03808c1694600080516020611be5833981519152946106e8949083169216919091179190611812565b60405180910390a2505b506107a0565b60028201805467ffffffffffffffff60a01b1916600160a01b426001600160401b0316021790556004820180548291906000906107369084906118a6565b909155505060015460405163f8cf068b60e01b81526001600160a01b039091169063f8cf068b90839061076d908990600401611804565b6000604051808303818588803b15801561078657600080fd5b505af115801561079a573d6000803e3d6000fd5b50505050505b60038201546002830154600584015460048501546040516001600160a01b03938416938a1692600080516020611bc5833981519152926107df92611910565b60405180910390a45050505050565b60606000836040516020016108039190611804565b60408051601f198184030181529181528151602092830120600081815260029093529120600101549091508061084c5760405180602001604052806000815250925050506109b1565b6000818152600260205260408082208254600582015492516321f8a72160e01b81529193926001600160a01b03909116916321f8a7219161088f9160040161146f565b60206040518083038186803b1580156108a757600080fd5b505afa1580156108bb573d6000803e3d6000fd5b505050506040513d601f19601f820116820180604052508101906108df9190611929565b90506001600160a01b0381163b61090b57604051806020016040528060008152509450505050506109b1565b604051632fb1528b60e01b81526001600160a01b03821690632fb1528b90610939908a908a90600401611812565b60006040518083038186803b15801561095157600080fd5b505afa92505050801561098657506040513d6000823e601f3d908101601f191682016040526109839190810190611a37565b60015b6109a557604051806020016040528060008152509450505050506109b1565b94506109b19350505050565b92915050565b60606000836040516020016109cc9190611804565b60408051601f1981840301815291815281516020928301206000818152600290935291206001015490915080610a155760405180602001604052806000815250925050506109b1565b6000818152600260205260408082208254600582015492516321f8a72160e01b81529193926001600160a01b03909116916321f8a72191610a589160040161146f565b60206040518083038186803b158015610a7057600080fd5b505afa158015610a84573d6000803e3d6000fd5b505050506040513d601f19601f82011682018060405250810190610aa89190611929565b90506001600160a01b0381163b610ad457604051806020016040528060008152509450505050506109b1565b604051634660a3e360e01b81526001600160a01b03821690634660a3e390610939908a908a90600401611812565b60606000610b1084846118a6565b6001600160401b03811115610b2757610b2761194a565b604051908082528060200260200182016040528015610b9657816020015b604080516101008101825260008082526020808301829052928201819052606082018190526080820181905260a0820181905260c0820181905260e08201528252600019909201910181610b455790505b509050600085604051602001610bac9190611804565b60408051601f198184030181529181528151602092830120600081815260029093529082206001015490925082915b868111610ccf57878110610c8d5760008281526002602081815260409283902083516101008101855281548152600182015492810192909252918201546001600160a01b03811693820193909352600160a01b83046001600160401b03166060820152600160e01b90920460ff1615156080830152600381015460a0830152600481015460c08301526005015460e08201528551869083908110610c8157610c81611a71565b60200260200101819052505b600082815260026020526040902060010154610ca857610ccf565b60008281526002602052604090206001015491925080610cc781611a87565b915050610bdb565b509293505050505b9392505050565b600054604051631392c59160e11b81526001600160a01b03909116906327258b2290610d0e90869060040161146f565b60206040518083038186803b158015610d2657600080fd5b505afa158015610d3a573d6000803e3d6000fd5b505050506040513d601f19601f82011682018060405250810190610d5e91906118ef565b610d7a5760405162461bcd60e51b81526004016102d390611ad6565b6000828433604051602001610d9193929190611766565b60408051601f198184030181529181528151602092830120600081815260029384905291909120600381015492810154919350918414906001600160a01b031633148015610deb57506002820154600160e01b900460ff16155b8015610df5575080155b15610e0457610e04868661107b565b83826003018190555034826004016000828254610e219190611ae6565b909155505060058201869055600482015461070890610e41908690611b14565b11610e5e5760405162461bcd60e51b81526004016102d390611b4f565b60028201546001600160a01b031633141580610e8557506002820154600160e01b900460ff165b80610e8e575080155b15610e9d57610e9d85846111ac565b600282018054600168ff000000000000000160a01b0319163390811790915560048301546040518692916001600160a01b03891691600080516020611bc583398151915291610eee918c9190611910565b60405180910390a4505050505050565b6003820154600283015460009190610f2690600160a01b90046001600160401b0316426118a6565b610f3091906118bd565b9050600083600401548211610f455781610f4b565b83600401545b60028501805467ffffffffffffffff60a01b191690556004850180549192508291600090610f7a9084906118a6565b909155505060015460405163f8cf068b60e01b81526001600160a01b039091169063f8cf068b908390610fb1908790600401611804565b6000604051808303818588803b158015610fca57600080fd5b505af1158015610fde573d6000803e3d6000fd5b505050505050505050565b604080516000808252602082019092526001600160a01b0384169083906040516110139190611b81565b60006040518083038185875af1925050503d8060008114611050576040519150601f19603f3d011682016040523d82523d6000602084013e611055565b606091505b50509050806110765760405162461bcd60e51b81526004016102d390611bb4565b505050565b600081833360405160200161109293929190611766565b60408051601f198184030181528282528051602091820120600081815260028352928320909450926110c691869101611804565b6040516020818303038152906040528051906020012090508082600001541415611181576110f48285610efe565b60018201541561118157600182015460009081526002602081905260409182902090810180546001600160401b034216600160a01b0267ffffffffffffffff60a01b19821681179092556005830154935192936001600160a01b03808a1694600080516020611be583398151915294611177949083169216919091179190611812565b60405180910390a2505b5080546001918201805460009081526002602052604080822084905591549281522090910155505050565b600081815260026020908152604080832090519092916111ce91869101611804565b60408051601f1981840301815291815281516020928301206000818152600290935291206001015490915081905b60038085015460008381526002602052604090209091015410611233576000818152600260205260409020600101549091506111fc565b600082815260026020526040808220600190810188905584875586018390558282529020859055828214156104695760028401805467ffffffffffffffff60a01b1916600160a01b426001600160401b03160217905580156113305760008181526002602052604090206112a78188610efe565b60048101546112e7576002808201805460ff60e01b1916600160e01b17905560018281018054600090815260209390935260409092208890559054908601555b60038101546002820154600583015460048401546040516001600160a01b03938416938c1692600080516020611bc58339815191529261132692611910565b60405180910390a4505b856001600160a01b0316600080516020611be583398151915233866005015460405161135d929190611812565b60405180910390a2505050505050565b805b811461137a57600080fd5b50565b80356109b18161136d565b60006001600160a01b0382166109b1565b61136f81611388565b80356109b181611399565b600080604083850312156113c3576113c3600080fd5b60006113cf858561137d565b92505060206113e0858286016113a2565b9150509250929050565b60006109b16001600160a01b038316611401565b90565b6001600160a01b031690565b60006109b1826113ea565b60006109b18261140d565b61142c81611418565b82525050565b602081016109b18284611423565b60006020828403121561145557611455600080fd5b600061146184846113a2565b949350505050565b8061142c565b602081016109b18284611469565b6000806040838503121561149357611493600080fd5b600061149f85856113a2565b92505060206113e08582860161137d565b60005b838110156114cb5781810151838201526020016114b3565b838111156114da576000848401525b50505050565b60006114ea825190565b8084526020840193506115018185602086016114b0565b601f01601f19169290920192915050565b60208082528101610cd781846114e0565b60006020828403121561153857611538600080fd5b6000611461848461137d565b61142c81611388565b6001600160401b03811661142c565b80151561142c565b6101008101611573828b611469565b611580602083018a611469565b61158d6040830189611544565b61159a606083018861154d565b6115a7608083018761155c565b6115b460a0830186611469565b6115c160c0830185611469565b6115ce60e0830184611469565b9998505050505050505050565b6000806000606084860312156115f3576115f3600080fd5b60006115ff86866113a2565b93505060206116108682870161137d565b92505060406116218682870161137d565b9150509250925092565b805161010083019061163d8482611469565b5060208201516116506020850182611469565b5060408201516116636040850182611544565b506060820151611676606085018261154d565b506080820151611689608085018261155c565b5060a082015161169c60a0850182611469565b5060c08201516116af60c0850182611469565b5060e08201516114da60e0850182611469565b60006116ce838361162b565b50506101000190565b60006116e1825190565b80845260209384019383018060005b8381101561171557815161170488826116c2565b9750602083019250506001016116f0565b509495945050505050565b60208082528101610cd781846116d7565b60008060006060848603121561174957611749600080fd5b6000611755868661137d565b9350506020611610868287016113a2565b606081016117748286611544565b6117816020830185611469565b6114616040830184611544565b6012815260006020820171109a5908191bd95cc81b9bdd08195e1a5cdd60721b815291505b5060200190565b602080825281016109b18161178e565b6013815260006020820172109a5908185b1c9958591e481c995b5bdd9959606a1b815291506117b3565b602080825281016109b1816117ca565b602081016109b18284611544565b604081016118208285611544565b610cd76020830184611469565b60006109b16113fe8381565b61142c8161182d565b604081016118508285611469565b610cd76020830184611839565b600c81526000602082016b139bc8189a5908199bdd5b9960a21b815291506117b3565b602080825281016109b18161185d565b634e487b7160e01b600052601160045260246000fd5b6000828210156118b8576118b8611890565b500390565b60008160001904831182151516156118d7576118d7611890565b500290565b80151561136f565b80516109b1816118dc565b60006020828403121561190457611904600080fd5b600061146184846118e4565b604081016118208285611469565b80516109b181611399565b60006020828403121561193e5761193e600080fd5b6000611461848461191e565b634e487b7160e01b600052604160045260246000fd5b601f19601f83011681018181106001600160401b03821117156119855761198561194a565b6040525050565b600061199760405190565b90506119a38282611960565b919050565b60006001600160401b038211156119c1576119c161194a565b601f19601f83011660200192915050565b60006119e56119e0846119a8565b61198c565b905082815260208101848484011115611a0057611a00600080fd5b611a0b8482856114b0565b509392505050565b600082601f830112611a2757611a27600080fd5b81516114618482602086016119d2565b600060208284031215611a4c57611a4c600080fd5b81516001600160401b03811115611a6557611a65600080fd5b61146184828501611a13565b634e487b7160e01b600052603260045260246000fd5b6000600019821415611a9b57611a9b611890565b5060010190565b601781526000602082017f4974656d206d7573742062652072656769737465726564000000000000000000815291506117b3565b602080825281016109b181611aa2565b60008219821115611af957611af9611890565b500190565b634e487b7160e01b600052601260045260246000fd5b600082611b2357611b23611afe565b500490565b601081526000602082016f4e6f7420656e6f7567682066756e647360801b815291506117b3565b602080825281016109b181611b28565b6000611b69825190565b611b778185602086016114b0565b9290920192915050565b6000610cd78284611b5f565b601081526000602082016f14d95b9908161110524819985a5b195960821b815291506117b3565b602080825281016109b181611b8d56fe3b1b30500710b99ea265561496952ddab40feceeeb681f5eb430f0687b7cd11d49d48395c849bdcb719e216809e0389257305ee3644eb0f09ed96c818544fafca26469706673582212207f39678bb9499d9a788ebaec6b96fc99afc5a2928ef432d123c927660ae7064864736f6c63430008090033",
  "linkReferences": {},
  "deployedLinkReferences": {}
}