{
  "_format": "hh-sol-artifact-1",
  "contractName": "FirstPriceAuction",
  "sourceName": "contracts/ads/FirstPriceAuction.sol",
  "abi": [
    {
      "inputs": [
        {
          "internalType": "contract ICurate",
          "name": "_curatedAds",
          "type": "address"
        },
        {
          "internalType": "contract IBilling",
          "name": "_billing",
          "type": "address"
        }
      ],
      "stateMutability": "nonpayable",
      "type": "constructor"
    },
    {
      "anonymous": false,
      "inputs": [
        {
          "indexed": true,
          "internalType": "address",
          "name": "_market",
          "type": "address"
        },
        {
          "indexed": true,
          "internalType": "address",
          "name": "_bidder",
          "type": "address"
        },
        {
          "indexed": false,
          "internalType": "bytes32",
          "name": "_itemID",
          "type": "bytes32"
        },
        {
          "indexed": true,
          "internalType": "uint256",
          "name": "_bidPerSecond",
          "type": "uint256"
        },
        {
          "indexed": false,
          "internalType": "uint256",
          "name": "_newBalance",
          "type": "uint256"
        }
      ],
      "name": "BidUpdate",
      "type": "event"
    },
    {
      "anonymous": false,
      "inputs": [
        {
          "indexed": true,
          "internalType": "address",
          "name": "_market",
          "type": "address"
        },
        {
          "indexed": false,
          "internalType": "address",
          "name": "_bidder",
          "type": "address"
        },
        {
          "indexed": false,
          "internalType": "bytes32",
          "name": "_itemID",
          "type": "bytes32"
        }
      ],
      "name": "NewHighestBid",
      "type": "event"
    },
    {
      "inputs": [],
      "name": "MIN_OFFER_DURATION",
      "outputs": [
        {
          "internalType": "uint256",
          "name": "",
          "type": "uint256"
        }
      ],
      "stateMutability": "view",
      "type": "function"
    },
    {
      "inputs": [
        {
          "internalType": "bytes32",
          "name": "",
          "type": "bytes32"
        }
      ],
      "name": "bids",
      "outputs": [
        {
          "internalType": "bytes32",
          "name": "previousBidPointer",
          "type": "bytes32"
        },
        {
          "internalType": "bytes32",
          "name": "nextBidPointer",
          "type": "bytes32"
        },
        {
          "internalType": "address",
          "name": "bidder",
          "type": "address"
        },
        {
          "internalType": "uint64",
          "name": "startTimestamp",
          "type": "uint64"
        },
        {
          "internalType": "bool",
          "name": "removed",
          "type": "bool"
        },
        {
          "internalType": "uint256",
          "name": "bidPerSecond",
          "type": "uint256"
        },
        {
          "internalType": "uint256",
          "name": "balance",
          "type": "uint256"
        },
        {
          "internalType": "bytes32",
          "name": "itemID",
          "type": "bytes32"
        }
      ],
      "stateMutability": "view",
      "type": "function"
    },
    {
      "inputs": [],
      "name": "billing",
      "outputs": [
        {
          "internalType": "contract IBilling",
          "name": "",
          "type": "address"
        }
      ],
      "stateMutability": "view",
      "type": "function"
    },
    {
      "inputs": [],
      "name": "curatedAds",
      "outputs": [
        {
          "internalType": "contract ICurate",
          "name": "",
          "type": "address"
        }
      ],
      "stateMutability": "view",
      "type": "function"
    },
    {
      "inputs": [
        {
          "internalType": "address",
          "name": "_market",
          "type": "address"
        }
      ],
      "name": "executeHighestBid",
      "outputs": [],
      "stateMutability": "nonpayable",
      "type": "function"
    },
    {
      "inputs": [
        {
          "internalType": "address",
          "name": "_market",
          "type": "address"
        },
        {
          "internalType": "uint256",
          "name": "_tokenID",
          "type": "uint256"
        }
      ],
      "name": "getAd",
      "outputs": [
        {
          "internalType": "string",
          "name": "",
          "type": "string"
        }
      ],
      "stateMutability": "view",
      "type": "function"
    },
    {
      "inputs": [
        {
          "internalType": "address",
          "name": "_market",
          "type": "address"
        },
        {
          "internalType": "uint256",
          "name": "_from",
          "type": "uint256"
        },
        {
          "internalType": "uint256",
          "name": "_to",
          "type": "uint256"
        }
      ],
      "name": "getBids",
      "outputs": [
        {
          "components": [
            {
              "internalType": "bytes32",
              "name": "previousBidPointer",
              "type": "bytes32"
            },
            {
              "internalType": "bytes32",
              "name": "nextBidPointer",
              "type": "bytes32"
            },
            {
              "internalType": "address",
              "name": "bidder",
              "type": "address"
            },
            {
              "internalType": "uint64",
              "name": "startTimestamp",
              "type": "uint64"
            },
            {
              "internalType": "bool",
              "name": "removed",
              "type": "bool"
            },
            {
              "internalType": "uint256",
              "name": "bidPerSecond",
              "type": "uint256"
            },
            {
              "internalType": "uint256",
              "name": "balance",
              "type": "uint256"
            },
            {
              "internalType": "bytes32",
              "name": "itemID",
              "type": "bytes32"
            }
          ],
          "internalType": "struct FirstPriceAuction.Bid[]",
          "name": "",
          "type": "tuple[]"
        }
      ],
      "stateMutability": "view",
      "type": "function"
    },
    {
      "inputs": [
        {
          "internalType": "bytes32",
          "name": "_itemID",
          "type": "bytes32"
        },
        {
          "internalType": "address",
          "name": "_market",
          "type": "address"
        }
      ],
      "name": "increaseBalance",
      "outputs": [],
      "stateMutability": "payable",
      "type": "function"
    },
    {
      "inputs": [
        {
          "internalType": "bytes32",
          "name": "_itemID",
          "type": "bytes32"
        },
        {
          "internalType": "address",
          "name": "_market",
          "type": "address"
        },
        {
          "internalType": "uint256",
          "name": "_bidPerSecond",
          "type": "uint256"
        }
      ],
      "name": "placeBid",
      "outputs": [],
      "stateMutability": "payable",
      "type": "function"
    },
    {
      "inputs": [
        {
          "internalType": "bytes32",
          "name": "_itemID",
          "type": "bytes32"
        },
        {
          "internalType": "address",
          "name": "_market",
          "type": "address"
        }
      ],
      "name": "removeBid",
      "outputs": [],
      "stateMutability": "nonpayable",
      "type": "function"
    },
    {
      "inputs": [
        {
          "internalType": "bytes32",
          "name": "_itemID",
          "type": "bytes32"
        },
        {
          "internalType": "address",
          "name": "_market",
          "type": "address"
        },
        {
          "internalType": "uint256",
          "name": "_bidPerSecond",
          "type": "uint256"
        }
      ],
      "name": "updateBid",
      "outputs": [],
      "stateMutability": "payable",
      "type": "function"
    }
  ],
  "bytecode": "0x60806040523480156200001157600080fd5b5060405162001f1738038062001f178339810160408190526200003491620000ad565b600080546001600160a01b039384166001600160a01b03199182161790915560018054929093169116179055620000f0565b60006001600160a01b0382165b92915050565b6000620000738262000066565b620000918162000079565b81146200009d57600080fd5b50565b8051620000738162000086565b60008060408385031215620000c557620000c5600080fd5b6000620000d38585620000a0565b9250506020620000e685828601620000a0565b9150509250929050565b611e1780620001006000396000f3fe60806040526004361061009b5760003560e01c80638f98eeda116100645780638f98eeda1461015b578063a4873058146101e5578063e2e3d93414610212578063ef099ee71461023f578063fa14adac14610252578063fa3ac74f1461026557600080fd5b8062fb4b1e146100a05780631900f81a146100c257806322aefbb8146100f857806325929ddd14610118578063294a70e41461013b575b600080fd5b3480156100ac57600080fd5b506100c06100bb366004611556565b610278565b005b3480156100ce57600080fd5b506000546100e2906001600160a01b031681565b6040516100ef91906115db565b60405180910390f35b34801561010457600080fd5b506100c06101133660046115e9565b610482565b34801561012457600080fd5b5061012e61025881565b6040516100ef9190611618565b34801561014757600080fd5b506001546100e2906001600160a01b031681565b34801561016757600080fd5b506101d1610176366004611626565b60026020819052600091825260409091208054600182015492820154600383015460048401546005909401549294936001600160a01b03831693600160a01b84046001600160401b031693600160e01b900460ff1692919088565b6040516100ef989796959493929190611667565b3480156101f157600080fd5b506102056102003660046116de565b6107ff565b6040516100ef9190611773565b34801561021e57600080fd5b5061023261022d366004611784565b6109c8565b6040516100ef91906118c9565b6100c061024d366004611556565b610ba4565b6100c06102603660046118da565b610d70565b6100c06102733660046118da565b610f2c565b600081833360405160200161028f9392919061190f565b60408051601f198184030181529181528151602092830120600081815260029384905291909120918201549092506001600160a01b031633146102ed5760405162461bcd60e51b81526004016102e490611963565b60405180910390fd5b6002810154600160e01b900460ff16156103195760405162461bcd60e51b81526004016102e49061199d565b6002808201805460ff60e01b1916600160e01b17905581546001838101805460009081526020948552604080822085905591549381528181209092019290925590519091610369918691016119ad565b60405160208183030381529060405280519060200120905080826000015414156104245761039782856111d8565b60018201541561042457600182015460009081526002602081905260409182902090810180546001600160401b034216600160a01b0267ffffffffffffffff60a01b19821681179092556005830154935192936001600160a01b03808a1694600080516020611dc28339815191529461041a9490831692169190911791906119bb565b60405180910390a2505b8160030154336001600160a01b0316856001600160a01b0316600080516020611da283398151915288600060405161045d9291906119eb565b60405180910390a4600482018054600090915561047a33826112c3565b505050505050565b60008160405160200161049591906119ad565b60408051601f19818403018152918152815160209283012060008181526002909352912060010154909150806104dd5760405162461bcd60e51b81526004016102e490611a29565b600081815260026020819052604082206003810154918101549092919061051490600160a01b90046001600160401b031642611a4f565b61051e9190611a66565b90508160040154811015806105b357506000546005830154604051631392c59160e11b81526001600160a01b03909216916327258b229161056191600401611618565b60206040518083038186803b15801561057957600080fd5b505afa15801561058d573d6000803e3d6000fd5b505050506040513d601f19601f820116820180604052508101906105b19190611a98565b155b15610709576002808301805460ff60e01b1916600160e01b178155835460018581018054600090815260209590955260408086208490559054928552808520820192909255825467ffffffffffffffff60a01b1916909255600480860180549490559154905163f8cf068b60e01b81526001600160a01b039091169163f8cf068b918491610643918b91016119ad565b6000604051808303818588803b15801561065c57600080fd5b505af1158015610670573d6000803e3d6000fd5b50505050600184015415905061070357600183015460009081526002602081905260409182902090810180546001600160401b034216600160a01b0267ffffffffffffffff60a01b19821681179092556005830154935192936001600160a01b03808c1694600080516020611dc2833981519152946106f99490831692169190911791906119bb565b60405180910390a2505b506107b1565b60028201805467ffffffffffffffff60a01b1916600160a01b426001600160401b031602179055600482018054829190600090610747908490611a4f565b909155505060015460405163f8cf068b60e01b81526001600160a01b039091169063f8cf068b90839061077e9089906004016119ad565b6000604051808303818588803b15801561079757600080fd5b505af11580156107ab573d6000803e3d6000fd5b50505050505b60038201546002830154600584015460048501546040516001600160a01b03938416938a1692600080516020611da2833981519152926107f092611ab9565b60405180910390a45050505050565b606060008360405160200161081491906119ad565b60408051601f198184030181529181528151602092830120600081815260029093529120600101549091508061085d5760405180602001604052806000815250925050506109c2565b6000818152600260205260408082208254600582015492516321f8a72160e01b81529193926001600160a01b03909116916321f8a721916108a091600401611618565b60206040518083038186803b1580156108b857600080fd5b505afa1580156108cc573d6000803e3d6000fd5b505050506040513d601f19601f820116820180604052508101906108f09190611ad2565b90506001600160a01b0381163b61091c57604051806020016040528060008152509450505050506109c2565b604051634660a3e360e01b81526001600160a01b03821690634660a3e39061094a908a908a906004016119bb565b60006040518083038186803b15801561096257600080fd5b505afa92505050801561099757506040513d6000823e601f3d908101601f191682016040526109949190810190611be0565b60015b6109b657604051806020016040528060008152509450505050506109c2565b94506109c29350505050565b92915050565b606060006109d68484611a4f565b6001600160401b038111156109ed576109ed611af3565b604051908082528060200260200182016040528015610a5c57816020015b604080516101008101825260008082526020808301829052928201819052606082018190526080820181905260a0820181905260c0820181905260e08201528252600019909201910181610a0b5790505b509050600085604051602001610a7291906119ad565b60408051601f198184030181529181528151602092830120600081815260029093529082206001015490925082915b868111610b9557878110610b535760008281526002602081815260409283902083516101008101855281548152600182015492810192909252918201546001600160a01b03811693820193909352600160a01b83046001600160401b03166060820152600160e01b90920460ff1615156080830152600381015460a0830152600481015460c08301526005015460e08201528551869083908110610b4757610b47611c1a565b60200260200101819052505b600082815260026020526040902060010154610b6e57610b95565b60008281526002602052604090206001015491925080610b8d81611c30565b915050610aa1565b509293505050505b9392505050565b6000818333604051602001610bbb9392919061190f565b60408051601f1981840301815291815281516020928301206000818152600290935290822060048101805492945090923492610bf8908490611c4b565b9091555050600054604051631392c59160e11b81526001600160a01b03909116906327258b2290610c2d908790600401611618565b60206040518083038186803b158015610c4557600080fd5b505afa158015610c59573d6000803e3d6000fd5b505050506040513d601f19601f82011682018060405250810190610c7d9190611a98565b610c995760405162461bcd60e51b81526004016102e490611c97565b60028101546001600160a01b03163314610cc55760405162461bcd60e51b81526004016102e490611963565b61025881600301548260040154610cdc9190611cbd565b11610cf95760405162461bcd60e51b81526004016102e490611cf8565b6002810154600160e01b900460ff1615610d265760028101805460ff60e01b19169055610d268383611355565b8060030154336001600160a01b0316846001600160a01b0316600080516020611da2833981519152878560040154604051610d62929190611ab9565b60405180910390a450505050565b610258610d7d8234611cbd565b11610d9a5760405162461bcd60e51b81526004016102e490611cf8565b600054604051631392c59160e11b81526001600160a01b03909116906327258b2290610dca908690600401611618565b60206040518083038186803b158015610de257600080fd5b505afa158015610df6573d6000803e3d6000fd5b505050506040513d601f19601f82011682018060405250810190610e1a9190611a98565b610e365760405162461bcd60e51b81526004016102e490611c97565b6000828433604051602001610e4d9392919061190f565b60408051601f198184030181529181528151602092830120600081815260029384905291909120918201549092506001600160a01b03161580610e9b57506002810154600160e01b900460ff165b610eb75760405162461bcd60e51b81526004016102e490611d2c565b6002810180546003830185905534600484015560058301879055600168ff000000000000000160a01b0319163360ff60e01b1916179055610ef88483611355565b82336001600160a01b0316856001600160a01b0316600080516020611da283398151915288346040516107f0929190611ab9565b6000828433604051602001610f439392919061190f565b60408051601f198184030181528282528051602091820120600081815260029092529181209054631392c59160e11b8452919350916001600160a01b03909116906327258b2290610f98908890600401611618565b60206040518083038186803b158015610fb057600080fd5b505afa158015610fc4573d6000803e3d6000fd5b505050506040513d601f19601f82011682018060405250810190610fe89190611a98565b6110045760405162461bcd60e51b81526004016102e490611c97565b60028101546001600160a01b031633146110305760405162461bcd60e51b81526004016102e490611963565b6002810154600160e01b900460ff166111365760008460405160200161105691906119ad565b60405160208183030381529060405280519060200120905080826000015414156111115761108482866111d8565b60018201541561111157600182015460009081526002602081905260409182902090810180546001600160401b034216600160a01b0267ffffffffffffffff60a01b19821681179092556005830154935192936001600160a01b03808b1694600080516020611dc2833981519152946111079490831692169190911791906119bb565b60405180910390a2505b5080546001808301805460009081526002602052604080822085905591549381522001555b3481600401600082825461114a9190611c4b565b9091555050600481015461025890611163908590611cbd565b116111805760405162461bcd60e51b81526004016102e490611cf8565b6003810183905560028101805460ff60e01b191690556111a08483611355565b82336001600160a01b0316856001600160a01b0316600080516020611da28339815191528885600401546040516107f0929190611ab9565b600382015460028301546000919061120090600160a01b90046001600160401b031642611a4f565b61120a9190611a66565b905060008360040154821161121f5781611225565b83600401545b60028501805467ffffffffffffffff60a01b191690556004850180549192508291600090611254908490611a4f565b909155505060015460405163f8cf068b60e01b81526001600160a01b039091169063f8cf068b90839061128b9087906004016119ad565b6000604051808303818588803b1580156112a457600080fd5b505af11580156112b8573d6000803e3d6000fd5b505050505050505050565b604080516000808252602082019092526001600160a01b0384169083906040516112ed9190611d5e565b60006040518083038185875af1925050503d806000811461132a576040519150601f19603f3d011682016040523d82523d6000602084013e61132f565b606091505b50509050806113505760405162461bcd60e51b81526004016102e490611d91565b505050565b60008181526002602090815260408083209051909291611377918691016119ad565b60408051601f1981840301815291815281516020928301206000818152600290935291206001015490915081905b600380850154600083815260026020526040902090910154106113dc576000818152600260205260409020600101549091506113a5565b6000828152600260205260408082206001908101889055848755860183905582825290208590558282141561047a5760028401805467ffffffffffffffff60a01b1916600160a01b426001600160401b03160217905580156114d957600081815260026020526040902061145081886111d8565b6004810154611490576002808201805460ff60e01b1916600160e01b17905560018281018054600090815260209390935260409092208890559054908601555b60038101546002820154600583015460048401546040516001600160a01b03938416938c1692600080516020611da2833981519152926114cf92611ab9565b60405180910390a4505b856001600160a01b0316600080516020611dc28339815191523386600501546040516115069291906119bb565b60405180910390a2505050505050565b805b811461152357600080fd5b50565b80356109c281611516565b60006001600160a01b0382166109c2565b61151881611531565b80356109c281611542565b6000806040838503121561156c5761156c600080fd5b60006115788585611526565b92505060206115898582860161154b565b9150509250929050565b60006109c26001600160a01b0383166115aa565b90565b6001600160a01b031690565b60006109c282611593565b60006109c2826115b6565b6115d5816115c1565b82525050565b602081016109c282846115cc565b6000602082840312156115fe576115fe600080fd5b600061160a848461154b565b949350505050565b806115d5565b602081016109c28284611612565b60006020828403121561163b5761163b600080fd5b600061160a8484611526565b6115d581611531565b6001600160401b0381166115d5565b8015156115d5565b6101008101611676828b611612565b611683602083018a611612565b6116906040830189611647565b61169d6060830188611650565b6116aa608083018761165f565b6116b760a0830186611612565b6116c460c0830185611612565b6116d160e0830184611612565b9998505050505050505050565b600080604083850312156116f4576116f4600080fd5b6000611700858561154b565b925050602061158985828601611526565b60005b8381101561172c578181015183820152602001611714565b8381111561173b576000848401525b50505050565b600061174b825190565b808452602084019350611762818560208601611711565b601f01601f19169290920192915050565b60208082528101610b9d8184611741565b60008060006060848603121561179c5761179c600080fd5b60006117a8868661154b565b93505060206117b986828701611526565b92505060406117ca86828701611526565b9150509250925092565b80516101008301906117e68482611612565b5060208201516117f96020850182611612565b50604082015161180c6040850182611647565b50606082015161181f6060850182611650565b506080820151611832608085018261165f565b5060a082015161184560a0850182611612565b5060c082015161185860c0850182611612565b5060e082015161173b60e0850182611612565b600061187783836117d4565b50506101000190565b600061188a825190565b80845260209384019383018060005b838110156118be5781516118ad888261186b565b975060208301925050600101611899565b509495945050505050565b60208082528101610b9d8184611880565b6000806000606084860312156118f2576118f2600080fd5b60006118fe8686611526565b93505060206117b98682870161154b565b6060810161191d8286611647565b61192a6020830185611612565b61160a6040830184611647565b6012815260006020820171109a5908191bd95cc81b9bdd08195e1a5cdd60721b815291505b5060200190565b602080825281016109c281611937565b6013815260006020820172109a5908185b1c9958591e481c995b5bdd9959606a1b8152915061195c565b602080825281016109c281611973565b602081016109c28284611647565b604081016119c98285611647565b610b9d6020830184611612565b60006109c26115a78381565b6115d5816119d6565b604081016119f98285611612565b610b9d60208301846119e2565b600c81526000602082016b139bc8189a5908199bdd5b9960a21b8152915061195c565b602080825281016109c281611a06565b634e487b7160e01b600052601160045260246000fd5b600082821015611a6157611a61611a39565b500390565b6000816000190483118215151615611a8057611a80611a39565b500290565b801515611518565b80516109c281611a85565b600060208284031215611aad57611aad600080fd5b600061160a8484611a8d565b604081016119c98285611612565b80516109c281611542565b600060208284031215611ae757611ae7600080fd5b600061160a8484611ac7565b634e487b7160e01b600052604160045260246000fd5b601f19601f83011681018181106001600160401b0382111715611b2e57611b2e611af3565b6040525050565b6000611b4060405190565b9050611b4c8282611b09565b919050565b60006001600160401b03821115611b6a57611b6a611af3565b601f19601f83011660200192915050565b6000611b8e611b8984611b51565b611b35565b905082815260208101848484011115611ba957611ba9600080fd5b611bb4848285611711565b509392505050565b600082601f830112611bd057611bd0600080fd5b815161160a848260208601611b7b565b600060208284031215611bf557611bf5600080fd5b81516001600160401b03811115611c0e57611c0e600080fd5b61160a84828501611bbc565b634e487b7160e01b600052603260045260246000fd5b6000600019821415611c4457611c44611a39565b5060010190565b60008219821115611c5e57611c5e611a39565b500190565b601781526000602082017f4974656d206d75737420626520726567697374657265640000000000000000008152915061195c565b602080825281016109c281611c63565b634e487b7160e01b600052601260045260246000fd5b600082611ccc57611ccc611ca7565b500490565b601081526000602082016f4e6f7420656e6f7567682066756e647360801b8152915061195c565b602080825281016109c281611cd1565b600d81526000602082016c4269642069732061637469766560981b8152915061195c565b602080825281016109c281611d08565b6000611d46825190565b611d54818560208601611711565b9290920192915050565b6000610b9d8284611d3c565b601081526000602082016f14d95b9908161110524819985a5b195960821b8152915061195c565b602080825281016109c281611d6a56fe3b1b30500710b99ea265561496952ddab40feceeeb681f5eb430f0687b7cd11d49d48395c849bdcb719e216809e0389257305ee3644eb0f09ed96c818544fafca26469706673582212203348639a4d3700bd8e6a3644681d39f08710337f70962e183402f4192d93135a64736f6c63430008090033",
  "linkReferences": {},
  "deployedLinkReferences": {}
}