{
  "_format": "hh-sol-artifact-1",
  "contractName": "Market",
  "sourceName": "contracts/Market.sol",
  "abi": [
    {
      "inputs": [],
      "stateMutability": "nonpayable",
      "type": "constructor"
    },
    {
      "anonymous": false,
      "inputs": [
        {
          "indexed": true,
          "internalType": "address",
          "name": "owner",
          "type": "address"
        },
        {
          "indexed": true,
          "internalType": "address",
          "name": "approved",
          "type": "address"
        },
        {
          "indexed": true,
          "internalType": "uint256",
          "name": "tokenId",
          "type": "uint256"
        }
      ],
      "name": "Approval",
      "type": "event"
    },
    {
      "anonymous": false,
      "inputs": [
        {
          "indexed": true,
          "internalType": "address",
          "name": "owner",
          "type": "address"
        },
        {
          "indexed": true,
          "internalType": "address",
          "name": "operator",
          "type": "address"
        },
        {
          "indexed": false,
          "internalType": "bool",
          "name": "approved",
          "type": "bool"
        }
      ],
      "name": "ApprovalForAll",
      "type": "event"
    },
    {
      "anonymous": false,
      "inputs": [
        {
          "indexed": true,
          "internalType": "address",
          "name": "_provider",
          "type": "address"
        }
      ],
      "name": "Attribution",
      "type": "event"
    },
    {
      "anonymous": false,
      "inputs": [
        {
          "indexed": true,
          "internalType": "uint256",
          "name": "_tokenID",
          "type": "uint256"
        },
        {
          "indexed": false,
          "internalType": "uint256",
          "name": "_reward",
          "type": "uint256"
        }
      ],
      "name": "BetReward",
      "type": "event"
    },
    {
      "anonymous": false,
      "inputs": [
        {
          "indexed": true,
          "internalType": "address",
          "name": "_funder",
          "type": "address"
        },
        {
          "indexed": false,
          "internalType": "uint256",
          "name": "_amount",
          "type": "uint256"
        },
        {
          "indexed": false,
          "internalType": "string",
          "name": "_message",
          "type": "string"
        }
      ],
      "name": "FundingReceived",
      "type": "event"
    },
    {
      "anonymous": false,
      "inputs": [
        {
          "indexed": false,
          "internalType": "address",
          "name": "_manager",
          "type": "address"
        },
        {
          "indexed": false,
          "internalType": "uint256",
          "name": "_managementReward",
          "type": "uint256"
        }
      ],
      "name": "ManagementReward",
      "type": "event"
    },
    {
      "anonymous": false,
      "inputs": [
        {
          "indexed": true,
          "internalType": "address",
          "name": "_player",
          "type": "address"
        },
        {
          "indexed": true,
          "internalType": "uint256",
          "name": "tokenID",
          "type": "uint256"
        },
        {
          "indexed": true,
          "internalType": "bytes32",
          "name": "_tokenHash",
          "type": "bytes32"
        },
        {
          "indexed": false,
          "internalType": "bytes32[]",
          "name": "_predictions",
          "type": "bytes32[]"
        }
      ],
      "name": "PlaceBet",
      "type": "event"
    },
    {
      "anonymous": false,
      "inputs": [
        {
          "indexed": false,
          "internalType": "uint16[]",
          "name": "_prizes",
          "type": "uint16[]"
        }
      ],
      "name": "Prizes",
      "type": "event"
    },
    {
      "anonymous": false,
      "inputs": [
        {
          "indexed": false,
          "internalType": "bytes32[]",
          "name": "_questionIDs",
          "type": "bytes32[]"
        }
      ],
      "name": "QuestionsRegistered",
      "type": "event"
    },
    {
      "anonymous": false,
      "inputs": [
        {
          "indexed": true,
          "internalType": "uint256",
          "name": "_tokenID",
          "type": "uint256"
        },
        {
          "indexed": false,
          "internalType": "uint256",
          "name": "_points",
          "type": "uint256"
        },
        {
          "indexed": false,
          "internalType": "uint256",
          "name": "_index",
          "type": "uint256"
        }
      ],
      "name": "RankingUpdated",
      "type": "event"
    },
    {
      "anonymous": false,
      "inputs": [
        {
          "indexed": true,
          "internalType": "address",
          "name": "from",
          "type": "address"
        },
        {
          "indexed": true,
          "internalType": "address",
          "name": "to",
          "type": "address"
        },
        {
          "indexed": true,
          "internalType": "uint256",
          "name": "tokenId",
          "type": "uint256"
        }
      ],
      "name": "Transfer",
      "type": "event"
    },
    {
      "inputs": [],
      "name": "DIVISOR",
      "outputs": [
        {
          "internalType": "uint256",
          "name": "",
          "type": "uint256"
        }
      ],
      "stateMutability": "view",
      "type": "function"
    },
    {
      "inputs": [
        {
          "internalType": "address",
          "name": "to",
          "type": "address"
        },
        {
          "internalType": "uint256",
          "name": "tokenId",
          "type": "uint256"
        }
      ],
      "name": "approve",
      "outputs": [],
      "stateMutability": "nonpayable",
      "type": "function"
    },
    {
      "inputs": [
        {
          "internalType": "address",
          "name": "",
          "type": "address"
        }
      ],
      "name": "attributionBalance",
      "outputs": [
        {
          "internalType": "uint256",
          "name": "",
          "type": "uint256"
        }
      ],
      "stateMutability": "view",
      "type": "function"
    },
    {
      "inputs": [
        {
          "internalType": "address",
          "name": "owner",
          "type": "address"
        }
      ],
      "name": "balanceOf",
      "outputs": [
        {
          "internalType": "uint256",
          "name": "",
          "type": "uint256"
        }
      ],
      "stateMutability": "view",
      "type": "function"
    },
    {
      "inputs": [],
      "name": "betNFTDescriptor",
      "outputs": [
        {
          "internalType": "address",
          "name": "",
          "type": "address"
        }
      ],
      "stateMutability": "view",
      "type": "function"
    },
    {
      "inputs": [
        {
          "internalType": "bytes32",
          "name": "",
          "type": "bytes32"
        }
      ],
      "name": "bets",
      "outputs": [
        {
          "internalType": "uint256",
          "name": "count",
          "type": "uint256"
        }
      ],
      "stateMutability": "view",
      "type": "function"
    },
    {
      "inputs": [
        {
          "internalType": "uint256",
          "name": "_rankIndex",
          "type": "uint256"
        },
        {
          "internalType": "uint256",
          "name": "_firstSharedIndex",
          "type": "uint256"
        },
        {
          "internalType": "uint256",
          "name": "_lastSharedIndex",
          "type": "uint256"
        }
      ],
      "name": "claimRewards",
      "outputs": [],
      "stateMutability": "nonpayable",
      "type": "function"
    },
    {
      "inputs": [],
      "name": "closingTime",
      "outputs": [
        {
          "internalType": "uint256",
          "name": "",
          "type": "uint256"
        }
      ],
      "stateMutability": "view",
      "type": "function"
    },
    {
      "inputs": [],
      "name": "distributeRemainingPrizes",
      "outputs": [],
      "stateMutability": "nonpayable",
      "type": "function"
    },
    {
      "inputs": [
        {
          "internalType": "string",
          "name": "_message",
          "type": "string"
        }
      ],
      "name": "fundMarket",
      "outputs": [],
      "stateMutability": "payable",
      "type": "function"
    },
    {
      "inputs": [
        {
          "internalType": "uint256",
          "name": "tokenId",
          "type": "uint256"
        }
      ],
      "name": "getApproved",
      "outputs": [
        {
          "internalType": "address",
          "name": "",
          "type": "address"
        }
      ],
      "stateMutability": "view",
      "type": "function"
    },
    {
      "inputs": [
        {
          "components": [
            {
              "internalType": "uint16",
              "name": "fee",
              "type": "uint16"
            },
            {
              "internalType": "uint16",
              "name": "royaltyFee",
              "type": "uint16"
            },
            {
              "internalType": "address payable",
              "name": "manager",
              "type": "address"
            },
            {
              "internalType": "string",
              "name": "marketName",
              "type": "string"
            },
            {
              "internalType": "string",
              "name": "marketSymbol",
              "type": "string"
            }
          ],
          "internalType": "struct Market.MarketInfo",
          "name": "_marketInfo",
          "type": "tuple"
        },
        {
          "internalType": "address",
          "name": "_nftDescriptor",
          "type": "address"
        },
        {
          "internalType": "address",
          "name": "_realityETH",
          "type": "address"
        },
        {
          "internalType": "uint256",
          "name": "_closingTime",
          "type": "uint256"
        },
        {
          "internalType": "uint256",
          "name": "_price",
          "type": "uint256"
        },
        {
          "internalType": "uint256",
          "name": "_submissionTimeout",
          "type": "uint256"
        },
        {
          "internalType": "bytes32[]",
          "name": "_questionIDs",
          "type": "bytes32[]"
        },
        {
          "internalType": "uint16[]",
          "name": "_prizeWeights",
          "type": "uint16[]"
        }
      ],
      "name": "initialize",
      "outputs": [],
      "stateMutability": "nonpayable",
      "type": "function"
    },
    {
      "inputs": [],
      "name": "initialized",
      "outputs": [
        {
          "internalType": "bool",
          "name": "",
          "type": "bool"
        }
      ],
      "stateMutability": "view",
      "type": "function"
    },
    {
      "inputs": [
        {
          "internalType": "address",
          "name": "owner",
          "type": "address"
        },
        {
          "internalType": "address",
          "name": "operator",
          "type": "address"
        }
      ],
      "name": "isApprovedForAll",
      "outputs": [
        {
          "internalType": "bool",
          "name": "",
          "type": "bool"
        }
      ],
      "stateMutability": "view",
      "type": "function"
    },
    {
      "inputs": [
        {
          "internalType": "uint256",
          "name": "",
          "type": "uint256"
        }
      ],
      "name": "isRanked",
      "outputs": [
        {
          "internalType": "bool",
          "name": "",
          "type": "bool"
        }
      ],
      "stateMutability": "view",
      "type": "function"
    },
    {
      "inputs": [],
      "name": "managementReward",
      "outputs": [
        {
          "internalType": "uint256",
          "name": "",
          "type": "uint256"
        }
      ],
      "stateMutability": "view",
      "type": "function"
    },
    {
      "inputs": [],
      "name": "marketInfo",
      "outputs": [
        {
          "internalType": "uint16",
          "name": "fee",
          "type": "uint16"
        },
        {
          "internalType": "uint16",
          "name": "royaltyFee",
          "type": "uint16"
        },
        {
          "internalType": "address payable",
          "name": "manager",
          "type": "address"
        },
        {
          "internalType": "string",
          "name": "marketName",
          "type": "string"
        },
        {
          "internalType": "string",
          "name": "marketSymbol",
          "type": "string"
        }
      ],
      "stateMutability": "view",
      "type": "function"
    },
    {
      "inputs": [],
      "name": "name",
      "outputs": [
        {
          "internalType": "string",
          "name": "",
          "type": "string"
        }
      ],
      "stateMutability": "view",
      "type": "function"
    },
    {
      "inputs": [],
      "name": "nextTokenID",
      "outputs": [
        {
          "internalType": "uint256",
          "name": "",
          "type": "uint256"
        }
      ],
      "stateMutability": "view",
      "type": "function"
    },
    {
      "inputs": [
        {
          "internalType": "uint256",
          "name": "tokenId",
          "type": "uint256"
        }
      ],
      "name": "ownerOf",
      "outputs": [
        {
          "internalType": "address",
          "name": "",
          "type": "address"
        }
      ],
      "stateMutability": "view",
      "type": "function"
    },
    {
      "inputs": [
        {
          "internalType": "address",
          "name": "_attribution",
          "type": "address"
        },
        {
          "internalType": "bytes32[]",
          "name": "_results",
          "type": "bytes32[]"
        }
      ],
      "name": "placeBet",
      "outputs": [
        {
          "internalType": "uint256",
          "name": "",
          "type": "uint256"
        }
      ],
      "stateMutability": "payable",
      "type": "function"
    },
    {
      "inputs": [],
      "name": "price",
      "outputs": [
        {
          "internalType": "uint256",
          "name": "",
          "type": "uint256"
        }
      ],
      "stateMutability": "view",
      "type": "function"
    },
    {
      "inputs": [
        {
          "internalType": "uint256",
          "name": "",
          "type": "uint256"
        }
      ],
      "name": "prizeWeights",
      "outputs": [
        {
          "internalType": "uint16",
          "name": "",
          "type": "uint16"
        }
      ],
      "stateMutability": "view",
      "type": "function"
    },
    {
      "inputs": [
        {
          "internalType": "uint256",
          "name": "",
          "type": "uint256"
        }
      ],
      "name": "questionIDs",
      "outputs": [
        {
          "internalType": "bytes32",
          "name": "",
          "type": "bytes32"
        }
      ],
      "stateMutability": "view",
      "type": "function"
    },
    {
      "inputs": [],
      "name": "questionsHash",
      "outputs": [
        {
          "internalType": "bytes32",
          "name": "",
          "type": "bytes32"
        }
      ],
      "stateMutability": "view",
      "type": "function"
    },
    {
      "inputs": [
        {
          "internalType": "uint256",
          "name": "",
          "type": "uint256"
        }
      ],
      "name": "ranking",
      "outputs": [
        {
          "internalType": "uint256",
          "name": "tokenID",
          "type": "uint256"
        },
        {
          "internalType": "uint248",
          "name": "points",
          "type": "uint248"
        },
        {
          "internalType": "bool",
          "name": "claimed",
          "type": "bool"
        }
      ],
      "stateMutability": "view",
      "type": "function"
    },
    {
      "inputs": [],
      "name": "realitio",
      "outputs": [
        {
          "internalType": "contract RealityETH_v3_0",
          "name": "",
          "type": "address"
        }
      ],
      "stateMutability": "view",
      "type": "function"
    },
    {
      "inputs": [],
      "name": "registerAvailabilityOfResults",
      "outputs": [],
      "stateMutability": "nonpayable",
      "type": "function"
    },
    {
      "inputs": [
        {
          "internalType": "uint256",
          "name": "_tokenID",
          "type": "uint256"
        },
        {
          "internalType": "uint256",
          "name": "_rankIndex",
          "type": "uint256"
        },
        {
          "internalType": "uint256",
          "name": "_duplicates",
          "type": "uint256"
        }
      ],
      "name": "registerPoints",
      "outputs": [],
      "stateMutability": "nonpayable",
      "type": "function"
    },
    {
      "inputs": [
        {
          "internalType": "uint256",
          "name": "_tokenID",
          "type": "uint256"
        }
      ],
      "name": "reimbursePlayer",
      "outputs": [],
      "stateMutability": "nonpayable",
      "type": "function"
    },
    {
      "inputs": [],
      "name": "resultSubmissionPeriodStart",
      "outputs": [
        {
          "internalType": "uint256",
          "name": "",
          "type": "uint256"
        }
      ],
      "stateMutability": "view",
      "type": "function"
    },
    {
      "inputs": [
        {
          "internalType": "uint256",
          "name": "",
          "type": "uint256"
        },
        {
          "internalType": "uint256",
          "name": "_salePrice",
          "type": "uint256"
        }
      ],
      "name": "royaltyInfo",
      "outputs": [
        {
          "internalType": "address",
          "name": "receiver",
          "type": "address"
        },
        {
          "internalType": "uint256",
          "name": "royaltyAmount",
          "type": "uint256"
        }
      ],
      "stateMutability": "view",
      "type": "function"
    },
    {
      "inputs": [
        {
          "internalType": "address",
          "name": "from",
          "type": "address"
        },
        {
          "internalType": "address",
          "name": "to",
          "type": "address"
        },
        {
          "internalType": "uint256",
          "name": "tokenId",
          "type": "uint256"
        }
      ],
      "name": "safeTransferFrom",
      "outputs": [],
      "stateMutability": "nonpayable",
      "type": "function"
    },
    {
      "inputs": [
        {
          "internalType": "address",
          "name": "from",
          "type": "address"
        },
        {
          "internalType": "address",
          "name": "to",
          "type": "address"
        },
        {
          "internalType": "uint256",
          "name": "tokenId",
          "type": "uint256"
        },
        {
          "internalType": "bytes",
          "name": "_data",
          "type": "bytes"
        }
      ],
      "name": "safeTransferFrom",
      "outputs": [],
      "stateMutability": "nonpayable",
      "type": "function"
    },
    {
      "inputs": [
        {
          "internalType": "address",
          "name": "operator",
          "type": "address"
        },
        {
          "internalType": "bool",
          "name": "approved",
          "type": "bool"
        }
      ],
      "name": "setApprovalForAll",
      "outputs": [],
      "stateMutability": "nonpayable",
      "type": "function"
    },
    {
      "inputs": [],
      "name": "submissionTimeout",
      "outputs": [
        {
          "internalType": "uint256",
          "name": "",
          "type": "uint256"
        }
      ],
      "stateMutability": "view",
      "type": "function"
    },
    {
      "inputs": [
        {
          "internalType": "bytes4",
          "name": "interfaceId",
          "type": "bytes4"
        }
      ],
      "name": "supportsInterface",
      "outputs": [
        {
          "internalType": "bool",
          "name": "",
          "type": "bool"
        }
      ],
      "stateMutability": "view",
      "type": "function"
    },
    {
      "inputs": [],
      "name": "symbol",
      "outputs": [
        {
          "internalType": "string",
          "name": "",
          "type": "string"
        }
      ],
      "stateMutability": "view",
      "type": "function"
    },
    {
      "inputs": [
        {
          "internalType": "uint256",
          "name": "",
          "type": "uint256"
        }
      ],
      "name": "tokenIDtoTokenHash",
      "outputs": [
        {
          "internalType": "bytes32",
          "name": "",
          "type": "bytes32"
        }
      ],
      "stateMutability": "view",
      "type": "function"
    },
    {
      "inputs": [
        {
          "internalType": "uint256",
          "name": "tokenId",
          "type": "uint256"
        }
      ],
      "name": "tokenURI",
      "outputs": [
        {
          "internalType": "string",
          "name": "",
          "type": "string"
        }
      ],
      "stateMutability": "view",
      "type": "function"
    },
    {
      "inputs": [],
      "name": "totalAttributions",
      "outputs": [
        {
          "internalType": "uint256",
          "name": "",
          "type": "uint256"
        }
      ],
      "stateMutability": "view",
      "type": "function"
    },
    {
      "inputs": [],
      "name": "totalPrize",
      "outputs": [
        {
          "internalType": "uint256",
          "name": "",
          "type": "uint256"
        }
      ],
      "stateMutability": "view",
      "type": "function"
    },
    {
      "inputs": [
        {
          "internalType": "address",
          "name": "from",
          "type": "address"
        },
        {
          "internalType": "address",
          "name": "to",
          "type": "address"
        },
        {
          "internalType": "uint256",
          "name": "tokenId",
          "type": "uint256"
        }
      ],
      "name": "transferFrom",
      "outputs": [],
      "stateMutability": "nonpayable",
      "type": "function"
    }
  ],
  "bytecode": "0x60806040523480156200001157600080fd5b50604080516020808201808452600080845284519283019094528382528251929391926200004192919062000060565b5080516200005790600190602084019062000060565b5050506200014d565b8280546200006e906200011c565b90600052602060002090601f016020900481019282620000925760008555620000dd565b82601f10620000ad57805160ff1916838001178555620000dd565b82800160010185558215620000dd579182015b82811115620000dd578251825591602001919060010190620000c0565b50620000eb929150620000ef565b5090565b5b80821115620000eb5760008155600101620000f0565b634e487b7160e01b600052602260045260246000fd5b6002810460018216806200013157607f821691505b6020821081141562000147576200014762000106565b50919050565b613f89806200015d6000396000f3fe60806040526004361061025c5760003560e01c8063a035b1fe11610144578063c4bd8519116100b6578063d1d507ba1161007a578063d1d507ba14610737578063e505abe114610757578063e6aad6a014610777578063e985e9c51461078a578063f101e481146107aa578063f61d2051146107c057600080fd5b8063c4bd85191461069e578063c540f435146106b4578063c87b56dd146106ca578063c902c3ae146106ea578063d0f9d46b1461071757600080fd5b8063b087690c11610108578063b087690c146105cf578063b4e32ed6146105ef578063b88d4fde1461060f578063ba429f381461062f578063bc8802a214610644578063c44889921461067157600080fd5b8063a035b1fe14610516578063a16eff391461052c578063a22cb46514610541578063a6ffc47914610561578063b065a46b1461057757600080fd5b80633f43bc09116101dd5780635fed47cd116101a15780635fed47cd146104685780636352211e1461047b57806370a082311461049b57806382b1ad50146104bb57806395d89b41146104d15780639ed50328146104e657600080fd5b80633f43bc09146103d957806342842e0e1461040657806348fe67f8146104265780634b6753bc1461043c5780635f96a4eb1461045257600080fd5b8063158ef93e11610224578063158ef93e1461032e57806323b872dd146103485780632a55205a146103685780633410fe6e1461039657806337b5b407146103b957600080fd5b806301ffc9a714610261578063031bee001461029757806306fdde03146102bd578063081812fc146102df578063095ea7b31461030c575b600080fd5b34801561026d57600080fd5b5061028161027c36600461274a565b6107ed565b60405161028e9190612775565b60405180910390f35b3480156102a357600080fd5b506102ac610818565b60405161028e959493929190612807565b3480156102c957600080fd5b506102d261095f565b60405161028e9190612860565b3480156102eb57600080fd5b506102ff6102fa366004612882565b6109f4565b60405161028e91906128a3565b34801561031857600080fd5b5061032c6103273660046128c5565b610a4d565b005b34801561033a57600080fd5b50600c546102819060ff1681565b34801561035457600080fd5b5061032c610363366004612902565b610ad3565b34801561037457600080fd5b50610388610383366004612952565b610b04565b60405161028e92919061297a565b3480156103a257600080fd5b506103ac61271081565b60405161028e9190612995565b3480156103c557600080fd5b5061032c6103d43660046129a3565b610b47565b3480156103e557600080fd5b506103f96103f4366004612882565b611055565b60405161028e91906129d8565b34801561041257600080fd5b5061032c610421366004612902565b61108d565b34801561043257600080fd5b506103ac600d5481565b34801561044857600080fd5b506103ac600f5481565b34801561045e57600080fd5b506103ac60135481565b61032c610476366004612a37565b6110a8565b34801561048757600080fd5b506102ff610496366004612882565b611111565b3480156104a757600080fd5b506103ac6104b6366004612a7e565b611146565b3480156104c757600080fd5b506103ac60115481565b3480156104dd57600080fd5b506102d261118a565b3480156104f257600080fd5b50610281610501366004612882565b601a6020526000908152604090205460ff1681565b34801561052257600080fd5b506103ac600e5481565b34801561053857600080fd5b5061032c61119c565b34801561054d57600080fd5b5061032c61055c366004612ab2565b61135b565b34801561056d57600080fd5b506103ac60125481565b34801561058357600080fd5b506105c0610592366004612882565b601860205260009081526040902080546001909101546001600160f81b03811690600160f81b900460ff1683565b60405161028e93929190612af4565b3480156105db57600080fd5b5061032c6105ea3660046129a3565b61136a565b3480156105fb57600080fd5b506009546102ff906001600160a01b031681565b34801561061b57600080fd5b5061032c61062a366004612c15565b611683565b34801561063b57600080fd5b5061032c6116bb565b34801561065057600080fd5b50600a54610664906001600160a01b031681565b60405161028e9190612cd5565b34801561067d57600080fd5b506103ac61068c366004612882565b60196020526000908152604090205481565b3480156106aa57600080fd5b506103ac60105481565b3480156106c057600080fd5b506103ac60145481565b3480156106d657600080fd5b506102d26106e5366004612882565b61192f565b3480156106f657600080fd5b506103ac610705366004612882565b60176020526000908152604090205481565b34801561072357600080fd5b5061032c610732366004612ec9565b6119ea565b34801561074357600080fd5b506103ac610752366004612882565b611c71565b34801561076357600080fd5b5061032c610772366004612882565b611c92565b6103ac610785366004613013565b611d90565b34801561079657600080fd5b506102816107a536600461306e565b611f73565b3480156107b657600080fd5b506103ac600b5481565b3480156107cc57600080fd5b506103ac6107db366004612a7e565b601b6020526000908152604090205481565b60006001600160e01b0319821663152a902d60e11b1480610812575061081282611fa1565b92915050565b600680546007805461ffff808416946201000085049091169364010000000090046001600160a01b031692909161084e906130b7565b80601f016020809104026020016040519081016040528092919081815260200182805461087a906130b7565b80156108c75780601f1061089c576101008083540402835291602001916108c7565b820191906000526020600020905b8154815290600101906020018083116108aa57829003601f168201915b5050505050908060020180546108dc906130b7565b80601f0160208091040260200160405190810160405280929190818152602001828054610908906130b7565b80156109555780601f1061092a57610100808354040283529160200191610955565b820191906000526020600020905b81548152906001019060200180831161093857829003601f168201915b5050505050905085565b606060066001018054610971906130b7565b80601f016020809104026020016040519081016040528092919081815260200182805461099d906130b7565b80156109ea5780601f106109bf576101008083540402835291602001916109ea565b820191906000526020600020905b8154815290600101906020018083116109cd57829003601f168201915b5050505050905090565b6000818152600260205260408120546001600160a01b0316610a315760405162461bcd60e51b8152600401610a2890613130565b60405180910390fd5b506000908152600460205260409020546001600160a01b031690565b6000610a5882611111565b9050806001600160a01b0316836001600160a01b03161415610a8c5760405162461bcd60e51b8152600401610a289061317e565b336001600160a01b0382161480610aa85750610aa88133611f73565b610ac45760405162461bcd60e51b8152600401610a28906131e8565b610ace8383611ff1565b505050565b610add338261205f565b610af95760405162461bcd60e51b8152600401610a2890613246565b610ace8383836120f1565b60065464010000000081046001600160a01b03169060009061271090610b349062010000900461ffff168561326c565b610b3e91906132a1565b90509250929050565b600d54610b665760405162461bcd60e51b8152600401610a28906132ec565b601054600d54610b7691906132fc565b4210610b945760405162461bcd60e51b8152600401610a2890613341565b6000838152600260205260409020546001600160a01b0316610bc85760405162461bcd60e51b8152600401610a289061337c565b6000838152601a602052604090205460ff1615610bf75760405162461bcd60e51b8152600401610a28906133c0565b60008381526019602090815260408083205483526017825280832060010180548251818502810185019093528083529192909190830182828015610c5a57602002820191906000526020600020905b815481526020019060010190808311610c46575b50505050509050600080600090505b601554811015610d5457600a54601580546001600160a01b039092169163ab5a4e35919084908110610c9d57610c9d6133d0565b90600052602060002001546040518263ffffffff1660e01b8152600401610cc49190612995565b60206040518083038186803b158015610cdc57600080fd5b505afa158015610cf0573d6000803e3d6000fd5b505050506040513d601f19601f82011682018060405250810190610d1491906133f1565b838281518110610d2657610d266133d0565b60200260200101511415610d4257610d3f600183613412565b91505b80610d4c81613445565b915050610c69565b506000816001600160f81b031611610d7e5760405162461bcd60e51b8152600401610a289061348b565b831580610db9575060186000610d9560018761349b565b81526020810191909152604001600020600101546001600160f81b03908116908216105b610dd55760405162461bcd60e51b8152600401610a28906134de565b6000848152601860205260409020600101546001600160f81b039081169082161115610ec7576000848152601860205260409020600101546001600160f81b031615610e3f576000848152601860209081526040808320548352601a9091529020805460ff191690555b6000848152601860209081526040808320888155600190810180546001600160f81b0319166001600160f81b038716179055888452601a90925291829020805460ff191690911790555185907f387d01e96a7dce0e6676dd7a6ea815d3160e37ef13867fc6e9ce5fe9be85f40490610eba908490889061350c565b60405180910390a261104e565b6000848152601860205260409020600101546001600160f81b038281169116141561104e576000610ef884866132fc565b6000818152601860205260409020600101549091506001600160f81b0390811690831611610f385760405162461bcd60e51b8152600401610a289061354e565b60186000610f4760018461349b565b81526020810191909152604001600020600101546001600160f81b03838116911614610f855760405162461bcd60e51b8152600401610a289061354e565b6000818152601860205260409020600101546001600160f81b031615610fc9576000818152601860209081526040808320548352601a9091529020805460ff191690555b6000818152601860209081526040808320898155600190810180546001600160f81b0319166001600160f81b038816179055898452601a90925291829020805460ff191690911790555186907f387d01e96a7dce0e6676dd7a6ea815d3160e37ef13867fc6e9ce5fe9be85f40490611044908590859061350c565b60405180910390a2505b5050505050565b6016818154811061106557600080fd5b9060005260206000209060109182820401919006600202915054906101000a900461ffff1681565b610ace83838360405180602001604052806000815250611683565b600d54156110c85760405162461bcd60e51b8152600401610a2890613592565b336001600160a01b03167fc807fd14fab470bd4f9c45995cd7c840c7f3b12d7053c7d38252646bf3229ee7348484604051611105939291906135c5565b60405180910390a25050565b6000818152600260205260408120546001600160a01b0316806108125760405162461bcd60e51b8152600401610a2890613635565b60006001600160a01b03821661116e5760405162461bcd60e51b8152600401610a289061368c565b506001600160a01b031660009081526003602052604090205490565b606060066002018054610971906130b7565b600f5442116111bd5760405162461bcd60e51b8152600401610a28906136bf565b600d54156111dd5760405162461bcd60e51b8152600401610a2890613592565b60005b60155481101561129e57600a54601580546001600160a01b039092169163ab5a4e35919084908110611214576112146133d0565b90600052602060002001546040518263ffffffff1660e01b815260040161123b9190612995565b60206040518083038186803b15801561125357600080fd5b505afa158015611267573d6000803e3d6000fd5b505050506040513d601f19601f8201168201806040525081019061128b91906133f1565b508061129681613445565b9150506111e0565b5042600d556006544790612710906112ba9061ffff168361326c565b6112c491906132a1565b60128190556006546040516401000000009091046001600160a01b0316916108fc811502916000818181858888f193505050505060125481611306919061349b565b6011556006546012546040517f570bc80fd4b457a1b1d4dff8747348996b11f4102074c486a68c305c03ab445692611350926401000000009091046001600160a01b0316916136cf565b60405180910390a150565b611366338383612213565b5050565b600d546113895760405162461bcd60e51b8152600401610a2890613707565b601054600d5461139991906132fc565b42116113b75760405162461bcd60e51b8152600401610a289061374b565b600083815260186020526040902060010154600160f81b900460ff16156113f05760405162461bcd60e51b8152600401610a2890613781565b60008381526018602052604080822060019081015485845291909220909101546001600160f81b039182169116811461143b5760405162461bcd60e51b8152600401610a28906137b9565b6000828152601860205260409020600101546001600160f81b038281169116146114775760405162461bcd60e51b8152600401610a28906137ef565b601860006114868460016132fc565b81526020810191909152604001600020600101546001600160f81b03908116908216116114c55760405162461bcd60e51b8152600401610a28906137ef565b8215806115005750601860006114dc60018661349b565b81526020810191909152604001600020600101546001600160f81b03908116908216105b61151c5760405162461bcd60e51b8152600401610a28906137b9565b6000611528848461349b565b6115339060016132fc565b90506000845b6016548110801561154a5750848111155b156115a05760168181548110611562576115626133d0565b6000918252602090912060108204015461158c91600f166002026101000a900461ffff16836132fc565b91508061159881613445565b915050611539565b5060006115af8361271061326c565b826011546115bd919061326c565b6115c791906132a1565b60008881526018602052604090206001810180546001600160f81b0316600160f81b179055549091506115f990611111565b6001600160a01b03166108fc829081150290604051600060405180830381858888f19350505050158015611631573d6000803e3d6000fd5b50600087815260186020526040908190205490517fb56bcf9b81f1074a6e4ee5392142a090346ffa9eccb4b9ce6c2b64373393c03890611672908490612995565b60405180910390a250505050505050565b61168d338361205f565b6116a95760405162461bcd60e51b8152600401610a2890613246565b6116b5848484846122b6565b50505050565b600d546116da5760405162461bcd60e51b8152600401610a2890613707565b601054600d546116ea91906132fc565b42116117085760405162461bcd60e51b8152600401610a289061374b565b6000805260186020527f999d26de3473317ead3eeaf34ca78057f1439db67b6953469c3c96ce9caf6bd8546001600160f81b03166117585760405162461bcd60e51b8152600401610a2890613820565b60008060005b601654811015611840576000818152601860205260409020600101546001600160f81b031661182e5781611790578091505b600081815260186020526040902060010154600160f81b900460ff16156117c95760405162461bcd60e51b8152600401610a2890613781565b600081815260186020526040902060010180546001600160f81b0316600160f81b1790556016805482908110611801576118016133d0565b6000918252602090912060108204015461182b91600f166002026101000a900461ffff16846132fc565b92505b8061183881613445565b91505061175e565b50600082116118615760405162461bcd60e51b8152600401610a2890613857565b600061186f8261271061326c565b8360115461187d919061326c565b61188791906132a1565b905060005b828110156116b5576000818152601860205260409020546118ac90611111565b6001600160a01b03166108fc839081150290604051600060405180830381858888f1505050600083815260186020526040908190205490519092507fb56bcf9b81f1074a6e4ee5392142a090346ffa9eccb4b9ce6c2b64373393c0389150611915908590612995565b60405180910390a28061192781613445565b91505061188c565b6000818152600260205260409020546060906001600160a01b03166119665760405162461bcd60e51b8152600401610a28906138b3565b60095460405163c87b56dd60e01b81526001600160a01b039091169063c87b56dd90611996908590600401612995565b60006040518083038186803b1580156119ae57600080fd5b505afa1580156119c2573d6000803e3d6000fd5b505050506040513d6000823e601f3d908101601f19168201604052610812919081019061391b565b600c5460ff1615611a0d5760405162461bcd60e51b8152600401610a2890613980565b612710886000015161ffff1610611a365760405162461bcd60e51b8152600401610a28906139bd565b612710886020015161ffff1610611a5f5760405162461bcd60e51b8152600401610a28906139f7565b8751600680546020808c015160408d01516001600160a01b031664010000000002640100000000600160c01b031961ffff928316620100000263ffffffff199095169290961691909117929092179390931617815560608a015180518b93611acc92600792910190612573565b5060808201518051611ae8916002840191602090910190612573565b5050600980546001600160a01b03808b166001600160a01b031992831617909255600a8054928a169290911691909117905550600f859055600e8490556010839055604051611b3b908390602001613a5d565b60408051601f1981840301815291905280516020918201206014558251611b6891601591908501906125f7565b506000805b8251811015611bb357828181518110611b8857611b886133d0565b602002602001015161ffff1682611b9f91906132fc565b915080611bab81613445565b915050611b6d565b506127108114611bd55760405162461bcd60e51b8152600401610a2890613a8f565b8151611be8906016906020850190612631565b50600c805460ff191660011790556040517f45bb3a3f94901a37acca80add57516aee10ae808cdb84bf416db2aaa94eba3be90611c2790601590613afb565b60405180910390a17f2a88acbd189cb4036081b368b1750a0ad1c9407d4f61bed09d3383ebdeb833a882604051611c5e9190613b56565b60405180910390a1505050505050505050565b60158181548110611c8157600080fd5b600091825260209091200154905081565b600d54611cb15760405162461bcd60e51b8152600401610a2890613707565b601054600d54611cc191906132fc565b4211611cdf5760405162461bcd60e51b8152600401610a289061374b565b6000805260186020527f999d26de3473317ead3eeaf34ca78057f1439db67b6953469c3c96ce9caf6bd8546001600160f81b031615611d305760405162461bcd60e51b8152600401610a2890613ba8565b6000600b54601154611d4291906132a1565b90506000611d4f83611111565b9050611d5a836122e9565b6040516001600160a01b0382169083156108fc029084906000818181858888f193505050501580156116b5573d6000803e3d6000fd5b6000600e543414611db35760405162461bcd60e51b8152600401610a2890613bdf565b6015548214611dd45760405162461bcd60e51b8152600401610a2890613c16565b600f544210611df55760405162461bcd60e51b8152600401610a2890613c4d565b6001600160a01b03841615611e81576001600160a01b0384166000908152601b60205260408120805460019290611e2d9084906132fc565b92505081905550600160136000828254611e4791906132fc565b90915550506040516001600160a01b038516907fac77d41eee650966c9a2ee1573e181067be01d999bee19884df83a2392d3d3ed90600090a25b60008383604051602001611e96929190613c91565b60408051601f198184030181529181528151602092830120600b5460009081526019845282812082905581815260179093529120805491925090611ee457611ee26001820186866126d5565b505b6001816000016000828254611ef991906132fc565b92505081905550611f0c33600b54612384565b81600b54336001600160a01b03167f33877d0ba97f9766c95c7a951f989264217eb0207fce76c0dca350c6b43c310c8888604051611f4b929190613cac565b60405180910390a4600b8054906000611f6383613445565b91905055925050505b9392505050565b6001600160a01b03918216600090815260056020908152604080832093909416825291909152205460ff1690565b60006001600160e01b031982166380ac58cd60e01b1480611fd257506001600160e01b03198216635b5e139f60e01b145b8061081257506301ffc9a760e01b6001600160e01b0319831614610812565b600081815260046020526040902080546001600160a01b0319166001600160a01b038416908117909155819061202682611111565b6001600160a01b03167f8c5be1e5ebec7d5bd14f71427d1e84f3dd0314c0f7b2291e5b200ac8c7c3b92560405160405180910390a45050565b6000818152600260205260408120546001600160a01b03166120935760405162461bcd60e51b8152600401610a2890613d07565b600061209e83611111565b9050806001600160a01b0316846001600160a01b031614806120d95750836001600160a01b03166120ce846109f4565b6001600160a01b0316145b806120e957506120e98185611f73565b949350505050565b826001600160a01b031661210482611111565b6001600160a01b03161461212a5760405162461bcd60e51b8152600401610a2890613d59565b6001600160a01b0382166121505760405162461bcd60e51b8152600401610a2890613daa565b61215b600082611ff1565b6001600160a01b038316600090815260036020526040812080546001929061218490849061349b565b90915550506001600160a01b03821660009081526003602052604081208054600192906121b29084906132fc565b909155505060008181526002602052604080822080546001600160a01b0319166001600160a01b0386811691821790925591518493918716917fddf252ad1be2c89b69c2b068fc378daa952ba7f163c4a11628f55a4df523b3ef91a4505050565b816001600160a01b0316836001600160a01b031614156122455760405162461bcd60e51b8152600401610a2890613dee565b6001600160a01b0383811660008181526005602090815260408083209487168084529490915290819020805460ff1916851515179055517f17307eab39ab6107e8899845ad3d59bd9653f200f220920489ca2b5937696c31906122a9908590612775565b60405180910390a3505050565b6122c18484846120f1565b6122cd84848484612466565b6116b55760405162461bcd60e51b8152600401610a2890613e4d565b60006122f482611111565b9050612301600083611ff1565b6001600160a01b038116600090815260036020526040812080546001929061232a90849061349b565b909155505060008281526002602052604080822080546001600160a01b0319169055518391906001600160a01b038416907fddf252ad1be2c89b69c2b068fc378daa952ba7f163c4a11628f55a4df523b3ef908390a45050565b6001600160a01b0382166123aa5760405162461bcd60e51b8152600401610a2890613e8f565b6000818152600260205260409020546001600160a01b0316156123df5760405162461bcd60e51b8152600401610a2890613ed3565b6001600160a01b03821660009081526003602052604081208054600192906124089084906132fc565b909155505060008181526002602052604080822080546001600160a01b0319166001600160a01b03861690811790915590518392907fddf252ad1be2c89b69c2b068fc378daa952ba7f163c4a11628f55a4df523b3ef908290a45050565b60006001600160a01b0384163b1561256857604051630a85bd0160e11b81526001600160a01b0385169063150b7a02906124aa903390899088908890600401613ee3565b602060405180830381600087803b1580156124c457600080fd5b505af19250505080156124f4575060408051601f3d908101601f191682019092526124f191810190613f32565b60015b61254e573d808015612522576040519150601f19603f3d011682016040523d82523d6000602084013e612527565b606091505b5080516125465760405162461bcd60e51b8152600401610a2890613e4d565b805181602001fd5b6001600160e01b031916630a85bd0160e11b1490506120e9565b506001949350505050565b82805461257f906130b7565b90600052602060002090601f0160209004810192826125a157600085556125e7565b82601f106125ba57805160ff19168380011785556125e7565b828001600101855582156125e7579182015b828111156125e75782518255916020019190600101906125cc565b506125f3929150612710565b5090565b8280548282559060005260206000209081019282156125e757916020028201828111156125e75782518255916020019190600101906125cc565b82805482825590600052602060002090600f016010900481019282156125e75791602002820160005b8382111561269a57835183826101000a81548161ffff021916908361ffff160217905550926020019260020160208160010104928301926001030261265a565b80156126c85782816101000a81549061ffff021916905560020160208160010104928301926001030261269a565b50506125f3929150612710565b8280548282559060005260206000209081019282156125e7579160200282015b828111156125e75782358255916020019190600101906126f5565b5b808211156125f35760008155600101612711565b6001600160e01b031981165b811461273c57600080fd5b50565b803561081281612725565b60006020828403121561275f5761275f600080fd5b60006120e9848461273f565b8015155b82525050565b60208101610812828461276b565b61ffff811661276f565b60006001600160a01b038216610812565b61276f8161278d565b60005b838110156127c25781810151838201526020016127aa565b838111156116b55750506000910152565b60006127dd825190565b8084526020840193506127f48185602086016127a7565b601f19601f8201165b9093019392505050565b60a081016128158288612783565b6128226020830187612783565b61282f604083018661279e565b818103606083015261284181856127d3565b9050818103608083015261285581846127d3565b979650505050505050565b60208082528101611f6c81846127d3565b80612731565b803561081281612871565b60006020828403121561289757612897600080fd5b60006120e98484612877565b60208101610812828461279e565b6127318161278d565b8035610812816128b1565b600080604083850312156128db576128db600080fd5b60006128e785856128ba565b92505060206128f885828601612877565b9150509250929050565b60008060006060848603121561291a5761291a600080fd5b600061292686866128ba565b9350506020612937868287016128ba565b925050604061294886828701612877565b9150509250925092565b6000806040838503121561296857612968600080fd5b60006128e78585612877565b8061276f565b60408101612988828561279e565b611f6c6020830184612974565b602081016108128284612974565b6000806000606084860312156129bb576129bb600080fd5b60006129c78686612877565b935050602061293786828701612877565b602081016108128284612783565b60008083601f8401126129fb576129fb600080fd5b5081356001600160401b03811115612a1557612a15600080fd5b602083019150836001820283011115612a3057612a30600080fd5b9250929050565b60008060208385031215612a4d57612a4d600080fd5b82356001600160401b03811115612a6657612a66600080fd5b612a72858286016129e6565b92509250509250929050565b600060208284031215612a9357612a93600080fd5b60006120e984846128ba565b801515612731565b803561081281612a9f565b60008060408385031215612ac857612ac8600080fd5b6000612ad485856128ba565b92505060206128f885828601612aa7565b6001600160f81b03811661276f565b60608101612b028286612974565b612b0f6020830185612ae5565b6120e9604083018461276b565b634e487b7160e01b600052604160045260246000fd5b601f19601f83011681018181106001600160401b0382111715612b5757612b57612b1c565b6040525050565b6000612b6960405190565b9050612b758282612b32565b919050565b60006001600160401b03821115612b9357612b93612b1c565b601f19601f83011660200192915050565b82818337506000910152565b6000612bc3612bbe84612b7a565b612b5e565b905082815260208101848484011115612bde57612bde600080fd5b612be9848285612ba4565b509392505050565b600082601f830112612c0557612c05600080fd5b81356120e9848260208601612bb0565b60008060008060808587031215612c2e57612c2e600080fd5b6000612c3a87876128ba565b9450506020612c4b878288016128ba565b9350506040612c5c87828801612877565b92505060608501356001600160401b03811115612c7b57612c7b600080fd5b612c8787828801612bf1565b91505092959194509250565b60006108126001600160a01b038316612caa565b90565b6001600160a01b031690565b600061081282612c93565b600061081282612cb6565b61276f81612cc1565b602081016108128284612ccc565b61ffff8116612731565b803561081281612ce3565b600060a08284031215612d0d57612d0d600080fd5b612d1760a0612b5e565b90506000612d258484612ced565b8252506020612d3684848301612ced565b6020830152506040612d4a848285016128ba565b60408301525060608201356001600160401b03811115612d6c57612d6c600080fd5b612d7884828501612bf1565b60608301525060808201356001600160401b03811115612d9a57612d9a600080fd5b612da684828501612bf1565b60808301525092915050565b60006001600160401b03821115612dcb57612dcb612b1c565b5060209081020190565b6000612de3612bbe84612db2565b83815290506020808201908402830185811115612e0257612e02600080fd5b835b81811015612e265780612e178882612877565b84525060209283019201612e04565b5050509392505050565b600082601f830112612e4457612e44600080fd5b81356120e9848260208601612dd5565b6000612e62612bbe84612db2565b83815290506020808201908402830185811115612e8157612e81600080fd5b835b81811015612e265780612e968882612ced565b84525060209283019201612e83565b600082601f830112612eb957612eb9600080fd5b81356120e9848260208601612e54565b600080600080600080600080610100898b031215612ee957612ee9600080fd5b88356001600160401b03811115612f0257612f02600080fd5b612f0e8b828c01612cf8565b9850506020612f1f8b828c016128ba565b9750506040612f308b828c016128ba565b9650506060612f418b828c01612877565b9550506080612f528b828c01612877565b94505060a0612f638b828c01612877565b93505060c08901356001600160401b03811115612f8257612f82600080fd5b612f8e8b828c01612e30565b92505060e08901356001600160401b03811115612fad57612fad600080fd5b612fb98b828c01612ea5565b9150509295985092959890939650565b60008083601f840112612fde57612fde600080fd5b5081356001600160401b03811115612ff857612ff8600080fd5b602083019150836020820283011115612a3057612a30600080fd5b60008060006040848603121561302b5761302b600080fd5b600061303786866128ba565b93505060208401356001600160401b0381111561305657613056600080fd5b61306286828701612fc9565b92509250509250925092565b6000806040838503121561308457613084600080fd5b600061309085856128ba565b92505060206128f8858286016128ba565b634e487b7160e01b600052602260045260246000fd5b6002810460018216806130cb57607f821691505b602082108114156130de576130de6130a1565b50919050565b602c81526000602082017f4552433732313a20617070726f76656420717565727920666f72206e6f6e657881526b34b9ba32b73a103a37b5b2b760a11b602082015291505b5060400190565b60208082528101610812816130e4565b602181526000602082017f4552433732313a20617070726f76616c20746f2063757272656e74206f776e658152603960f91b60208201529150613129565b6020808252810161081281613140565b603881526000602082017f4552433732313a20617070726f76652063616c6c6572206973206e6f74206f7781527f6e6572206e6f7220617070726f76656420666f7220616c6c000000000000000060208201529150613129565b602080825281016108128161318e565b603181526000602082017f4552433732313a207472616e736665722063616c6c6572206973206e6f74206f8152701ddb995c881b9bdc88185c1c1c9bdd9959607a1b60208201529150613129565b60208082528101610812816131f8565b634e487b7160e01b600052601160045260246000fd5b600081600019048311821515161561328657613286613256565b500290565b634e487b7160e01b600052601260045260246000fd5b6000826132b0576132b061328b565b500490565b601881526000602082017f4e6f7420696e207375626d697373696f6e20706572696f640000000000000000815291505b5060200190565b60208082528101610812816132b5565b6000821982111561330f5761330f613256565b500190565b601681526000602082017529bab136b4b9b9b4b7b7103832b934b7b21037bb32b960511b815291506132e5565b6020808252810161081281613314565b6014815260006020820173151bdad95b88191bd95cc81b9bdd08195e1a5cdd60621b815291506132e5565b6020808252810161081281613351565b601881526000602082017f546f6b656e20616c726561647920726567697374657265640000000000000000815291506132e5565b602080825281016108128161338c565b634e487b7160e01b600052603260045260246000fd5b805161081281612871565b60006020828403121561340657613406600080fd5b60006120e984846133e6565b60006001600160f81b03821691506001600160f81b0383169250826001600160f81b030382111561330f5761330f613256565b600060001982141561345957613459613256565b5060010190565b60148152600060208201732cb7ba9030b932903737ba1030903bb4b73732b960611b815291506132e5565b6020808252810161081281613460565b6000828210156134ad576134ad613256565b500390565b6015815260006020820174092dcecc2d8d2c840e4c2dcd6d2dcce40d2dcc8caf605b1b815291506132e5565b60208082528101610812816134b2565b6000610812612ca76001600160f81b03841681565b61276f816134ee565b604081016129888285613503565b601881526000602082017f57726f6e67205f6475706c69636174657320616d6f756e740000000000000000815291506132e5565b602080825281016108128161351a565b601981526000602082017f526573756c747320616c726561647920617661696c61626c6500000000000000815291506132e5565b602080825281016108128161355e565b81835260006020840193506135b8838584612ba4565b601f19601f8401166127fd565b604081016135d38286612974565b81810360208301526135e68184866135a2565b95945050505050565b602981526000602082017f4552433732313a206f776e657220717565727920666f72206e6f6e657869737481526832b73a103a37b5b2b760b91b60208201529150613129565b60208082528101610812816135ef565b602a81526000602082017f4552433732313a2062616c616e636520717565727920666f7220746865207a65815269726f206164647265737360b01b60208201529150613129565b6020808252810161081281613645565b600c81526000602082016b42657473206f6e676f696e6760a01b815291506132e5565b602080825281016108128161369c565b604081016129888285612ccc565b6013815260006020820172139bdd081a5b8818db185a5b481c195c9a5bd9606a1b815291506132e5565b60208082528101610812816136dd565b601a81526000602082017f5375626d697373696f6e20706572696f64206e6f74206f766572000000000000815291506132e5565b6020808252810161081281613717565b600f81526000602082016e105b1c9958591e4818db185a5b5959608a1b815291506132e5565b602080825281016108128161375b565b60118152600060208201700aee4dedcce40e6e8c2e4e840d2dcc8caf607b1b815291506132e5565b6020808252810161081281613791565b600f81526000602082016e0aee4dedcce40cadcc840d2dcc8caf608b1b815291506132e5565b60208082528101610812816137c9565b600a8152600060208201694e6f2077696e6e65727360b01b815291506132e5565b60208082528101610812816137ff565b601081526000602082016f4e6f20766163616e74207072697a657360801b815291506132e5565b6020808252810161081281613830565b602f81526000602082017f4552433732314d657461646174613a2055524920717565727920666f72206e6f81526e3732bc34b9ba32b73a103a37b5b2b760891b60208201529150613129565b6020808252810161081281613867565b60006138d1612bbe84612b7a565b9050828152602081018484840111156138ec576138ec600080fd5b612be98482856127a7565b600082601f83011261390b5761390b600080fd5b81516120e98482602086016138c3565b60006020828403121561393057613930600080fd5b81516001600160401b0381111561394957613949600080fd5b6120e9848285016138f7565b601481526000602082017320b63932b0b23c9034b734ba34b0b634bd32b21760611b815291506132e5565b6020808252810161081281613955565b60168152600060208201754d616e6167656d656e742066656520746f6f2062696760501b815291506132e5565b6020808252810161081281613990565b6013815260006020820172526f79616c74792066656520746f6f2062696760681b815291506132e5565b60208082528101610812816139cd565b6000613a138383612974565b505060200190565b6000613a25825190565b602083018060005b83811015613a52578151613a418882613a07565b975060208301925050600101613a2d565b509495945050505050565b6000611f6c8284613a1b565b600f81526000602082016e496e76616c6964207765696768747360881b815291506132e5565b6020808252810161081281613a69565b600081610812565b60006108128254613a9f565b6000613abd825490565b808452600083815260208082209501949081905b83811015613a5257613ae282613aa7565b613aec8882613a07565b97505060019182019101613ad1565b60208082528101611f6c8184613ab3565b6000613a138383612783565b6000613b22825190565b80845260209384019383018060005b83811015613a52578151613b458882613b0c565b975060208301925050600101613b31565b60208082528101611f6c8184613b18565b602481526000602082017f43616e2774207265696d6275727365206966207468657265206172652077696e8152636e65727360e01b60208201529150613129565b6020808252810161081281613b67565b601081526000602082016f15dc9bdb99c81d985b1d59481cd95b9d60821b815291506132e5565b6020808252810161081281613bb8565b601081526000602082016f0a4cae6ead8e8e640dad2e6dac2e8c6d60831b815291506132e5565b6020808252810161081281613bef565b601081526000602082016f10995d1cc81b9bdd08185b1b1bddd95960821b815291506132e5565b6020808252810161081281613c26565b6000835b93506001600160fb1b03831115613c7a57613c7a600080fd5b602083029250613c8b838584612ba4565b50500190565b60006120e9828486613c5d565b818352600060208401613c61565b602080825281016120e9818486613c9e565b602c81526000602082017f4552433732313a206f70657261746f7220717565727920666f72206e6f6e657881526b34b9ba32b73a103a37b5b2b760a11b60208201529150613129565b6020808252810161081281613cbe565b602581526000602082017f4552433732313a207472616e736665722066726f6d20696e636f72726563742081526437bbb732b960d91b60208201529150613129565b6020808252810161081281613d17565b602481526000602082017f4552433732313a207472616e7366657220746f20746865207a65726f206164648152637265737360e01b60208201529150613129565b6020808252810161081281613d69565b601981526000602082017f4552433732313a20617070726f766520746f2063616c6c657200000000000000815291506132e5565b6020808252810161081281613dba565b603281526000602082017f4552433732313a207472616e7366657220746f206e6f6e20455243373231526581527131b2b4bb32b91034b6b83632b6b2b73a32b960711b60208201529150613129565b6020808252810161081281613dfe565b60208082527f4552433732313a206d696e7420746f20746865207a65726f2061646472657373910190815260006132e5565b6020808252810161081281613e5d565b601c81526000602082017f4552433732313a20746f6b656e20616c7265616479206d696e74656400000000815291506132e5565b6020808252810161081281613e9f565b60808101613ef1828761279e565b613efe602083018661279e565b613f0b6040830185612974565b8181036060830152613f1d81846127d3565b9695505050505050565b805161081281612725565b600060208284031215613f4757613f47600080fd5b60006120e98484613f2756fea2646970667358221220e1e6f498f062a9102bb05d29e49be900ecc6131de58d790af852c37d5ab0172a64736f6c63430008090033",
  "linkReferences": {},
  "deployedLinkReferences": {}
}