{
  "_format": "hh-sol-artifact-1",
  "contractName": "MarketFactory",
  "sourceName": "contracts/MarketFactory.sol",
  "abi": [
    {
      "inputs": [
        {
          "internalType": "address",
          "name": "_market",
          "type": "address"
        },
        {
          "internalType": "address",
          "name": "_arbitrator",
          "type": "address"
        },
        {
          "internalType": "address",
          "name": "_realitio",
          "type": "address"
        },
        {
          "internalType": "address",
          "name": "_nftDescriptor",
          "type": "address"
        },
        {
          "internalType": "address",
          "name": "_manager",
          "type": "address"
        },
        {
          "internalType": "address",
          "name": "_governor",
          "type": "address"
        },
        {
          "internalType": "address",
          "name": "_protocolTraesury",
          "type": "address"
        },
        {
          "internalType": "uint256",
          "name": "_protocolFee",
          "type": "uint256"
        },
        {
          "internalType": "uint256",
          "name": "_submissionTimeout",
          "type": "uint256"
        }
      ],
      "stateMutability": "nonpayable",
      "type": "constructor"
    },
    {
      "anonymous": false,
      "inputs": [
        {
          "indexed": true,
          "internalType": "address",
          "name": "market",
          "type": "address"
        },
        {
          "indexed": true,
          "internalType": "bytes32",
          "name": "hash",
          "type": "bytes32"
        },
        {
          "indexed": false,
          "internalType": "address",
          "name": "manager",
          "type": "address"
        }
      ],
      "name": "NewMarket",
      "type": "event"
    },
    {
      "inputs": [],
      "name": "QUESTION_TIMEOUT",
      "outputs": [
        {
          "internalType": "uint32",
          "name": "",
          "type": "uint32"
        }
      ],
      "stateMutability": "view",
      "type": "function"
    },
    {
      "inputs": [],
      "name": "allMarkets",
      "outputs": [
        {
          "internalType": "contract Market[]",
          "name": "",
          "type": "address[]"
        }
      ],
      "stateMutability": "view",
      "type": "function"
    },
    {
      "inputs": [],
      "name": "arbitrator",
      "outputs": [
        {
          "internalType": "address",
          "name": "",
          "type": "address"
        }
      ],
      "stateMutability": "view",
      "type": "function"
    },
    {
      "inputs": [
        {
          "internalType": "address",
          "name": "_governor",
          "type": "address"
        }
      ],
      "name": "changeGovernor",
      "outputs": [],
      "stateMutability": "nonpayable",
      "type": "function"
    },
    {
      "inputs": [
        {
          "internalType": "address",
          "name": "_manager",
          "type": "address"
        }
      ],
      "name": "changeManager",
      "outputs": [],
      "stateMutability": "nonpayable",
      "type": "function"
    },
    {
      "inputs": [
        {
          "internalType": "uint256",
          "name": "_protocolFee",
          "type": "uint256"
        }
      ],
      "name": "changeProtocolFee",
      "outputs": [],
      "stateMutability": "nonpayable",
      "type": "function"
    },
    {
      "inputs": [
        {
          "internalType": "address",
          "name": "_protocolTraesury",
          "type": "address"
        }
      ],
      "name": "changeProtocolTreasury",
      "outputs": [],
      "stateMutability": "nonpayable",
      "type": "function"
    },
    {
      "inputs": [
        {
          "internalType": "string",
          "name": "marketName",
          "type": "string"
        },
        {
          "internalType": "string",
          "name": "marketSymbol",
          "type": "string"
        },
        {
          "internalType": "address",
          "name": "creator",
          "type": "address"
        },
        {
          "internalType": "uint256",
          "name": "creatorFee",
          "type": "uint256"
        },
        {
          "internalType": "uint256",
          "name": "closingTime",
          "type": "uint256"
        },
        {
          "internalType": "uint256",
          "name": "price",
          "type": "uint256"
        },
        {
          "internalType": "uint256",
          "name": "minBond",
          "type": "uint256"
        },
        {
          "components": [
            {
              "internalType": "uint256",
              "name": "templateID",
              "type": "uint256"
            },
            {
              "internalType": "string",
              "name": "question",
              "type": "string"
            },
            {
              "internalType": "uint32",
              "name": "openingTS",
              "type": "uint32"
            }
          ],
          "internalType": "struct MarketFactory.RealitioQuestion[]",
          "name": "questionsData",
          "type": "tuple[]"
        },
        {
          "internalType": "uint16[]",
          "name": "prizeWeights",
          "type": "uint16[]"
        }
      ],
      "name": "createMarket",
      "outputs": [
        {
          "internalType": "address",
          "name": "",
          "type": "address"
        }
      ],
      "stateMutability": "nonpayable",
      "type": "function"
    },
    {
      "inputs": [],
      "name": "governor",
      "outputs": [
        {
          "internalType": "address",
          "name": "",
          "type": "address"
        }
      ],
      "stateMutability": "view",
      "type": "function"
    },
    {
      "inputs": [],
      "name": "manager",
      "outputs": [
        {
          "internalType": "address",
          "name": "",
          "type": "address"
        }
      ],
      "stateMutability": "view",
      "type": "function"
    },
    {
      "inputs": [],
      "name": "market",
      "outputs": [
        {
          "internalType": "address",
          "name": "",
          "type": "address"
        }
      ],
      "stateMutability": "view",
      "type": "function"
    },
    {
      "inputs": [],
      "name": "marketCount",
      "outputs": [
        {
          "internalType": "uint256",
          "name": "",
          "type": "uint256"
        }
      ],
      "stateMutability": "view",
      "type": "function"
    },
    {
      "inputs": [
        {
          "internalType": "uint256",
          "name": "",
          "type": "uint256"
        }
      ],
      "name": "markets",
      "outputs": [
        {
          "internalType": "contract Market",
          "name": "",
          "type": "address"
        }
      ],
      "stateMutability": "view",
      "type": "function"
    },
    {
      "inputs": [],
      "name": "nftDescriptor",
      "outputs": [
        {
          "internalType": "address",
          "name": "",
          "type": "address"
        }
      ],
      "stateMutability": "view",
      "type": "function"
    },
    {
      "inputs": [],
      "name": "protocolFee",
      "outputs": [
        {
          "internalType": "uint256",
          "name": "",
          "type": "uint256"
        }
      ],
      "stateMutability": "view",
      "type": "function"
    },
    {
      "inputs": [],
      "name": "protocolTraesury",
      "outputs": [
        {
          "internalType": "address",
          "name": "",
          "type": "address"
        }
      ],
      "stateMutability": "view",
      "type": "function"
    },
    {
      "inputs": [],
      "name": "realitio",
      "outputs": [
        {
          "internalType": "address",
          "name": "",
          "type": "address"
        }
      ],
      "stateMutability": "view",
      "type": "function"
    },
    {
      "inputs": [],
      "name": "submissionTimeout",
      "outputs": [
        {
          "internalType": "uint256",
          "name": "",
          "type": "uint256"
        }
      ],
      "stateMutability": "view",
      "type": "function"
    }
  ],
  "bytecode": "0x6101206040523480156200001257600080fd5b5060405162001958380380620019588339810160408190526200003591620000e7565b6001600160a01b0398891660805296881660a05294871660c05292861660e052600380549287166001600160a01b031993841617905560018054918716918316919091179055600280549290951691161790925560049190915561010052620001c2565b60006001600160a01b0382165b92915050565b620000b78162000099565b8114620000c357600080fd5b50565b8051620000a681620000ac565b80620000b7565b8051620000a681620000d3565b60008060008060008060008060006101208a8c0312156200010b576200010b600080fd5b6000620001198c8c620000c6565b99505060206200012c8c828d01620000c6565b98505060406200013f8c828d01620000c6565b9750506060620001528c828d01620000c6565b9650506080620001658c828d01620000c6565b95505060a0620001788c828d01620000c6565b94505060c06200018b8c828d01620000c6565b93505060e06200019e8c828d01620000da565b925050610100620001b28c828d01620000da565b9150509295985092959850929598565b60805160a05160c05160e0516101005161171262000246600039600081816102a8015261062f01526000818161017101526105eb0152600081816102810152818161060c0152818161097e015281816109e50152610aa00152600081816101d5015281816109580152610ad10152600081816101fc015261036201526117126000f3fe608060405234801561001057600080fd5b50600436106101165760003560e01c8063974dfdb9116100a2578063bc8802a211610071578063bc8802a21461027c578063c4bd8519146102a3578063e4c0aaf4146102ca578063ec979082146102dd578063fe687475146102e557600080fd5b8063974dfdb91461021e578063a3fbbaae14610233578063b0e21e8a14610246578063b1283e771461025c57600080fd5b8063481c6a75116100e9578063481c6a75146101935780634a3382e5146101a6578063549a71f3146101bd5780636cc6cde1146101d057806380f55605146101f757600080fd5b80630c340a241461011b5780633664fdce14610144578063375a7cba14610157578063442675701461016c575b600080fd5b60015461012e906001600160a01b031681565b60405161013b9190610b83565b60405180910390f35b60025461012e906001600160a01b031681565b61015f6102f8565b60405161013b9190610c30565b61012e7f000000000000000000000000000000000000000000000000000000000000000081565b60035461012e906001600160a01b031681565b6101b06201fa4081565b60405161013b9190610c54565b61012e6101cb366004610f6d565b61035a565b61012e7f000000000000000000000000000000000000000000000000000000000000000081565b61012e7f000000000000000000000000000000000000000000000000000000000000000081565b61023161022c36600461109f565b610766565b005b61023161024136600461109f565b6107b2565b61024f60045481565b60405161013b91906110c6565b61026f61026a3660046110d4565b6107fe565b60405161013b91906110f5565b61012e7f000000000000000000000000000000000000000000000000000000000000000081565b61024f7f000000000000000000000000000000000000000000000000000000000000000081565b6102316102d836600461109f565b610828565b60005461024f565b6102316102f33660046110d4565b610874565b6060600080548060200260200160405190810160405280929190818152602001828054801561035057602002820191906000526020600020905b81546001600160a01b03168152600190910190602001808311610332575b5050505050905090565b60008061038f7f00000000000000000000000000000000000000000000000000000000000000006001600160a01b03166108a3565b90506000845167ffffffffffffffff8111156103ad576103ad610c62565b6040519080825280602002602001820160405280156103d6578160200160208202803683370190505b5090506000805b86518110156104ac57898782815181106103f9576103f9611103565b60200260200101516040015163ffffffff16116104315760405162461bcd60e51b815260040161042890611119565b60405180910390fd5b600061045688838151811061044857610448611103565b60200260200101518a610917565b9050828110156104785760405162461bcd60e51b81526004016104289061119c565b8092508084838151811061048e5761048e611103565b602090810291909101015250806104a4816111c2565b9150506103dd565b50506003546000906104c6906001600160a01b03166108a3565b9050806001600160a01b031663e251d7be8c8c600260009054906101000a90046001600160a01b0316600454886040518663ffffffff1660e01b81526004016105139594939291906111dd565b600060405180830381600087803b15801561052d57600080fd5b505af1158015610541573d6000803e3d6000fd5b50506040805160a081018252600080825260208201819052918101919091526060808201819052608082015291506105769050565b606081018e9052608081018d9052600454610592908c90611229565b816000019061ffff16908161ffff1681525050600454816020019061ffff16908161ffff16815250508181604001906001600160a01b031690816001600160a01b031681525050836001600160a01b031663d0f9d46b827f00000000000000000000000000000000000000000000000000000000000000007f00000000000000000000000000000000000000000000000000000000000000008e8e7f00000000000000000000000000000000000000000000000000000000000000008a8e6040518963ffffffff1660e01b81526004016106739897969594939291906113b6565b600060405180830381600087803b15801561068d57600080fd5b505af11580156106a1573d6000803e3d6000fd5b50505050826040516020016106b69190611476565b60405160208183030381529060405280519060200120846001600160a01b03167fe92cfa7966c9604dbf55676f1f22a9683eecf797c049002df1d5267c4c7b7ea58460405161070591906110f5565b60405180910390a35050600080546001810182559080527f290decd9548b62a8d60345a988386fc84ba6bc95484008f6362f93160ef3e5630180546001600160a01b0319166001600160a01b038416179055509a9950505050505050505050565b6001546001600160a01b031633146107905760405162461bcd60e51b8152600401610428906114a7565b600280546001600160a01b0319166001600160a01b0392909216919091179055565b6001546001600160a01b031633146107dc5760405162461bcd60e51b8152600401610428906114a7565b600380546001600160a01b0319166001600160a01b0392909216919091179055565b6000818154811061080e57600080fd5b6000918252602090912001546001600160a01b0316905081565b6001546001600160a01b031633146108525760405162461bcd60e51b8152600401610428906114a7565b600180546001600160a01b0319166001600160a01b0392909216919091179055565b6001546001600160a01b0316331461089e5760405162461bcd60e51b8152600401610428906114a7565b600455565b6000604051733d602d80600a3d3981f3363d3d373d3d3d363d7360601b81528260601b60148201526e5af43d82803e903d91602b57fd5bf360881b60288201526037816000f09150506001600160a01b0381166109125760405162461bcd60e51b8152600401610428906114e4565b919050565b60008083600001518460400151856020015160405160200161093b93929190611531565b6040516020818303038152906040528051906020012090506000817f00000000000000000000000000000000000000000000000000000000000000006201fa40867f00000000000000000000000000000000000000000000000000000000000000003060006040516020016109b69796959493929190611585565b60408051601f19818403018152908290528051602090910120634f8812e360e11b825291506001600160a01b037f00000000000000000000000000000000000000000000000000000000000000001690639f1025c690610a1a9084906004016110c6565b60206040518083038186803b158015610a3257600080fd5b505afa158015610a46573d6000803e3d6000fd5b505050506040513d601f19601f82011682018060405250810190610a6a919061160b565b63ffffffff1615610a7d57809250610b59565b845160208601516040808801519051631212e4f160e21b81526001600160a01b037f0000000000000000000000000000000000000000000000000000000000000000169363484b93c493610b0493919290917f0000000000000000000000000000000000000000000000000000000000000000916201fa4091906000908d90600401611641565b602060405180830381600087803b158015610b1e57600080fd5b505af1158015610b32573d6000803e3d6000fd5b505050506040513d601f19601f82011682018060405250810190610b5691906116bb565b92505b505092915050565b60006001600160a01b0382165b92915050565b610b7d81610b61565b82525050565b60208101610b6e8284610b74565b6000610b6e6001600160a01b038316610ba8565b90565b6001600160a01b031690565b6000610b6e82610b91565b6000610b6e82610bb4565b610b7d81610bbf565b6000610bdf8383610bca565b505060200190565b6000610bf1825190565b80845260209384019383018060005b83811015610c25578151610c148882610bd3565b975060208301925050600101610c00565b509495945050505050565b60208082528101610c418184610be7565b9392505050565b63ffffffff8116610b7d565b60208101610b6e8284610c48565b634e487b7160e01b600052604160045260246000fd5b601f19601f830116810181811067ffffffffffffffff82111715610c9e57610c9e610c62565b6040525050565b6000610cb060405190565b90506109128282610c78565b600067ffffffffffffffff821115610cd657610cd6610c62565b601f19601f83011660200192915050565b82818337506000910152565b6000610d06610d0184610cbc565b610ca5565b905082815260208101848484011115610d2157610d21600080fd5b610d2c848285610ce7565b509392505050565b600082601f830112610d4857610d48600080fd5b8135610d58848260208601610cf3565b949350505050565b610d6981610b61565b8114610d7457600080fd5b50565b8035610b6e81610d60565b80610d69565b8035610b6e81610d82565b600067ffffffffffffffff821115610dad57610dad610c62565b5060209081020190565b63ffffffff8116610d69565b8035610b6e81610db7565b600060608284031215610de357610de3600080fd5b610ded6060610ca5565b90506000610dfb8484610d88565b825250602082013567ffffffffffffffff811115610e1b57610e1b600080fd5b610e2784828501610d34565b6020830152506040610e3b84828501610dc3565b60408301525092915050565b6000610e55610d0184610d93565b83815290506020808201908402830185811115610e7457610e74600080fd5b835b81811015610eb557803567ffffffffffffffff811115610e9857610e98600080fd5b808601610ea58982610dce565b8552505060209283019201610e76565b5050509392505050565b600082601f830112610ed357610ed3600080fd5b8135610d58848260208601610e47565b61ffff8116610d69565b8035610b6e81610ee3565b6000610f06610d0184610d93565b83815290506020808201908402830185811115610f2557610f25600080fd5b835b81811015610eb55780610f3a8882610eed565b84525060209283019201610f27565b600082601f830112610f5d57610f5d600080fd5b8135610d58848260208601610ef8565b60008060008060008060008060006101208a8c031215610f8f57610f8f600080fd5b893567ffffffffffffffff811115610fa957610fa9600080fd5b610fb58c828d01610d34565b99505060208a013567ffffffffffffffff811115610fd557610fd5600080fd5b610fe18c828d01610d34565b9850506040610ff28c828d01610d77565b97505060606110038c828d01610d88565b96505060806110148c828d01610d88565b95505060a06110258c828d01610d88565b94505060c06110368c828d01610d88565b93505060e08a013567ffffffffffffffff81111561105657611056600080fd5b6110628c828d01610ebf565b9250506101008a013567ffffffffffffffff81111561108357611083600080fd5b61108f8c828d01610f49565b9150509295985092959850929598565b6000602082840312156110b4576110b4600080fd5b6000610d588484610d77565b80610b7d565b60208101610b6e82846110c0565b6000602082840312156110e9576110e9600080fd5b6000610d588484610d88565b60208101610b6e8284610bca565b634e487b7160e01b600052603260045260246000fd5b60208082528101610b6e81602a81527f43616e6e6f74206f70656e207175657374696f6e20696e2074686520626574746020820152691a5b99c81c195c9a5bd960b21b604082015260600190565b60208082527f5175657374696f6e732061726520696e20696e636f7272656374206f72646572910190815260005b5060200190565b60208082528101610b6e81611167565b634e487b7160e01b600052601160045260246000fd5b60006000198214156111d6576111d66111ac565b5060010190565b60a081016111eb8288610b74565b6111f860208301876110c0565b6112056040830186610b74565b61121260608301856110c0565b61121f6080830184610b74565b9695505050505050565b6000821982111561123c5761123c6111ac565b500190565b61ffff8116610b7d565b60005b8381101561126657818101518382015260200161124e565b83811115611275576000848401525b50505050565b6000611285825190565b80845260208401935061129c81856020860161124b565b601f01601f19169290920192915050565b805160009060a08401906112c18582611241565b5060208301516112d46020860182611241565b5060408301516112e76040860182610b74565b50606083015184820360608601526112ff828261127b565b91505060808301518482036080860152611319828261127b565b95945050505050565b6000610bdf83836110c0565b6000611338825190565b80845260209384019383018060005b83811015610c2557815161135b8882611322565b975060208301925050600101611347565b6000610bdf8383611241565b6000611382825190565b80845260209384019383018060005b83811015610c255781516113a5888261136c565b975060208301925050600101611391565b61010080825281016113c8818b6112ad565b90506113d7602083018a610b74565b6113e46040830189610b74565b6113f160608301886110c0565b6113fe60808301876110c0565b61140b60a08301866110c0565b81810360c083015261141d818561132e565b905081810360e08301526114318184611378565b9a9950505050505050505050565b6000611449825190565b602083018060005b83811015610c255781516114658882611322565b975060208301925050600101611451565b6000610c41828461143f565b600e81526000602082016d139bdd08185d5d1a1bdc9a5e995960921b81529150611195565b60208082528101610b6e81611482565b6016815260006020820175115490cc4c4d8dce8818dc99585d194819985a5b195960521b81529150611195565b60208082528101610b6e816114b7565b6000610b6e8260e01b90565b610b7d63ffffffff82166114f4565b6000611519825190565b61152781856020860161124b565b9290920192915050565b600061153d82866110c0565b60208201915061154d8285611500565b600482019150611319828461150f565b6000610b6e8260601b90565b6000610b6e8261155d565b610b7d61158082610b61565b611569565b6000611591828a6110c0565b6020820191506115a18289611574565b6014820191506115b18288611500565b6004820191506115c182876110c0565b6020820191506115d18286611574565b6014820191506115e18285611574565b6014820191506115f182846110c0565b50602001979650505050505050565b8051610b6e81610db7565b60006020828403121561162057611620600080fd5b6000610d588484611600565b6000610b6e610ba58381565b610b7d8161162c565b60e0810161164f828a6110c0565b8181036020830152611661818961127b565b90506116706040830188610b74565b61167d6060830187610c48565b61168a6080830186610c48565b61169760a0830185611638565b6116a460c08301846110c0565b98975050505050505050565b8051610b6e81610d82565b6000602082840312156116d0576116d0600080fd5b6000610d5884846116b056fea26469706673582212204ba1fd4df90804224f400d87052ab5074bf1440e0ac769522e1b355edad8441a64736f6c63430008090033",
  "linkReferences": {},
  "deployedLinkReferences": {}
}