{
  "_format": "hh-sol-artifact-1",
  "contractName": "SVG",
  "sourceName": "contracts/ads/SVG.sol",
  "abi": [
    {
      "inputs": [],
      "stateMutability": "nonpayable",
      "type": "constructor"
    },
    {
      "inputs": [
        {
          "internalType": "address",
          "name": "_market",
          "type": "address"
        },
        {
          "internalType": "uint256",
          "name": "_tokenID",
          "type": "uint256"
        }
      ],
      "name": "getRef",
      "outputs": [
        {
          "internalType": "string",
          "name": "",
          "type": "string"
        }
      ],
      "stateMutability": "view",
      "type": "function"
    },
    {
      "inputs": [
        {
          "internalType": "address",
          "name": "_market",
          "type": "address"
        },
        {
          "internalType": "uint256",
          "name": "_tokenID",
          "type": "uint256"
        }
      ],
      "name": "getSVG",
      "outputs": [
        {
          "internalType": "string",
          "name": "",
          "type": "string"
        }
      ],
      "stateMutability": "view",
      "type": "function"
    },
    {
      "inputs": [
        {
          "internalType": "bytes32",
          "name": "_itemID",
          "type": "bytes32"
        },
        {
          "internalType": "bytes32",
          "name": "_proxyItemID",
          "type": "bytes32"
        },
        {
          "internalType": "string",
          "name": "_svg",
          "type": "string"
        },
        {
          "internalType": "string",
          "name": "_ref",
          "type": "string"
        }
      ],
      "name": "initialize",
      "outputs": [],
      "stateMutability": "nonpayable",
      "type": "function"
    },
    {
      "inputs": [],
      "name": "itemID",
      "outputs": [
        {
          "internalType": "bytes32",
          "name": "",
          "type": "bytes32"
        }
      ],
      "stateMutability": "view",
      "type": "function"
    },
    {
      "inputs": [],
      "name": "proxyItemID",
      "outputs": [
        {
          "internalType": "bytes32",
          "name": "",
          "type": "bytes32"
        }
      ],
      "stateMutability": "view",
      "type": "function"
    }
  ],
  "bytecode": "0x608060405234801561001057600080fd5b50610627806100206000396000f3fe608060405234801561001057600080fd5b50600436106100575760003560e01c80632fb1528b1461005c57806343cdef60146100855780634660a3e31461009b578063ae9d449d146100ae578063c22d4d86146100b7575b600080fd5b61006f61006a3660046102d9565b6100cc565b60405161007c9190610378565b60405180910390f35b61008e60025481565b60405161007c9190610390565b61006f6100a93660046102d9565b610162565b61008e60035481565b6100ca6100c536600461049f565b610171565b005b6060600180546100db9061054f565b80601f01602080910402602001604051908101604052809291908181526020018280546101079061054f565b80156101545780601f1061012957610100808354040283529160200191610154565b820191906000526020600020905b81548152906001019060200180831161013757829003601f168201915b505050505090505b92915050565b6060600080546100db9061054f565b6000805461017e9061054f565b1590506101a65760405162461bcd60e51b815260040161019d906105a5565b60405180910390fd5b60008251116101c75760405162461bcd60e51b815260040161019d906105e1565b81516101da9060009060208501906101fc565b5080516101ee9060019060208401906101fc565b505050600291909155600355565b8280546102089061054f565b90600052602060002090601f01602090048101928261022a5760008555610270565b82601f1061024357805160ff1916838001178555610270565b82800160010185558215610270579182015b82811115610270578251825591602001919060010190610255565b5061027c929150610280565b5090565b5b8082111561027c5760008155600101610281565b60006001600160a01b03821661015c565b6102af81610295565b81146102ba57600080fd5b50565b803561015c816102a6565b806102af565b803561015c816102c8565b600080604083850312156102ef576102ef600080fd5b60006102fb85856102bd565b925050602061030c858286016102ce565b9150509250929050565b60005b83811015610331578181015183820152602001610319565b83811115610340576000848401525b50505050565b6000610350825190565b808452602084019350610367818560208601610316565b601f01601f19169290920192915050565b602080825281016103898184610346565b9392505050565b8181526020810161015c565b634e487b7160e01b600052604160045260246000fd5b601f19601f830116810181811067ffffffffffffffff821117156103d8576103d861039c565b6040525050565b60006103ea60405190565b90506103f682826103b2565b919050565b600067ffffffffffffffff8211156104155761041561039c565b601f19601f83011660200192915050565b82818337506000910152565b6000610445610440846103fb565b6103df565b90508281526020810184848401111561046057610460600080fd5b61046b848285610426565b509392505050565b600082601f83011261048757610487600080fd5b8135610497848260208601610432565b949350505050565b600080600080608085870312156104b8576104b8600080fd5b60006104c487876102ce565b94505060206104d5878288016102ce565b935050604085013567ffffffffffffffff8111156104f5576104f5600080fd5b61050187828801610473565b925050606085013567ffffffffffffffff81111561052157610521600080fd5b61052d87828801610473565b91505092959194509250565b634e487b7160e01b600052602260045260246000fd5b60028104600182168061056357607f821691505b6020821081141561057657610576610539565b50919050565b600f81526000602082016e14d591c8185b1c9958591e481cd95d608a1b815291505b5060200190565b6020808252810161015c8161057c565b6015815260006020820174535647206d757374206e6f7420626520656d70747960581b8152915061059e565b6020808252810161015c816105b556fea2646970667358221220f70036c4a2b35ad27d6a3c4d8bb079b55e52dac3777650fd7434b794d1af789a64736f6c63430008090033",
  "linkReferences": {},
  "deployedLinkReferences": {}
}