{
  "_format": "hh-sol-artifact-1",
  "contractName": "SVGFactory",
  "sourceName": "contracts/ads/SVGFactory.sol",
  "abi": [
    {
      "inputs": [
        {
          "internalType": "address",
          "name": "_adContract",
          "type": "address"
        },
        {
          "internalType": "contract ICurate",
          "name": "_technicalCurate",
          "type": "address"
        },
        {
          "internalType": "contract ICurate",
          "name": "_contentCurate",
          "type": "address"
        },
        {
          "internalType": "address",
          "name": "_curateProxy",
          "type": "address"
        }
      ],
      "stateMutability": "nonpayable",
      "type": "constructor"
    },
    {
      "anonymous": false,
      "inputs": [
        {
          "indexed": true,
          "internalType": "address",
          "name": "ad",
          "type": "address"
        }
      ],
      "name": "NewAd",
      "type": "event"
    },
    {
      "inputs": [],
      "name": "adContract",
      "outputs": [
        {
          "internalType": "address",
          "name": "",
          "type": "address"
        }
      ],
      "stateMutability": "view",
      "type": "function"
    },
    {
      "inputs": [],
      "name": "adCount",
      "outputs": [
        {
          "internalType": "uint256",
          "name": "",
          "type": "uint256"
        }
      ],
      "stateMutability": "view",
      "type": "function"
    },
    {
      "inputs": [
        {
          "internalType": "uint256",
          "name": "",
          "type": "uint256"
        }
      ],
      "name": "ads",
      "outputs": [
        {
          "internalType": "contract SVG",
          "name": "",
          "type": "address"
        }
      ],
      "stateMutability": "view",
      "type": "function"
    },
    {
      "inputs": [],
      "name": "allAds",
      "outputs": [
        {
          "internalType": "contract SVG[]",
          "name": "",
          "type": "address[]"
        }
      ],
      "stateMutability": "view",
      "type": "function"
    },
    {
      "inputs": [
        {
          "internalType": "address",
          "name": "_newAdContract",
          "type": "address"
        }
      ],
      "name": "changeAdContract",
      "outputs": [],
      "stateMutability": "nonpayable",
      "type": "function"
    },
    {
      "inputs": [
        {
          "internalType": "address",
          "name": "_newCurateProxy",
          "type": "address"
        }
      ],
      "name": "changeCurateProxy",
      "outputs": [],
      "stateMutability": "nonpayable",
      "type": "function"
    },
    {
      "inputs": [
        {
          "internalType": "address",
          "name": "_newGovernor",
          "type": "address"
        }
      ],
      "name": "changeGovernor",
      "outputs": [],
      "stateMutability": "nonpayable",
      "type": "function"
    },
    {
      "inputs": [],
      "name": "contentCurate",
      "outputs": [
        {
          "internalType": "contract ICurate",
          "name": "",
          "type": "address"
        }
      ],
      "stateMutability": "view",
      "type": "function"
    },
    {
      "inputs": [
        {
          "internalType": "string",
          "name": "_svg",
          "type": "string"
        },
        {
          "internalType": "string",
          "name": "_ref",
          "type": "string"
        }
      ],
      "name": "createAd",
      "outputs": [
        {
          "internalType": "address",
          "name": "",
          "type": "address"
        }
      ],
      "stateMutability": "payable",
      "type": "function"
    },
    {
      "inputs": [],
      "name": "curateProxy",
      "outputs": [
        {
          "internalType": "address",
          "name": "",
          "type": "address"
        }
      ],
      "stateMutability": "view",
      "type": "function"
    },
    {
      "inputs": [],
      "name": "governor",
      "outputs": [
        {
          "internalType": "address",
          "name": "",
          "type": "address"
        }
      ],
      "stateMutability": "view",
      "type": "function"
    },
    {
      "inputs": [
        {
          "internalType": "bytes32",
          "name": "",
          "type": "bytes32"
        }
      ],
      "name": "items",
      "outputs": [
        {
          "internalType": "address",
          "name": "creator",
          "type": "address"
        },
        {
          "internalType": "uint32",
          "name": "technicalRequestIndex",
          "type": "uint32"
        },
        {
          "internalType": "uint32",
          "name": "contentRequestIndex",
          "type": "uint32"
        },
        {
          "internalType": "bool",
          "name": "rewardClaimed",
          "type": "bool"
        }
      ],
      "stateMutability": "view",
      "type": "function"
    },
    {
      "inputs": [],
      "name": "technicalCurate",
      "outputs": [
        {
          "internalType": "contract ICurate",
          "name": "",
          "type": "address"
        }
      ],
      "stateMutability": "view",
      "type": "function"
    },
    {
      "inputs": [
        {
          "internalType": "bytes32",
          "name": "_itemID",
          "type": "bytes32"
        }
      ],
      "name": "withdraw",
      "outputs": [],
      "stateMutability": "nonpayable",
      "type": "function"
    },
    {
      "stateMutability": "payable",
      "type": "receive"
    }
  ],
  "bytecode": "0x60c0604052600080546001600160a01b031916331790553480156200002357600080fd5b5060405162001d6c38038062001d6c8339810160408190526200004691620000e3565b600280546001600160a01b039586166001600160a01b03199182161790915592841660805290831660a0526001805491909316911617905562000151565b60006001600160a01b0382165b92915050565b620000a28162000084565b8114620000ae57600080fd5b50565b8051620000918162000097565b6000620000918262000084565b620000a281620000be565b80516200009181620000cb565b60008060008060808587031215620000fe57620000fe600080fd5b60006200010c8787620000b1565b94505060206200011f87828801620000d6565b93505060406200013287828801620000d6565b92505060606200014587828801620000b1565b91505092959194509250565b60805160a051611bbe620001ae60003960008181610317015281816104e9015281816105fc0152818161077c0152610a2701526000818160ff015281816104bc0152818161057f015281816106a501526109e80152611bbe6000f3fe6080604052600436106100e15760003560e01c80637a0ffc9c1161007f5780639c89dcf3116100595780639c89dcf3146102a8578063c9bdb93e146102c5578063e4c0aaf4146102e5578063e92057aa1461030557600080fd5b80637a0ffc9c146102555780637b40be60146102685780638e19899e1461028857600080fd5b806311a7a4c0116100bb57806311a7a4c0146101845780631d63b28f146101a45780633c14d696146101c657806348f343f3146101e857600080fd5b806303db0eee146100ed5780630c340a24146101375780630d19c74b1461016457600080fd5b366100e857005b600080fd5b3480156100f957600080fd5b506101217f000000000000000000000000000000000000000000000000000000000000000081565b60405161012e919061102a565b60405180910390f35b34801561014357600080fd5b50600054610157906001600160a01b031681565b60405161012e9190611052565b34801561017057600080fd5b50600154610157906001600160a01b031681565b34801561019057600080fd5b5061012161019f36600461107b565b610339565b3480156101b057600080fd5b506101c46101bf3660046110b0565b610363565b005b3480156101d257600080fd5b506101db6103b8565b60405161012e919061112e565b3480156101f457600080fd5b5061024561020336600461107b565b6004602052600090815260409020546001600160a01b0381169063ffffffff600160a01b8204811691600160c01b81049091169060ff600160e01b9091041684565b60405161012e949392919061115a565b610157610263366004611285565b61041a565b34801561027457600080fd5b506101c46102833660046110b0565b610933565b34801561029457600080fd5b506101c46102a336600461107b565b61097f565b3480156102b457600080fd5b5060035460405161012e91906112fd565b3480156102d157600080fd5b50600254610157906001600160a01b031681565b3480156102f157600080fd5b506101c46103003660046110b0565b610b0c565b34801561031157600080fd5b506101217f000000000000000000000000000000000000000000000000000000000000000081565b6003818154811061034957600080fd5b6000918252602090912001546001600160a01b0316905081565b6000546001600160a01b031633146103965760405162461bcd60e51b815260040161038d90611333565b60405180910390fd5b600280546001600160a01b0319166001600160a01b0392909216919091179055565b6060600380548060200260200160405190810160405280929190818152602001828054801561041057602002820191906000526020600020905b81546001600160a01b031681526001909101906020018083116103f2575b5050505050905090565b6002546000908190610434906001600160a01b0316610b58565b60405190915081906001600160a01b038216907f7c466f1f8042a039f142263e295543c0dfd8dafd0c8534312863713e5e4a944790600090a26003805460018101825560009182527fc2575a0e9e593c00f959f8c92f12db2869c3395a3b0502d05e2516446f71f85b0180546001600160a01b0319166001600160a01b0384161790556104e07f0000000000000000000000000000000000000000000000000000000000000000610bcc565b9050600061050d7f0000000000000000000000000000000000000000000000000000000000000000610bcc565b90506105198183611359565b34146105375760405162461bcd60e51b815260040161038d90611398565b604051600090610558906135a560f21b908790600160ff1b906020016113f0565b60408051601f198184030181529082905263d294ccef60e01b825291506001600160a01b037f0000000000000000000000000000000000000000000000000000000000000000169063d294ccef9085906105b6908590600401611485565b6000604051808303818588803b1580156105cf57600080fd5b505af11580156105e3573d6000803e3d6000fd5b505060405163d294ccef60e01b81526001600160a01b037f000000000000000000000000000000000000000000000000000000000000000016935063d294ccef9250859150610636908590600401611485565b6000604051808303818588803b15801561064f57600080fd5b505af1158015610663573d6000803e3d6000fd5b505083516020808601919091206000818152600492839052604080822080546001600160a01b031916331781559051634aac84e560e01b8152929650945092507f00000000000000000000000000000000000000000000000000000000000000006001600160a01b031691634aac84e5916106e0918791016112fd565b60006040518083038186803b1580156106f857600080fd5b505afa15801561070c573d6000803e3d6000fd5b505050506040513d6000823e601f3d908101601f191682016040526107349190810190611511565b92505050600181610745919061157b565b825463ffffffff91909116600160a01b0263ffffffff60a01b19909116178255604051634aac84e560e01b81526001600160a01b037f00000000000000000000000000000000000000000000000000000000000000001690634aac84e5906107b19086906004016112fd565b60006040518083038186803b1580156107c957600080fd5b505afa1580156107dd573d6000803e3d6000fd5b505050506040513d6000823e601f3d908101601f191682016040526108059190810190611511565b92506108169150600190508261157b565b825463ffffffff91909116600160c01b0263ffffffff60c01b19909116178255600154604051638d10eb3560e01b81526000916001600160a01b031690638d10eb35906108699087908190600401611592565b602060405180830381600087803b15801561088357600080fd5b505af1158015610897573d6000803e3d6000fd5b505050506040513d601f19601f820116820180604052508101906108bb91906115ad565b9050876001600160a01b031663c22d4d8685838f8f6040518563ffffffff1660e01b81526004016108ef94939291906115ce565b600060405180830381600087803b15801561090957600080fd5b505af115801561091d573d6000803e3d6000fd5b509a9b5050505050505050505050505b92915050565b6000546001600160a01b0316331461095d5760405162461bcd60e51b815260040161038d90611333565b600180546001600160a01b0319166001600160a01b0392909216919091179055565b600081815260046020526040902080546001600160a01b03166109b45760405162461bcd60e51b815260040161038d90611642565b8054600160e01b900460ff16156109dd5760405162461bcd60e51b815260040161038d90611678565b8054600090610a1c907f0000000000000000000000000000000000000000000000000000000000000000908590600160a01b900463ffffffff16610dbe565b8254909150610a5b907f0000000000000000000000000000000000000000000000000000000000000000908590600160c01b900463ffffffff16610dbe565b610a659082611359565b825460ff60e01b198116600160e01b17845560408051600080825260208201928390529394506001600160a01b03909216918491610aa391906116aa565b60006040518083038185875af1925050503d8060008114610ae0576040519150601f19603f3d011682016040523d82523d6000602084013e610ae5565b606091505b5050905080610b065760405162461bcd60e51b815260040161038d906116dd565b50505050565b6000546001600160a01b03163314610b365760405162461bcd60e51b815260040161038d90611333565b600080546001600160a01b0319166001600160a01b0392909216919091179055565b6000604051733d602d80600a3d3981f3363d3d373d3d3d363d7360601b81528260601b60148201526e5af43d82803e903d91602b57fd5bf360881b60288201526037816000f09150506001600160a01b038116610bc75760405162461bcd60e51b815260040161038d9061171a565b919050565b600080826001600160a01b0316636cc6cde16040518163ffffffff1660e01b815260040160206040518083038186803b158015610c0857600080fd5b505afa158015610c1c573d6000803e3d6000fd5b505050506040513d601f19601f82011682018060405250810190610c409190611749565b90506000816001600160a01b031663f7434ea9856001600160a01b0316630c7ac7b66040518163ffffffff1660e01b815260040160006040518083038186803b158015610c8c57600080fd5b505afa158015610ca0573d6000803e3d6000fd5b505050506040513d6000823e601f3d908101601f19168201604052610cc8919081019061176a565b6040518263ffffffff1660e01b8152600401610ce49190611485565b60206040518083038186803b158015610cfc57600080fd5b505afa158015610d10573d6000803e3d6000fd5b505050506040513d601f19601f82011682018060405250810190610d3491906115ad565b90506000846001600160a01b031663bb0b86ff6040518163ffffffff1660e01b815260040160206040518083038186803b158015610d7157600080fd5b505afa158015610d85573d6000803e3d6000fd5b505050506040513d601f19601f82011682018060405250810190610da991906115ad565b9050610db58282610fc3565b95945050505050565b6000806000856001600160a01b031663bfbcff1a86866040518363ffffffff1660e01b8152600401610df1929190611592565b60006040518083038186803b158015610e0957600080fd5b505afa158015610e1d573d6000803e3d6000fd5b505050506040513d6000823e601f3d908101601f19168201604052610e459190810190611872565b50505096505050945050505081610e6e5760405162461bcd60e51b815260040161038d9061199f565b6000806000886001600160a01b031663974121b2898960006040518463ffffffff1660e01b8152600401610ea4939291906119c4565b6101006040518083038186803b158015610ebd57600080fd5b505afa158015610ed1573d6000803e3d6000fd5b505050506040513d601f19601f82011682018060405250810190610ef59190611ac4565b604082015192965090945092509050610f145760208301519550610fb7565b6000846002811115610f2857610f28611b29565b148015610f385750602083015115155b15610f725760208301516040840151610f519190611359565b6020840151610f61908390611b3f565b610f6b9190611b74565b9550610fb7565b6001846002811115610f8657610f86611b29565b148015610f965750602083015115155b15610fb7576020830151610faa8282611b3f565b610fb49190611b74565b95505b50505050509392505050565b600082820183811015610fd857600019610fda565b805b949350505050565b600061092d6001600160a01b038316610ff9565b90565b6001600160a01b031690565b600061092d82610fe2565b600061092d82611005565b61102481611010565b82525050565b6020810161092d828461101b565b60006001600160a01b03821661092d565b61102481611038565b6020810161092d8284611049565b805b811461106d57600080fd5b50565b803561092d81611060565b60006020828403121561109057611090600080fd5b6000610fda8484611070565b61106281611038565b803561092d8161109c565b6000602082840312156110c5576110c5600080fd5b6000610fda84846110a5565b60006110dd838361101b565b505060200190565b60006110ef825190565b80845260209384019383018060005b8381101561112357815161111288826110d1565b9750602083019250506001016110fe565b509495945050505050565b6020808252810161113f81846110e5565b9392505050565b63ffffffff8116611024565b801515611024565b608081016111688287611049565b6111756020830186611146565b6111826040830185611146565b610db56060830184611152565b634e487b7160e01b600052604160045260246000fd5b601f19601f830116810181811067ffffffffffffffff821117156111cb576111cb61118f565b6040525050565b60006111dd60405190565b9050610bc782826111a5565b600067ffffffffffffffff8211156112035761120361118f565b601f19601f83011660200192915050565b82818337506000910152565b600061123361122e846111e9565b6111d2565b90508281526020810184848401111561124e5761124e600080fd5b611259848285611214565b509392505050565b600082601f83011261127557611275600080fd5b8135610fda848260208601611220565b6000806040838503121561129b5761129b600080fd5b823567ffffffffffffffff8111156112b5576112b5600080fd5b6112c185828601611261565b925050602083013567ffffffffffffffff8111156112e1576112e1600080fd5b6112ed85828601611261565b9150509250929050565b80611024565b6020810161092d82846112f7565b600e81526000602082016d139bdd08185d5d1a1bdc9a5e995960921b815291505b5060200190565b6020808252810161092d8161130b565b634e487b7160e01b600052601160045260246000fd5b6000821982111561136c5761136c611343565b500190565b601081526000602082016f4e6f7420656e6f7567682066756e647360801b8152915061132c565b6020808252810161092d81611371565b6001600160f01b03198116611024565b600061092d8260601b90565b600061092d826113b8565b6110246113db82611038565b6113c4565b6001600160f81b03198116611024565b60006113fc82866113a8565b60028201915061140c82856113cf565b60148201915061141c82846113e0565b506001019392505050565b60005b8381101561144257818101518382015260200161142a565b83811115610b065750506000910152565b600061145d825190565b808452602084019350611474818560208601611427565b601f01601f19169290920192915050565b6020808252810161113f8184611453565b60006114a461122e846111e9565b9050828152602081018484840111156114bf576114bf600080fd5b611259848285611427565b600082601f8301126114de576114de600080fd5b8151610fda848260208601611496565b6004811061106d57600080fd5b805161092d816114ee565b805161092d81611060565b60008060006060848603121561152957611529600080fd5b835167ffffffffffffffff81111561154357611543600080fd5b61154f868287016114ca565b9350506020611560868287016114fb565b925050604061157186828701611506565b9150509250925092565b60008282101561158d5761158d611343565b500390565b604081016115a082856112f7565b61113f60208301846112f7565b6000602082840312156115c2576115c2600080fd5b6000610fda8484611506565b608081016115dc82876112f7565b6115e960208301866112f7565b81810360408301526115fb8185611453565b9050818103606083015261160f8184611453565b9695505050505050565b6012815260006020820171105908191bd95cc81b9bdd08195e1cda5cdd60721b8152915061132c565b6020808252810161092d81611619565b600f81526000602082016e105b1c9958591e4818db185a5b5959608a1b8152915061132c565b6020808252810161092d81611652565b6000611692825190565b6116a0818560208601611427565b9290920192915050565b600061113f8284611688565b601081526000602082016f14d95b9908161110524819985a5b195960821b8152915061132c565b6020808252810161092d816116b6565b6016815260006020820175115490cc4c4d8dce8818dc99585d194819985a5b195960521b8152915061132c565b6020808252810161092d816116ed565b600061092d82611038565b6110628161172a565b805161092d81611735565b60006020828403121561175e5761175e600080fd5b6000610fda848461173e565b60006020828403121561177f5761177f600080fd5b815167ffffffffffffffff81111561179957611799600080fd5b610fda848285016114ca565b801515611062565b805161092d816117a5565b600067ffffffffffffffff8211156117d2576117d261118f565b5060200290565b805161092d8161109c565b60006117f261122e846117b8565b9050806020840283018581111561180b5761180b600080fd5b835b8181101561182f578061182088826117d9565b8452506020928301920161180d565b5050509392505050565b600082601f83011261184d5761184d600080fd5b6003610fda8482856117e4565b6003811061106d57600080fd5b805161092d8161185a565b6000806000806000806000806000806101808b8d03121561189557611895600080fd5b60006118a18d8d6117ad565b9a505060206118b28d828e01611506565b99505060406118c38d828e01611506565b98505060606118d48d828e016117ad565b97505060806118e58d828e01611839565b96505060e06118f68d828e01611506565b9550506101006119088d828e01611867565b94505061012061191a8d828e016117d9565b9350506101408b015167ffffffffffffffff81111561193b5761193b600080fd5b6119478d828e016114ca565b9250506101606119598d828e01611506565b9150509295989b9194979a5092959850565b601881526000602082017f52657175657374206e6f74207265736f6c7665642079657400000000000000008152915061132c565b6020808252810161092d8161196b565b600061092d610ff68381565b611024816119af565b606081016119d282866112f7565b6119df60208301856112f7565b610fda60408301846119bb565b60006119fa61122e846117b8565b90508060208402830185811115611a1357611a13600080fd5b835b8181101561182f5780611a288882611506565b84525060209283019201611a15565b600082601f830112611a4b57611a4b600080fd5b6003610fda8482856119ec565b6000611a6661122e846117b8565b90508060208402830185811115611a7f57611a7f600080fd5b835b8181101561182f5780611a9488826117ad565b84525060209283019201611a81565b600082601f830112611ab757611ab7600080fd5b6003610fda848285611a58565b6000806000806101008587031215611ade57611ade600080fd5b6000611aea87876117ad565b9450506020611afb87828801611a37565b9350506080611b0c87828801611aa3565b92505060e0611b1d87828801611506565b91505092959194509250565b634e487b7160e01b600052602160045260246000fd5b6000816000190483118215151615611b5957611b59611343565b500290565b634e487b7160e01b600052601260045260246000fd5b600082611b8357611b83611b5e565b50049056fea26469706673582212202eeb6100c5ed62970d7476759990da488c21be81df49243bac201629ef31841464736f6c63430008090033",
  "linkReferences": {},
  "deployedLinkReferences": {}
}