{
  "_format": "hh-sol-artifact-1",
  "contractName": "TournamentFactory",
  "sourceName": "contracts/TournamentFactory.sol",
  "abi": [
    {
      "inputs": [
        {
          "internalType": "address",
          "name": "_tournament",
          "type": "address"
        }
      ],
      "stateMutability": "nonpayable",
      "type": "constructor"
    },
    {
      "inputs": [],
      "name": "allTournaments",
      "outputs": [
        {
          "internalType": "contract Tournament[]",
          "name": "",
          "type": "address[]"
        }
      ],
      "stateMutability": "view",
      "type": "function"
    },
    {
      "inputs": [],
      "name": "arbitrator",
      "outputs": [
        {
          "internalType": "address",
          "name": "",
          "type": "address"
        }
      ],
      "stateMutability": "view",
      "type": "function"
    },
    {
      "inputs": [
        {
          "components": [
            {
              "internalType": "string",
              "name": "tournamentName",
              "type": "string"
            },
            {
              "internalType": "string",
              "name": "tournamentSymbol",
              "type": "string"
            },
            {
              "internalType": "string",
              "name": "tournamentUri",
              "type": "string"
            }
          ],
          "internalType": "struct Tournament.TournamentInfo",
          "name": "tournamentInfo",
          "type": "tuple"
        },
        {
          "internalType": "uint256",
          "name": "closingTime",
          "type": "uint256"
        },
        {
          "internalType": "uint256",
          "name": "price",
          "type": "uint256"
        },
        {
          "internalType": "uint256",
          "name": "managementFee",
          "type": "uint256"
        },
        {
          "internalType": "address",
          "name": "manager",
          "type": "address"
        },
        {
          "components": [
            {
              "internalType": "address",
              "name": "arbitrator",
              "type": "address"
            },
            {
              "internalType": "uint32",
              "name": "timeout",
              "type": "uint32"
            },
            {
              "internalType": "uint256",
              "name": "minBond",
              "type": "uint256"
            }
          ],
          "internalType": "struct Tournament.RealitioSetup",
          "name": "realitioSetup",
          "type": "tuple"
        },
        {
          "components": [
            {
              "internalType": "uint256",
              "name": "templateID",
              "type": "uint256"
            },
            {
              "internalType": "string",
              "name": "question",
              "type": "string"
            },
            {
              "internalType": "uint32",
              "name": "openingTS",
              "type": "uint32"
            }
          ],
          "internalType": "struct Tournament.RealitioQuestion[]",
          "name": "questionsData",
          "type": "tuple[]"
        },
        {
          "internalType": "uint16[]",
          "name": "prizeWeights",
          "type": "uint16[]"
        }
      ],
      "name": "createTournament",
      "outputs": [],
      "stateMutability": "nonpayable",
      "type": "function"
    },
    {
      "inputs": [],
      "name": "realitio",
      "outputs": [
        {
          "internalType": "address",
          "name": "",
          "type": "address"
        }
      ],
      "stateMutability": "view",
      "type": "function"
    },
    {
      "inputs": [],
      "name": "submissionTimeout",
      "outputs": [
        {
          "internalType": "uint256",
          "name": "",
          "type": "uint256"
        }
      ],
      "stateMutability": "view",
      "type": "function"
    },
    {
      "inputs": [],
      "name": "tournament",
      "outputs": [
        {
          "internalType": "address",
          "name": "",
          "type": "address"
        }
      ],
      "stateMutability": "view",
      "type": "function"
    }
  ],
  "bytecode": "0x608060405273ded12537da82c1019b3ca1714a5d58b7c5c19a04600260006101000a81548173ffffffffffffffffffffffffffffffffffffffff021916908373ffffffffffffffffffffffffffffffffffffffff16021790555073cb71745d032e16ec838430731282ff6c10d29dea600360006101000a81548173ffffffffffffffffffffffffffffffffffffffff021916908373ffffffffffffffffffffffffffffffffffffffff16021790555062093a80600455348015620000c257600080fd5b50604051620012ef380380620012ef8339818101604052810190620000e891906200019a565b80600160006101000a81548173ffffffffffffffffffffffffffffffffffffffff021916908373ffffffffffffffffffffffffffffffffffffffff16021790555050620001cc565b600080fd5b600073ffffffffffffffffffffffffffffffffffffffff82169050919050565b6000620001628262000135565b9050919050565b620001748162000155565b81146200018057600080fd5b50565b600081519050620001948162000169565b92915050565b600060208284031215620001b357620001b262000130565b5b6000620001c38482850162000183565b91505092915050565b61111380620001dc6000396000f3fe608060405234801561001057600080fd5b50600436106100625760003560e01c80631e0197e2146100675780634fd9694d146100855780636cc6cde1146100a1578063bc8802a2146100bf578063c44ed43d146100dd578063c4bd8519146100fb575b600080fd5b61006f610119565b60405161007c9190610488565b60405180910390f35b61009f600480360381019061009a9190610a24565b61013f565b005b6100a9610293565b6040516100b69190610488565b60405180910390f35b6100c76102b9565b6040516100d49190610488565b60405180910390f35b6100e56102df565b6040516100f29190610c3e565b60405180910390f35b61010361036d565b6040516101109190610c6f565b60405180910390f35b600160009054906101000a900473ffffffffffffffffffffffffffffffffffffffff1681565b6000610182600160009054906101000a900473ffffffffffffffffffffffffffffffffffffffff1673ffffffffffffffffffffffffffffffffffffffff16610373565b90508073ffffffffffffffffffffffffffffffffffffffff1663e6c69b368a600360009054906101000a900473ffffffffffffffffffffffffffffffffffffffff168a8c6004548c8c8c8c8c6040518b63ffffffff1660e01b81526004016101f39a99989796959493929190610faf565b600060405180830381600087803b15801561020d57600080fd5b505af1158015610221573d6000803e3d6000fd5b505050506000819080600181540180825580915050600190039060005260206000200160009091909190916101000a81548173ffffffffffffffffffffffffffffffffffffffff021916908373ffffffffffffffffffffffffffffffffffffffff160217905550505050505050505050565b600260009054906101000a900473ffffffffffffffffffffffffffffffffffffffff1681565b600360009054906101000a900473ffffffffffffffffffffffffffffffffffffffff1681565b6060600080548060200260200160405190810160405280929190818152602001828054801561036357602002820191906000526020600020905b8160009054906101000a900473ffffffffffffffffffffffffffffffffffffffff1673ffffffffffffffffffffffffffffffffffffffff1681526020019060010190808311610319575b5050505050905090565b60045481565b60006040517f3d602d80600a3d3981f3363d3d373d3d3d363d7300000000000000000000000081528260601b60148201527f5af43d82803e903d91602b57fd5bf3000000000000000000000000000000000060288201526037816000f0915050600073ffffffffffffffffffffffffffffffffffffffff168173ffffffffffffffffffffffffffffffffffffffff1603610442576040517f08c379a0000000000000000000000000000000000000000000000000000000008152600401610439906110bd565b60405180910390fd5b919050565b600073ffffffffffffffffffffffffffffffffffffffff82169050919050565b600061047282610447565b9050919050565b61048281610467565b82525050565b600060208201905061049d6000830184610479565b92915050565b6000604051905090565b600080fd5b600080fd5b600080fd5b6000601f19601f8301169050919050565b7f4e487b7100000000000000000000000000000000000000000000000000000000600052604160045260246000fd5b610505826104bc565b810181811067ffffffffffffffff82111715610524576105236104cd565b5b80604052505050565b60006105376104a3565b905061054382826104fc565b919050565b600080fd5b600080fd5b600080fd5b600067ffffffffffffffff821115610572576105716104cd565b5b61057b826104bc565b9050602081019050919050565b82818337600083830152505050565b60006105aa6105a584610557565b61052d565b9050828152602081018484840111156105c6576105c5610552565b5b6105d1848285610588565b509392505050565b600082601f8301126105ee576105ed61054d565b5b81356105fe848260208601610597565b91505092915050565b60006060828403121561061d5761061c6104b7565b5b610627606061052d565b9050600082013567ffffffffffffffff81111561064757610646610548565b5b610653848285016105d9565b600083015250602082013567ffffffffffffffff81111561067757610676610548565b5b610683848285016105d9565b602083015250604082013567ffffffffffffffff8111156106a7576106a6610548565b5b6106b3848285016105d9565b60408301525092915050565b6000819050919050565b6106d2816106bf565b81146106dd57600080fd5b50565b6000813590506106ef816106c9565b92915050565b6106fe81610467565b811461070957600080fd5b50565b60008135905061071b816106f5565b92915050565b600063ffffffff82169050919050565b61073a81610721565b811461074557600080fd5b50565b60008135905061075781610731565b92915050565b600060608284031215610773576107726104b7565b5b61077d606061052d565b9050600061078d8482850161070c565b60008301525060206107a184828501610748565b60208301525060406107b5848285016106e0565b60408301525092915050565b600067ffffffffffffffff8211156107dc576107db6104cd565b5b602082029050602081019050919050565b600080fd5b600060608284031215610808576108076104b7565b5b610812606061052d565b90506000610822848285016106e0565b600083015250602082013567ffffffffffffffff81111561084657610845610548565b5b610852848285016105d9565b602083015250604061086684828501610748565b60408301525092915050565b6000610885610880846107c1565b61052d565b905080838252602082019050602084028301858111156108a8576108a76107ed565b5b835b818110156108ef57803567ffffffffffffffff8111156108cd576108cc61054d565b5b8086016108da89826107f2565b855260208501945050506020810190506108aa565b5050509392505050565b600082601f83011261090e5761090d61054d565b5b813561091e848260208601610872565b91505092915050565b600067ffffffffffffffff821115610942576109416104cd565b5b602082029050602081019050919050565b600061ffff82169050919050565b61096a81610953565b811461097557600080fd5b50565b60008135905061098781610961565b92915050565b60006109a061099b84610927565b61052d565b905080838252602082019050602084028301858111156109c3576109c26107ed565b5b835b818110156109ec57806109d88882610978565b8452602084019350506020810190506109c5565b5050509392505050565b600082601f830112610a0b57610a0a61054d565b5b8135610a1b84826020860161098d565b91505092915050565b600080600080600080600080610140898b031215610a4557610a446104ad565b5b600089013567ffffffffffffffff811115610a6357610a626104b2565b5b610a6f8b828c01610607565b9850506020610a808b828c016106e0565b9750506040610a918b828c016106e0565b9650506060610aa28b828c016106e0565b9550506080610ab38b828c0161070c565b94505060a0610ac48b828c0161075d565b93505061010089013567ffffffffffffffff811115610ae657610ae56104b2565b5b610af28b828c016108f9565b92505061012089013567ffffffffffffffff811115610b1457610b136104b2565b5b610b208b828c016109f6565b9150509295985092959890939650565b600081519050919050565b600082825260208201905092915050565b6000819050602082019050919050565b6000819050919050565b6000610b81610b7c610b7784610447565b610b5c565b610447565b9050919050565b6000610b9382610b66565b9050919050565b6000610ba582610b88565b9050919050565b610bb581610b9a565b82525050565b6000610bc78383610bac565b60208301905092915050565b6000602082019050919050565b6000610beb82610b30565b610bf58185610b3b565b9350610c0083610b4c565b8060005b83811015610c31578151610c188882610bbb565b9750610c2383610bd3565b925050600181019050610c04565b5085935050505092915050565b60006020820190508181036000830152610c588184610be0565b905092915050565b610c69816106bf565b82525050565b6000602082019050610c846000830184610c60565b92915050565b600081519050919050565b600082825260208201905092915050565b60005b83811015610cc4578082015181840152602081019050610ca9565b83811115610cd3576000848401525b50505050565b6000610ce482610c8a565b610cee8185610c95565b9350610cfe818560208601610ca6565b610d07816104bc565b840191505092915050565b60006060830160008301518482036000860152610d2f8282610cd9565b91505060208301518482036020860152610d498282610cd9565b91505060408301518482036040860152610d638282610cd9565b9150508091505092915050565b610d7981610467565b82525050565b610d8881610721565b82525050565b610d97816106bf565b82525050565b606082016000820151610db36000850182610d70565b506020820151610dc66020850182610d7f565b506040820151610dd96040850182610d8e565b50505050565b600081519050919050565b600082825260208201905092915050565b6000819050602082019050919050565b6000606083016000830151610e236000860182610d8e565b5060208301518482036020860152610e3b8282610cd9565b9150506040830151610e506040860182610d7f565b508091505092915050565b6000610e678383610e0b565b905092915050565b6000602082019050919050565b6000610e8782610ddf565b610e918185610dea565b935083602082028501610ea385610dfb565b8060005b85811015610edf5784840389528151610ec08582610e5b565b9450610ecb83610e6f565b925060208a01995050600181019050610ea7565b50829750879550505050505092915050565b600081519050919050565b600082825260208201905092915050565b6000819050602082019050919050565b610f2681610953565b82525050565b6000610f388383610f1d565b60208301905092915050565b6000602082019050919050565b6000610f5c82610ef1565b610f668185610efc565b9350610f7183610f0d565b8060005b83811015610fa2578151610f898882610f2c565b9750610f9483610f44565b925050600181019050610f75565b5085935050505092915050565b6000610180820190508181036000830152610fca818d610d12565b9050610fd9602083018c610479565b610fe6604083018b610c60565b610ff3606083018a610c60565b6110006080830189610c60565b61100d60a0830188610c60565b61101a60c0830187610479565b61102760e0830186610d9d565b81810361014083015261103a8185610e7c565b905081810361016083015261104f8184610f51565b90509b9a5050505050505050505050565b600082825260208201905092915050565b7f455243313136373a20637265617465206661696c656400000000000000000000600082015250565b60006110a7601683611060565b91506110b282611071565b602082019050919050565b600060208201905081810360008301526110d68161109a565b905091905056fea2646970667358221220130375a5726cafaa5ba4f1f152d8707692d8c6c4379522b54f0e3967e51466d564736f6c634300080d0033",
  "linkReferences": {},
  "deployedLinkReferences": {}
}